{
	"AVAX/artifacts/staking.sol": {
		"TokenStaking": {
			"abi": [
				{
					"inputs": [
						{
							"internalType": "address",
							"name": "_stakingToken",
							"type": "address"
						}
					],
					"stateMutability": "nonpayable",
					"type": "constructor"
				},
				{
					"anonymous": false,
					"inputs": [
						{
							"indexed": true,
							"internalType": "address",
							"name": "previousOwner",
							"type": "address"
						},
						{
							"indexed": true,
							"internalType": "address",
							"name": "newOwner",
							"type": "address"
						}
					],
					"name": "OwnershipTransferred",
					"type": "event"
				},
				{
					"anonymous": false,
					"inputs": [
						{
							"indexed": true,
							"internalType": "address",
							"name": "user",
							"type": "address"
						},
						{
							"indexed": false,
							"internalType": "uint256",
							"name": "reward",
							"type": "uint256"
						},
						{
							"indexed": false,
							"internalType": "uint256",
							"name": "timestamp",
							"type": "uint256"
						}
					],
					"name": "RewardClaimed",
					"type": "event"
				},
				{
					"anonymous": false,
					"inputs": [
						{
							"indexed": true,
							"internalType": "address",
							"name": "user",
							"type": "address"
						},
						{
							"indexed": false,
							"internalType": "uint256",
							"name": "amount",
							"type": "uint256"
						},
						{
							"indexed": false,
							"internalType": "uint256",
							"name": "timestamp",
							"type": "uint256"
						}
					],
					"name": "Staked",
					"type": "event"
				},
				{
					"anonymous": false,
					"inputs": [
						{
							"indexed": true,
							"internalType": "address",
							"name": "user",
							"type": "address"
						},
						{
							"indexed": false,
							"internalType": "uint256",
							"name": "amount",
							"type": "uint256"
						},
						{
							"indexed": false,
							"internalType": "uint256",
							"name": "reward",
							"type": "uint256"
						},
						{
							"indexed": false,
							"internalType": "uint256",
							"name": "timestamp",
							"type": "uint256"
						}
					],
					"name": "Unstaked",
					"type": "event"
				},
				{
					"inputs": [],
					"name": "SECONDS_IN_YEAR",
					"outputs": [
						{
							"internalType": "uint256",
							"name": "",
							"type": "uint256"
						}
					],
					"stateMutability": "view",
					"type": "function"
				},
				{
					"inputs": [
						{
							"internalType": "address",
							"name": "user",
							"type": "address"
						}
					],
					"name": "calculateReward",
					"outputs": [
						{
							"internalType": "uint256",
							"name": "",
							"type": "uint256"
						}
					],
					"stateMutability": "view",
					"type": "function"
				},
				{
					"inputs": [],
					"name": "claimReward",
					"outputs": [],
					"stateMutability": "nonpayable",
					"type": "function"
				},
				{
					"inputs": [],
					"name": "minStakingDuration",
					"outputs": [
						{
							"internalType": "uint256",
							"name": "",
							"type": "uint256"
						}
					],
					"stateMutability": "view",
					"type": "function"
				},
				{
					"inputs": [],
					"name": "owner",
					"outputs": [
						{
							"internalType": "address",
							"name": "",
							"type": "address"
						}
					],
					"stateMutability": "view",
					"type": "function"
				},
				{
					"inputs": [],
					"name": "renounceOwnership",
					"outputs": [],
					"stateMutability": "nonpayable",
					"type": "function"
				},
				{
					"inputs": [],
					"name": "rewardRate",
					"outputs": [
						{
							"internalType": "uint256",
							"name": "",
							"type": "uint256"
						}
					],
					"stateMutability": "view",
					"type": "function"
				},
				{
					"inputs": [
						{
							"internalType": "uint256",
							"name": "_duration",
							"type": "uint256"
						}
					],
					"name": "setMinStakingDuration",
					"outputs": [],
					"stateMutability": "nonpayable",
					"type": "function"
				},
				{
					"inputs": [
						{
							"internalType": "uint256",
							"name": "_rate",
							"type": "uint256"
						}
					],
					"name": "setRewardRate",
					"outputs": [],
					"stateMutability": "nonpayable",
					"type": "function"
				},
				{
					"inputs": [
						{
							"internalType": "uint256",
							"name": "_amount",
							"type": "uint256"
						}
					],
					"name": "stake",
					"outputs": [],
					"stateMutability": "nonpayable",
					"type": "function"
				},
				{
					"inputs": [
						{
							"internalType": "address",
							"name": "user",
							"type": "address"
						}
					],
					"name": "stakedBalance",
					"outputs": [
						{
							"internalType": "uint256",
							"name": "",
							"type": "uint256"
						}
					],
					"stateMutability": "view",
					"type": "function"
				},
				{
					"inputs": [
						{
							"internalType": "address",
							"name": "",
							"type": "address"
						}
					],
					"name": "stakes",
					"outputs": [
						{
							"internalType": "uint256",
							"name": "amount",
							"type": "uint256"
						},
						{
							"internalType": "uint256",
							"name": "stakedAt",
							"type": "uint256"
						},
						{
							"internalType": "uint256",
							"name": "lastClaimed",
							"type": "uint256"
						}
					],
					"stateMutability": "view",
					"type": "function"
				},
				{
					"inputs": [],
					"name": "stakingToken",
					"outputs": [
						{
							"internalType": "contract IERC20",
							"name": "",
							"type": "address"
						}
					],
					"stateMutability": "view",
					"type": "function"
				},
				{
					"inputs": [
						{
							"internalType": "address",
							"name": "newOwner",
							"type": "address"
						}
					],
					"name": "transferOwnership",
					"outputs": [],
					"stateMutability": "nonpayable",
					"type": "function"
				},
				{
					"inputs": [
						{
							"internalType": "uint256",
							"name": "_amount",
							"type": "uint256"
						}
					],
					"name": "unstake",
					"outputs": [],
					"stateMutability": "nonpayable",
					"type": "function"
				}
			],
			"devdoc": {
				"kind": "dev",
				"methods": {
					"owner()": {
						"details": "Returns the address of the current owner."
					},
					"renounceOwnership()": {
						"details": "Leaves the contract without owner. It will not be possible to call `onlyOwner` functions. Can only be called by the current owner. NOTE: Renouncing ownership will leave the contract without an owner, thereby disabling any functionality that is only available to the owner."
					},
					"transferOwnership(address)": {
						"details": "Transfers ownership of the contract to a new account (`newOwner`). Can only be called by the current owner."
					}
				},
				"version": 1
			},
			"evm": {
				"assembly": "    /* \"AVAX/artifacts/staking.sol\":303:3621  contract TokenStaking is Ownable {... */\n  mstore(0x40, 0x80)\n    /* \"AVAX/artifacts/staking.sol\":406:409  100 */\n  0x64\n    /* \"AVAX/artifacts/staking.sol\":378:409  uint256 public rewardRate = 100 */\n  0x02\n  sstore\n    /* \"AVAX/artifacts/staking.sol\":542:548  7 days */\n  0x093a80\n    /* \"AVAX/artifacts/staking.sol\":506:548  uint256 public minStakingDuration = 7 days */\n  0x03\n  sstore\n    /* \"AVAX/artifacts/staking.sol\":979:1069  constructor(address _stakingToken) {... */\n  callvalue\n  dup1\n  iszero\n  tag_1\n  jumpi\n  revert(0x00, 0x00)\ntag_1:\n  pop\n  mload(0x40)\n  sub(codesize, bytecodeSize)\n  dup1\n  bytecodeSize\n  dup4\n  codecopy\n  dup2\n  dup2\n  add\n  0x40\n  mstore\n  dup2\n  add\n  swap1\n  tag_2\n  swap2\n  swap1\n  tag_3\n  jump\t// in\ntag_2:\n    /* \"https://raw.githubusercontent.com/OpenZeppelin/openzeppelin-contracts/v4.9.0/contracts/access/Ownable.sol\":936:968  _transferOwnership(_msgSender()) */\n  tag_7\n    /* \"https://raw.githubusercontent.com/OpenZeppelin/openzeppelin-contracts/v4.9.0/contracts/access/Ownable.sol\":955:967  _msgSender() */\n  tag_8\n    /* \"https://raw.githubusercontent.com/OpenZeppelin/openzeppelin-contracts/v4.9.0/contracts/access/Ownable.sol\":955:965  _msgSender */\n  shl(0x20, tag_9)\n    /* \"https://raw.githubusercontent.com/OpenZeppelin/openzeppelin-contracts/v4.9.0/contracts/access/Ownable.sol\":955:967  _msgSender() */\n  0x20\n  shr\n  jump\t// in\ntag_8:\n    /* \"https://raw.githubusercontent.com/OpenZeppelin/openzeppelin-contracts/v4.9.0/contracts/access/Ownable.sol\":936:954  _transferOwnership */\n  shl(0x20, tag_10)\n    /* \"https://raw.githubusercontent.com/OpenZeppelin/openzeppelin-contracts/v4.9.0/contracts/access/Ownable.sol\":936:968  _transferOwnership(_msgSender()) */\n  0x20\n  shr\n  jump\t// in\ntag_7:\n    /* \"AVAX/artifacts/staking.sol\":1047:1060  _stakingToken */\n  dup1\n    /* \"AVAX/artifacts/staking.sol\":1025:1037  stakingToken */\n  0x01\n  0x00\n    /* \"AVAX/artifacts/staking.sol\":1025:1061  stakingToken = IERC20(_stakingToken) */\n  0x0100\n  exp\n  dup2\n  sload\n  dup2\n  0xffffffffffffffffffffffffffffffffffffffff\n  mul\n  not\n  and\n  swap1\n  dup4\n  0xffffffffffffffffffffffffffffffffffffffff\n  and\n  mul\n  or\n  swap1\n  sstore\n  pop\n    /* \"AVAX/artifacts/staking.sol\":979:1069  constructor(address _stakingToken) {... */\n  pop\n    /* \"AVAX/artifacts/staking.sol\":303:3621  contract TokenStaking is Ownable {... */\n  jump(tag_12)\n    /* \"https://raw.githubusercontent.com/OpenZeppelin/openzeppelin-contracts/v4.9.0/contracts/utils/Context.sol\":640:736  function _msgSender() internal view virtual returns (address) {... */\ntag_9:\n    /* \"https://raw.githubusercontent.com/OpenZeppelin/openzeppelin-contracts/v4.9.0/contracts/utils/Context.sol\":693:700  address */\n  0x00\n    /* \"https://raw.githubusercontent.com/OpenZeppelin/openzeppelin-contracts/v4.9.0/contracts/utils/Context.sol\":719:729  msg.sender */\n  caller\n    /* \"https://raw.githubusercontent.com/OpenZeppelin/openzeppelin-contracts/v4.9.0/contracts/utils/Context.sol\":712:729  return msg.sender */\n  swap1\n  pop\n    /* \"https://raw.githubusercontent.com/OpenZeppelin/openzeppelin-contracts/v4.9.0/contracts/utils/Context.sol\":640:736  function _msgSender() internal view virtual returns (address) {... */\n  swap1\n  jump\t// out\n    /* \"https://raw.githubusercontent.com/OpenZeppelin/openzeppelin-contracts/v4.9.0/contracts/access/Ownable.sol\":2426:2613  function _transferOwnership(address newOwner) internal virtual {... */\ntag_10:\n    /* \"https://raw.githubusercontent.com/OpenZeppelin/openzeppelin-contracts/v4.9.0/contracts/access/Ownable.sol\":2499:2515  address oldOwner */\n  0x00\n    /* \"https://raw.githubusercontent.com/OpenZeppelin/openzeppelin-contracts/v4.9.0/contracts/access/Ownable.sol\":2518:2524  _owner */\n  0x00\n  0x00\n  swap1\n  sload\n  swap1\n  0x0100\n  exp\n  swap1\n  div\n  0xffffffffffffffffffffffffffffffffffffffff\n  and\n    /* \"https://raw.githubusercontent.com/OpenZeppelin/openzeppelin-contracts/v4.9.0/contracts/access/Ownable.sol\":2499:2524  address oldOwner = _owner */\n  swap1\n  pop\n    /* \"https://raw.githubusercontent.com/OpenZeppelin/openzeppelin-contracts/v4.9.0/contracts/access/Ownable.sol\":2543:2551  newOwner */\n  dup2\n    /* \"https://raw.githubusercontent.com/OpenZeppelin/openzeppelin-contracts/v4.9.0/contracts/access/Ownable.sol\":2534:2540  _owner */\n  0x00\n  0x00\n    /* \"https://raw.githubusercontent.com/OpenZeppelin/openzeppelin-contracts/v4.9.0/contracts/access/Ownable.sol\":2534:2551  _owner = newOwner */\n  0x0100\n  exp\n  dup2\n  sload\n  dup2\n  0xffffffffffffffffffffffffffffffffffffffff\n  mul\n  not\n  and\n  swap1\n  dup4\n  0xffffffffffffffffffffffffffffffffffffffff\n  and\n  mul\n  or\n  swap1\n  sstore\n  pop\n    /* \"https://raw.githubusercontent.com/OpenZeppelin/openzeppelin-contracts/v4.9.0/contracts/access/Ownable.sol\":2597:2605  newOwner */\n  dup2\n    /* \"https://raw.githubusercontent.com/OpenZeppelin/openzeppelin-contracts/v4.9.0/contracts/access/Ownable.sol\":2566:2606  OwnershipTransferred(oldOwner, newOwner) */\n  0xffffffffffffffffffffffffffffffffffffffff\n  and\n    /* \"https://raw.githubusercontent.com/OpenZeppelin/openzeppelin-contracts/v4.9.0/contracts/access/Ownable.sol\":2587:2595  oldOwner */\n  dup2\n    /* \"https://raw.githubusercontent.com/OpenZeppelin/openzeppelin-contracts/v4.9.0/contracts/access/Ownable.sol\":2566:2606  OwnershipTransferred(oldOwner, newOwner) */\n  0xffffffffffffffffffffffffffffffffffffffff\n  and\n  0x8be0079c531659141344cd1fd0a4f28419497f9722a3daafe3b4186f6b6457e0\n  mload(0x40)\n  mload(0x40)\n  dup1\n  swap2\n  sub\n  swap1\n  log3\n    /* \"https://raw.githubusercontent.com/OpenZeppelin/openzeppelin-contracts/v4.9.0/contracts/access/Ownable.sol\":2489:2613  {... */\n  pop\n    /* \"https://raw.githubusercontent.com/OpenZeppelin/openzeppelin-contracts/v4.9.0/contracts/access/Ownable.sol\":2426:2613  function _transferOwnership(address newOwner) internal virtual {... */\n  pop\n  jump\t// out\n    /* \"#utility.yul\":88:205   */\ntag_16:\n    /* \"#utility.yul\":197:198   */\n  0x00\n    /* \"#utility.yul\":194:195   */\n  0x00\n    /* \"#utility.yul\":187:199   */\n  revert\n    /* \"#utility.yul\":334:460   */\ntag_18:\n    /* \"#utility.yul\":371:378   */\n  0x00\n    /* \"#utility.yul\":411:453   */\n  0xffffffffffffffffffffffffffffffffffffffff\n    /* \"#utility.yul\":404:409   */\n  dup3\n    /* \"#utility.yul\":400:454   */\n  and\n    /* \"#utility.yul\":389:454   */\n  swap1\n  pop\n    /* \"#utility.yul\":334:460   */\n  swap2\n  swap1\n  pop\n  jump\t// out\n    /* \"#utility.yul\":466:562   */\ntag_19:\n    /* \"#utility.yul\":503:510   */\n  0x00\n    /* \"#utility.yul\":532:556   */\n  tag_28\n    /* \"#utility.yul\":550:555   */\n  dup3\n    /* \"#utility.yul\":532:556   */\n  tag_18\n  jump\t// in\ntag_28:\n    /* \"#utility.yul\":521:556   */\n  swap1\n  pop\n    /* \"#utility.yul\":466:562   */\n  swap2\n  swap1\n  pop\n  jump\t// out\n    /* \"#utility.yul\":568:690   */\ntag_20:\n    /* \"#utility.yul\":641:665   */\n  tag_30\n    /* \"#utility.yul\":659:664   */\n  dup2\n    /* \"#utility.yul\":641:665   */\n  tag_19\n  jump\t// in\ntag_30:\n    /* \"#utility.yul\":634:639   */\n  dup2\n    /* \"#utility.yul\":631:666   */\n  eq\n    /* \"#utility.yul\":621:684   */\n  tag_31\n  jumpi\n    /* \"#utility.yul\":680:681   */\n  0x00\n    /* \"#utility.yul\":677:678   */\n  0x00\n    /* \"#utility.yul\":670:682   */\n  revert\n    /* \"#utility.yul\":621:684   */\ntag_31:\n    /* \"#utility.yul\":568:690   */\n  pop\n  jump\t// out\n    /* \"#utility.yul\":696:839   */\ntag_21:\n    /* \"#utility.yul\":753:758   */\n  0x00\n    /* \"#utility.yul\":784:790   */\n  dup2\n    /* \"#utility.yul\":778:791   */\n  mload\n    /* \"#utility.yul\":769:791   */\n  swap1\n  pop\n    /* \"#utility.yul\":800:833   */\n  tag_33\n    /* \"#utility.yul\":827:832   */\n  dup2\n    /* \"#utility.yul\":800:833   */\n  tag_20\n  jump\t// in\ntag_33:\n    /* \"#utility.yul\":696:839   */\n  swap3\n  swap2\n  pop\n  pop\n  jump\t// out\n    /* \"#utility.yul\":845:1196   */\ntag_3:\n    /* \"#utility.yul\":915:921   */\n  0x00\n    /* \"#utility.yul\":964:966   */\n  0x20\n    /* \"#utility.yul\":952:961   */\n  dup3\n    /* \"#utility.yul\":943:950   */\n  dup5\n    /* \"#utility.yul\":939:962   */\n  sub\n    /* \"#utility.yul\":935:967   */\n  slt\n    /* \"#utility.yul\":932:1051   */\n  iszero\n  tag_35\n  jumpi\n    /* \"#utility.yul\":970:1049   */\n  tag_36\n  tag_16\n  jump\t// in\ntag_36:\n    /* \"#utility.yul\":932:1051   */\ntag_35:\n    /* \"#utility.yul\":1090:1091   */\n  0x00\n    /* \"#utility.yul\":1115:1179   */\n  tag_37\n    /* \"#utility.yul\":1171:1178   */\n  dup5\n    /* \"#utility.yul\":1162:1168   */\n  dup3\n    /* \"#utility.yul\":1151:1160   */\n  dup6\n    /* \"#utility.yul\":1147:1169   */\n  add\n    /* \"#utility.yul\":1115:1179   */\n  tag_21\n  jump\t// in\ntag_37:\n    /* \"#utility.yul\":1105:1179   */\n  swap2\n  pop\n    /* \"#utility.yul\":1061:1189   */\n  pop\n    /* \"#utility.yul\":845:1196   */\n  swap3\n  swap2\n  pop\n  pop\n  jump\t// out\n    /* \"AVAX/artifacts/staking.sol\":303:3621  contract TokenStaking is Ownable {... */\ntag_12:\n  dataSize(sub_0)\n  dup1\n  dataOffset(sub_0)\n  0x00\n  codecopy\n  0x00\n  return\nstop\n\nsub_0: assembly {\n        /* \"AVAX/artifacts/staking.sol\":303:3621  contract TokenStaking is Ownable {... */\n      mstore(0x40, 0x80)\n      callvalue\n      dup1\n      iszero\n      tag_1\n      jumpi\n      revert(0x00, 0x00)\n    tag_1:\n      pop\n      jumpi(tag_2, lt(calldatasize, 0x04))\n      shr(0xe0, calldataload(0x00))\n      dup1\n      0x7b0a47ee\n      gt\n      tag_18\n      jumpi\n      dup1\n      0xa694fc3a\n      gt\n      tag_19\n      jumpi\n      dup1\n      0xa694fc3a\n      eq\n      tag_14\n      jumpi\n      dup1\n      0xb88a802f\n      eq\n      tag_15\n      jumpi\n      dup1\n      0xd82e3962\n      eq\n      tag_16\n      jumpi\n      dup1\n      0xf2fde38b\n      eq\n      tag_17\n      jumpi\n      jump(tag_2)\n    tag_19:\n      dup1\n      0x7b0a47ee\n      eq\n      tag_10\n      jumpi\n      dup1\n      0x8a2ff9a2\n      eq\n      tag_11\n      jumpi\n      dup1\n      0x8da5cb5b\n      eq\n      tag_12\n      jumpi\n      dup1\n      0x9e447fc6\n      eq\n      tag_13\n      jumpi\n      jump(tag_2)\n    tag_18:\n      dup1\n      0x5dcc9391\n      gt\n      tag_20\n      jumpi\n      dup1\n      0x5dcc9391\n      eq\n      tag_6\n      jumpi\n      dup1\n      0x60217267\n      eq\n      tag_7\n      jumpi\n      dup1\n      0x715018a6\n      eq\n      tag_8\n      jumpi\n      dup1\n      0x72f702f3\n      eq\n      tag_9\n      jumpi\n      jump(tag_2)\n    tag_20:\n      dup1\n      0x08ae7e54\n      eq\n      tag_3\n      jumpi\n      dup1\n      0x16934fc4\n      eq\n      tag_4\n      jumpi\n      dup1\n      0x2e17de78\n      eq\n      tag_5\n      jumpi\n    tag_2:\n      revert(0x00, 0x00)\n        /* \"AVAX/artifacts/staking.sol\":506:548  uint256 public minStakingDuration = 7 days */\n    tag_3:\n      tag_21\n      tag_22\n      jump\t// in\n    tag_21:\n      mload(0x40)\n      tag_23\n      swap2\n      swap1\n      tag_24\n      jump\t// in\n    tag_23:\n      mload(0x40)\n      dup1\n      swap2\n      sub\n      swap1\n      return\n        /* \"AVAX/artifacts/staking.sol\":672:715  mapping(address => StakeInfo) public stakes */\n    tag_4:\n      tag_25\n      0x04\n      dup1\n      calldatasize\n      sub\n      dup2\n      add\n      swap1\n      tag_26\n      swap2\n      swap1\n      tag_27\n      jump\t// in\n    tag_26:\n      tag_28\n      jump\t// in\n    tag_25:\n      mload(0x40)\n      tag_29\n      swap4\n      swap3\n      swap2\n      swap1\n      tag_30\n      jump\t// in\n    tag_29:\n      mload(0x40)\n      dup1\n      swap2\n      sub\n      swap1\n      return\n        /* \"AVAX/artifacts/staking.sol\":1754:2385  function unstake(uint256 _amount) external {... */\n    tag_5:\n      tag_31\n      0x04\n      dup1\n      calldatasize\n      sub\n      dup2\n      add\n      swap1\n      tag_32\n      swap2\n      swap1\n      tag_33\n      jump\t// in\n    tag_32:\n      tag_34\n      jump\t// in\n    tag_31:\n      stop\n        /* \"AVAX/artifacts/staking.sol\":449:499  uint256 public constant SECONDS_IN_YEAR = 365 days */\n    tag_6:\n      tag_35\n      tag_36\n      jump\t// in\n    tag_35:\n      mload(0x40)\n      tag_37\n      swap2\n      swap1\n      tag_24\n      jump\t// in\n    tag_37:\n      mload(0x40)\n      dup1\n      swap2\n      sub\n      swap1\n      return\n        /* \"AVAX/artifacts/staking.sol\":3215:3329  function stakedBalance(address user) external view returns (uint256) {... */\n    tag_7:\n      tag_38\n      0x04\n      dup1\n      calldatasize\n      sub\n      dup2\n      add\n      swap1\n      tag_39\n      swap2\n      swap1\n      tag_27\n      jump\t// in\n    tag_39:\n      tag_40\n      jump\t// in\n    tag_38:\n      mload(0x40)\n      tag_41\n      swap2\n      swap1\n      tag_24\n      jump\t// in\n    tag_41:\n      mload(0x40)\n      dup1\n      swap2\n      sub\n      swap1\n      return\n        /* \"https://raw.githubusercontent.com/OpenZeppelin/openzeppelin-contracts/v4.9.0/contracts/access/Ownable.sol\":1824:1925  function renounceOwnership() public virtual onlyOwner {... */\n    tag_8:\n      tag_42\n      tag_43\n      jump\t// in\n    tag_42:\n      stop\n        /* \"AVAX/artifacts/staking.sol\":343:369  IERC20 public stakingToken */\n    tag_9:\n      tag_44\n      tag_45\n      jump\t// in\n    tag_44:\n      mload(0x40)\n      tag_46\n      swap2\n      swap1\n      tag_47\n      jump\t// in\n    tag_46:\n      mload(0x40)\n      dup1\n      swap2\n      sub\n      swap1\n      return\n        /* \"AVAX/artifacts/staking.sol\":378:409  uint256 public rewardRate = 100 */\n    tag_10:\n      tag_48\n      tag_49\n      jump\t// in\n    tag_48:\n      mload(0x40)\n      tag_50\n      swap2\n      swap1\n      tag_24\n      jump\t// in\n    tag_50:\n      mload(0x40)\n      dup1\n      swap2\n      sub\n      swap1\n      return\n        /* \"AVAX/artifacts/staking.sol\":3500:3618  function setMinStakingDuration(uint256 _duration) external onlyOwner {... */\n    tag_11:\n      tag_51\n      0x04\n      dup1\n      calldatasize\n      sub\n      dup2\n      add\n      swap1\n      tag_52\n      swap2\n      swap1\n      tag_33\n      jump\t// in\n    tag_52:\n      tag_53\n      jump\t// in\n    tag_51:\n      stop\n        /* \"https://raw.githubusercontent.com/OpenZeppelin/openzeppelin-contracts/v4.9.0/contracts/access/Ownable.sol\":1201:1286  function owner() public view virtual returns (address) {... */\n    tag_12:\n      tag_54\n      tag_55\n      jump\t// in\n    tag_54:\n      mload(0x40)\n      tag_56\n      swap2\n      swap1\n      tag_57\n      jump\t// in\n    tag_56:\n      mload(0x40)\n      dup1\n      swap2\n      sub\n      swap1\n      return\n        /* \"AVAX/artifacts/staking.sol\":3398:3492  function setRewardRate(uint256 _rate) external onlyOwner {... */\n    tag_13:\n      tag_58\n      0x04\n      dup1\n      calldatasize\n      sub\n      dup2\n      add\n      swap1\n      tag_59\n      swap2\n      swap1\n      tag_33\n      jump\t// in\n    tag_59:\n      tag_60\n      jump\t// in\n    tag_58:\n      stop\n        /* \"AVAX/artifacts/staking.sol\":1077:1746  function stake(uint256 _amount) external {... */\n    tag_14:\n      tag_61\n      0x04\n      dup1\n      calldatasize\n      sub\n      dup2\n      add\n      swap1\n      tag_62\n      swap2\n      swap1\n      tag_33\n      jump\t// in\n    tag_62:\n      tag_63\n      jump\t// in\n    tag_61:\n      stop\n        /* \"AVAX/artifacts/staking.sol\":2393:2822  function claimReward() external {... */\n    tag_15:\n      tag_64\n      tag_65\n      jump\t// in\n    tag_64:\n      stop\n        /* \"AVAX/artifacts/staking.sol\":2830:3207  function calculateReward(address user) public view returns (uint256) {... */\n    tag_16:\n      tag_66\n      0x04\n      dup1\n      calldatasize\n      sub\n      dup2\n      add\n      swap1\n      tag_67\n      swap2\n      swap1\n      tag_27\n      jump\t// in\n    tag_67:\n      tag_68\n      jump\t// in\n    tag_66:\n      mload(0x40)\n      tag_69\n      swap2\n      swap1\n      tag_24\n      jump\t// in\n    tag_69:\n      mload(0x40)\n      dup1\n      swap2\n      sub\n      swap1\n      return\n        /* \"https://raw.githubusercontent.com/OpenZeppelin/openzeppelin-contracts/v4.9.0/contracts/access/Ownable.sol\":2074:2272  function transferOwnership(address newOwner) public virtual onlyOwner {... */\n    tag_17:\n      tag_70\n      0x04\n      dup1\n      calldatasize\n      sub\n      dup2\n      add\n      swap1\n      tag_71\n      swap2\n      swap1\n      tag_27\n      jump\t// in\n    tag_71:\n      tag_72\n      jump\t// in\n    tag_70:\n      stop\n        /* \"AVAX/artifacts/staking.sol\":506:548  uint256 public minStakingDuration = 7 days */\n    tag_22:\n      sload(0x03)\n      dup2\n      jump\t// out\n        /* \"AVAX/artifacts/staking.sol\":672:715  mapping(address => StakeInfo) public stakes */\n    tag_28:\n      mstore(0x20, 0x04)\n      dup1\n      0x00\n      mstore\n      keccak256(0x00, 0x40)\n      0x00\n      swap2\n      pop\n      swap1\n      pop\n      dup1\n      0x00\n      add\n      sload\n      swap1\n      dup1\n      0x01\n      add\n      sload\n      swap1\n      dup1\n      0x02\n      add\n      sload\n      swap1\n      pop\n      dup4\n      jump\t// out\n        /* \"AVAX/artifacts/staking.sol\":1754:2385  function unstake(uint256 _amount) external {... */\n    tag_34:\n        /* \"AVAX/artifacts/staking.sol\":1826:1827  0 */\n      0x00\n        /* \"AVAX/artifacts/staking.sol\":1816:1823  _amount */\n      dup2\n        /* \"AVAX/artifacts/staking.sol\":1816:1827  _amount > 0 */\n      gt\n        /* \"AVAX/artifacts/staking.sol\":1808:1851  require(_amount > 0, \"Cannot unstake zero\") */\n      tag_74\n      jumpi\n      mload(0x40)\n      0x08c379a000000000000000000000000000000000000000000000000000000000\n      dup2\n      mstore\n      0x04\n      add\n      tag_75\n      swap1\n      tag_76\n      jump\t// in\n    tag_75:\n      mload(0x40)\n      dup1\n      swap2\n      sub\n      swap1\n      revert\n    tag_74:\n        /* \"AVAX/artifacts/staking.sol\":1899:1906  _amount */\n      dup1\n        /* \"AVAX/artifacts/staking.sol\":1870:1876  stakes */\n      0x04\n        /* \"AVAX/artifacts/staking.sol\":1870:1888  stakes[msg.sender] */\n      0x00\n        /* \"AVAX/artifacts/staking.sol\":1877:1887  msg.sender */\n      caller\n        /* \"AVAX/artifacts/staking.sol\":1870:1888  stakes[msg.sender] */\n      0xffffffffffffffffffffffffffffffffffffffff\n      and\n      0xffffffffffffffffffffffffffffffffffffffff\n      and\n      dup2\n      mstore\n      0x20\n      add\n      swap1\n      dup2\n      mstore\n      0x20\n      add\n      0x00\n      keccak256\n        /* \"AVAX/artifacts/staking.sol\":1870:1895  stakes[msg.sender].amount */\n      0x00\n      add\n      sload\n        /* \"AVAX/artifacts/staking.sol\":1870:1906  stakes[msg.sender].amount >= _amount */\n      lt\n      iszero\n        /* \"AVAX/artifacts/staking.sol\":1862:1928  require(stakes[msg.sender].amount >= _amount, \"Not enough staked\") */\n      tag_77\n      jumpi\n      mload(0x40)\n      0x08c379a000000000000000000000000000000000000000000000000000000000\n      dup2\n      mstore\n      0x04\n      add\n      tag_78\n      swap1\n      tag_79\n      jump\t// in\n    tag_78:\n      mload(0x40)\n      dup1\n      swap2\n      sub\n      swap1\n      revert\n    tag_77:\n        /* \"AVAX/artifacts/staking.sol\":1996:2014  minStakingDuration */\n      sload(0x03)\n        /* \"AVAX/artifacts/staking.sol\":1966:1972  stakes */\n      0x04\n        /* \"AVAX/artifacts/staking.sol\":1966:1984  stakes[msg.sender] */\n      0x00\n        /* \"AVAX/artifacts/staking.sol\":1973:1983  msg.sender */\n      caller\n        /* \"AVAX/artifacts/staking.sol\":1966:1984  stakes[msg.sender] */\n      0xffffffffffffffffffffffffffffffffffffffff\n      and\n      0xffffffffffffffffffffffffffffffffffffffff\n      and\n      dup2\n      mstore\n      0x20\n      add\n      swap1\n      dup2\n      mstore\n      0x20\n      add\n      0x00\n      keccak256\n        /* \"AVAX/artifacts/staking.sol\":1966:1993  stakes[msg.sender].stakedAt */\n      0x01\n      add\n      sload\n        /* \"AVAX/artifacts/staking.sol\":1966:2014  stakes[msg.sender].stakedAt + minStakingDuration */\n      tag_80\n      swap2\n      swap1\n      tag_81\n      jump\t// in\n    tag_80:\n        /* \"AVAX/artifacts/staking.sol\":1947:1962  block.timestamp */\n      timestamp\n        /* \"AVAX/artifacts/staking.sol\":1947:2014  block.timestamp >= stakes[msg.sender].stakedAt + minStakingDuration */\n      lt\n      iszero\n        /* \"AVAX/artifacts/staking.sol\":1939:2048  require(block.timestamp >= stakes[msg.sender].stakedAt + minStakingDuration, \"Staking period not yet passed\") */\n      tag_82\n      jumpi\n      mload(0x40)\n      0x08c379a000000000000000000000000000000000000000000000000000000000\n      dup2\n      mstore\n      0x04\n      add\n      tag_83\n      swap1\n      tag_84\n      jump\t// in\n    tag_83:\n      mload(0x40)\n      dup1\n      swap2\n      sub\n      swap1\n      revert\n    tag_82:\n        /* \"AVAX/artifacts/staking.sol\":2061:2075  uint256 reward */\n      0x00\n        /* \"AVAX/artifacts/staking.sol\":2078:2105  calculateReward(msg.sender) */\n      tag_85\n        /* \"AVAX/artifacts/staking.sol\":2094:2104  msg.sender */\n      caller\n        /* \"AVAX/artifacts/staking.sol\":2078:2093  calculateReward */\n      tag_68\n        /* \"AVAX/artifacts/staking.sol\":2078:2105  calculateReward(msg.sender) */\n      jump\t// in\n    tag_85:\n        /* \"AVAX/artifacts/staking.sol\":2061:2105  uint256 reward = calculateReward(msg.sender) */\n      swap1\n      pop\n        /* \"AVAX/artifacts/staking.sol\":2147:2154  _amount */\n      dup2\n        /* \"AVAX/artifacts/staking.sol\":2118:2124  stakes */\n      0x04\n        /* \"AVAX/artifacts/staking.sol\":2118:2136  stakes[msg.sender] */\n      0x00\n        /* \"AVAX/artifacts/staking.sol\":2125:2135  msg.sender */\n      caller\n        /* \"AVAX/artifacts/staking.sol\":2118:2136  stakes[msg.sender] */\n      0xffffffffffffffffffffffffffffffffffffffff\n      and\n      0xffffffffffffffffffffffffffffffffffffffff\n      and\n      dup2\n      mstore\n      0x20\n      add\n      swap1\n      dup2\n      mstore\n      0x20\n      add\n      0x00\n      keccak256\n        /* \"AVAX/artifacts/staking.sol\":2118:2143  stakes[msg.sender].amount */\n      0x00\n      add\n      0x00\n        /* \"AVAX/artifacts/staking.sol\":2118:2154  stakes[msg.sender].amount -= _amount */\n      dup3\n      dup3\n      sload\n      tag_86\n      swap2\n      swap1\n      tag_87\n      jump\t// in\n    tag_86:\n      swap3\n      pop\n      pop\n      dup2\n      swap1\n      sstore\n      pop\n        /* \"AVAX/artifacts/staking.sol\":2198:2213  block.timestamp */\n      timestamp\n        /* \"AVAX/artifacts/staking.sol\":2165:2171  stakes */\n      0x04\n        /* \"AVAX/artifacts/staking.sol\":2165:2183  stakes[msg.sender] */\n      0x00\n        /* \"AVAX/artifacts/staking.sol\":2172:2182  msg.sender */\n      caller\n        /* \"AVAX/artifacts/staking.sol\":2165:2183  stakes[msg.sender] */\n      0xffffffffffffffffffffffffffffffffffffffff\n      and\n      0xffffffffffffffffffffffffffffffffffffffff\n      and\n      dup2\n      mstore\n      0x20\n      add\n      swap1\n      dup2\n      mstore\n      0x20\n      add\n      0x00\n      keccak256\n        /* \"AVAX/artifacts/staking.sol\":2165:2195  stakes[msg.sender].lastClaimed */\n      0x02\n      add\n        /* \"AVAX/artifacts/staking.sol\":2165:2213  stakes[msg.sender].lastClaimed = block.timestamp */\n      dup2\n      swap1\n      sstore\n      pop\n        /* \"AVAX/artifacts/staking.sol\":2234:2246  stakingToken */\n      0x01\n      0x00\n      swap1\n      sload\n      swap1\n      0x0100\n      exp\n      swap1\n      div\n      0xffffffffffffffffffffffffffffffffffffffff\n      and\n        /* \"AVAX/artifacts/staking.sol\":2234:2255  stakingToken.transfer */\n      0xffffffffffffffffffffffffffffffffffffffff\n      and\n      0xa9059cbb\n        /* \"AVAX/artifacts/staking.sol\":2256:2266  msg.sender */\n      caller\n        /* \"AVAX/artifacts/staking.sol\":2278:2284  reward */\n      dup4\n        /* \"AVAX/artifacts/staking.sol\":2268:2275  _amount */\n      dup6\n        /* \"AVAX/artifacts/staking.sol\":2268:2284  _amount + reward */\n      tag_88\n      swap2\n      swap1\n      tag_81\n      jump\t// in\n    tag_88:\n        /* \"AVAX/artifacts/staking.sol\":2234:2285  stakingToken.transfer(msg.sender, _amount + reward) */\n      mload(0x40)\n      dup4\n      0xffffffff\n      and\n      0xe0\n      shl\n      dup2\n      mstore\n      0x04\n      add\n      tag_89\n      swap3\n      swap2\n      swap1\n      tag_90\n      jump\t// in\n    tag_89:\n      0x20\n      mload(0x40)\n      dup1\n      dup4\n      sub\n      dup2\n      0x00\n      dup8\n      gas\n      call\n      iszero\n      dup1\n      iszero\n      tag_92\n      jumpi\n      returndatacopy(0x00, 0x00, returndatasize)\n      revert(0x00, returndatasize)\n    tag_92:\n      pop\n      pop\n      pop\n      pop\n      mload(0x40)\n      returndatasize\n      not(0x1f)\n      0x1f\n      dup3\n      add\n      and\n      dup3\n      add\n      dup1\n      0x40\n      mstore\n      pop\n      dup2\n      add\n      swap1\n      tag_93\n      swap2\n      swap1\n      tag_94\n      jump\t// in\n    tag_93:\n        /* \"AVAX/artifacts/staking.sol\":2226:2305  require(stakingToken.transfer(msg.sender, _amount + reward), \"Transfer failed\") */\n      tag_95\n      jumpi\n      mload(0x40)\n      0x08c379a000000000000000000000000000000000000000000000000000000000\n      dup2\n      mstore\n      0x04\n      add\n      tag_96\n      swap1\n      tag_97\n      jump\t// in\n    tag_96:\n      mload(0x40)\n      dup1\n      swap2\n      sub\n      swap1\n      revert\n    tag_95:\n        /* \"AVAX/artifacts/staking.sol\":2332:2342  msg.sender */\n      caller\n        /* \"AVAX/artifacts/staking.sol\":2323:2377  Unstaked(msg.sender, _amount, reward, block.timestamp) */\n      0xffffffffffffffffffffffffffffffffffffffff\n      and\n      0x204fccf0d92ed8d48f204adb39b2e81e92bad0dedb93f5716ca9478cfb57de00\n        /* \"AVAX/artifacts/staking.sol\":2344:2351  _amount */\n      dup4\n        /* \"AVAX/artifacts/staking.sol\":2353:2359  reward */\n      dup4\n        /* \"AVAX/artifacts/staking.sol\":2361:2376  block.timestamp */\n      timestamp\n        /* \"AVAX/artifacts/staking.sol\":2323:2377  Unstaked(msg.sender, _amount, reward, block.timestamp) */\n      mload(0x40)\n      tag_98\n      swap4\n      swap3\n      swap2\n      swap1\n      tag_30\n      jump\t// in\n    tag_98:\n      mload(0x40)\n      dup1\n      swap2\n      sub\n      swap1\n      log2\n        /* \"AVAX/artifacts/staking.sol\":1797:2385  {... */\n      pop\n        /* \"AVAX/artifacts/staking.sol\":1754:2385  function unstake(uint256 _amount) external {... */\n      pop\n      jump\t// out\n        /* \"AVAX/artifacts/staking.sol\":449:499  uint256 public constant SECONDS_IN_YEAR = 365 days */\n    tag_36:\n        /* \"AVAX/artifacts/staking.sol\":491:499  365 days */\n      0x01e13380\n        /* \"AVAX/artifacts/staking.sol\":449:499  uint256 public constant SECONDS_IN_YEAR = 365 days */\n      dup2\n      jump\t// out\n        /* \"AVAX/artifacts/staking.sol\":3215:3329  function stakedBalance(address user) external view returns (uint256) {... */\n    tag_40:\n        /* \"AVAX/artifacts/staking.sol\":3275:3282  uint256 */\n      0x00\n        /* \"AVAX/artifacts/staking.sol\":3302:3308  stakes */\n      0x04\n        /* \"AVAX/artifacts/staking.sol\":3302:3314  stakes[user] */\n      0x00\n        /* \"AVAX/artifacts/staking.sol\":3309:3313  user */\n      dup4\n        /* \"AVAX/artifacts/staking.sol\":3302:3314  stakes[user] */\n      0xffffffffffffffffffffffffffffffffffffffff\n      and\n      0xffffffffffffffffffffffffffffffffffffffff\n      and\n      dup2\n      mstore\n      0x20\n      add\n      swap1\n      dup2\n      mstore\n      0x20\n      add\n      0x00\n      keccak256\n        /* \"AVAX/artifacts/staking.sol\":3302:3321  stakes[user].amount */\n      0x00\n      add\n      sload\n        /* \"AVAX/artifacts/staking.sol\":3295:3321  return stakes[user].amount */\n      swap1\n      pop\n        /* \"AVAX/artifacts/staking.sol\":3215:3329  function stakedBalance(address user) external view returns (uint256) {... */\n      swap2\n      swap1\n      pop\n      jump\t// out\n        /* \"https://raw.githubusercontent.com/OpenZeppelin/openzeppelin-contracts/v4.9.0/contracts/access/Ownable.sol\":1824:1925  function renounceOwnership() public virtual onlyOwner {... */\n    tag_43:\n        /* \"https://raw.githubusercontent.com/OpenZeppelin/openzeppelin-contracts/v4.9.0/contracts/access/Ownable.sol\":1094:1107  _checkOwner() */\n      tag_101\n        /* \"https://raw.githubusercontent.com/OpenZeppelin/openzeppelin-contracts/v4.9.0/contracts/access/Ownable.sol\":1094:1105  _checkOwner */\n      tag_102\n        /* \"https://raw.githubusercontent.com/OpenZeppelin/openzeppelin-contracts/v4.9.0/contracts/access/Ownable.sol\":1094:1107  _checkOwner() */\n      jump\t// in\n    tag_101:\n        /* \"https://raw.githubusercontent.com/OpenZeppelin/openzeppelin-contracts/v4.9.0/contracts/access/Ownable.sol\":1888:1918  _transferOwnership(address(0)) */\n      tag_104\n        /* \"https://raw.githubusercontent.com/OpenZeppelin/openzeppelin-contracts/v4.9.0/contracts/access/Ownable.sol\":1915:1916  0 */\n      0x00\n        /* \"https://raw.githubusercontent.com/OpenZeppelin/openzeppelin-contracts/v4.9.0/contracts/access/Ownable.sol\":1888:1906  _transferOwnership */\n      tag_105\n        /* \"https://raw.githubusercontent.com/OpenZeppelin/openzeppelin-contracts/v4.9.0/contracts/access/Ownable.sol\":1888:1918  _transferOwnership(address(0)) */\n      jump\t// in\n    tag_104:\n        /* \"https://raw.githubusercontent.com/OpenZeppelin/openzeppelin-contracts/v4.9.0/contracts/access/Ownable.sol\":1824:1925  function renounceOwnership() public virtual onlyOwner {... */\n      jump\t// out\n        /* \"AVAX/artifacts/staking.sol\":343:369  IERC20 public stakingToken */\n    tag_45:\n      0x01\n      0x00\n      swap1\n      sload\n      swap1\n      0x0100\n      exp\n      swap1\n      div\n      0xffffffffffffffffffffffffffffffffffffffff\n      and\n      dup2\n      jump\t// out\n        /* \"AVAX/artifacts/staking.sol\":378:409  uint256 public rewardRate = 100 */\n    tag_49:\n      sload(0x02)\n      dup2\n      jump\t// out\n        /* \"AVAX/artifacts/staking.sol\":3500:3618  function setMinStakingDuration(uint256 _duration) external onlyOwner {... */\n    tag_53:\n        /* \"https://raw.githubusercontent.com/OpenZeppelin/openzeppelin-contracts/v4.9.0/contracts/access/Ownable.sol\":1094:1107  _checkOwner() */\n      tag_107\n        /* \"https://raw.githubusercontent.com/OpenZeppelin/openzeppelin-contracts/v4.9.0/contracts/access/Ownable.sol\":1094:1105  _checkOwner */\n      tag_102\n        /* \"https://raw.githubusercontent.com/OpenZeppelin/openzeppelin-contracts/v4.9.0/contracts/access/Ownable.sol\":1094:1107  _checkOwner() */\n      jump\t// in\n    tag_107:\n        /* \"AVAX/artifacts/staking.sol\":3601:3610  _duration */\n      dup1\n        /* \"AVAX/artifacts/staking.sol\":3580:3598  minStakingDuration */\n      0x03\n        /* \"AVAX/artifacts/staking.sol\":3580:3610  minStakingDuration = _duration */\n      dup2\n      swap1\n      sstore\n      pop\n        /* \"AVAX/artifacts/staking.sol\":3500:3618  function setMinStakingDuration(uint256 _duration) external onlyOwner {... */\n      pop\n      jump\t// out\n        /* \"https://raw.githubusercontent.com/OpenZeppelin/openzeppelin-contracts/v4.9.0/contracts/access/Ownable.sol\":1201:1286  function owner() public view virtual returns (address) {... */\n    tag_55:\n        /* \"https://raw.githubusercontent.com/OpenZeppelin/openzeppelin-contracts/v4.9.0/contracts/access/Ownable.sol\":1247:1254  address */\n      0x00\n        /* \"https://raw.githubusercontent.com/OpenZeppelin/openzeppelin-contracts/v4.9.0/contracts/access/Ownable.sol\":1273:1279  _owner */\n      0x00\n      0x00\n      swap1\n      sload\n      swap1\n      0x0100\n      exp\n      swap1\n      div\n      0xffffffffffffffffffffffffffffffffffffffff\n      and\n        /* \"https://raw.githubusercontent.com/OpenZeppelin/openzeppelin-contracts/v4.9.0/contracts/access/Ownable.sol\":1266:1279  return _owner */\n      swap1\n      pop\n        /* \"https://raw.githubusercontent.com/OpenZeppelin/openzeppelin-contracts/v4.9.0/contracts/access/Ownable.sol\":1201:1286  function owner() public view virtual returns (address) {... */\n      swap1\n      jump\t// out\n        /* \"AVAX/artifacts/staking.sol\":3398:3492  function setRewardRate(uint256 _rate) external onlyOwner {... */\n    tag_60:\n        /* \"https://raw.githubusercontent.com/OpenZeppelin/openzeppelin-contracts/v4.9.0/contracts/access/Ownable.sol\":1094:1107  _checkOwner() */\n      tag_111\n        /* \"https://raw.githubusercontent.com/OpenZeppelin/openzeppelin-contracts/v4.9.0/contracts/access/Ownable.sol\":1094:1105  _checkOwner */\n      tag_102\n        /* \"https://raw.githubusercontent.com/OpenZeppelin/openzeppelin-contracts/v4.9.0/contracts/access/Ownable.sol\":1094:1107  _checkOwner() */\n      jump\t// in\n    tag_111:\n        /* \"AVAX/artifacts/staking.sol\":3479:3484  _rate */\n      dup1\n        /* \"AVAX/artifacts/staking.sol\":3466:3476  rewardRate */\n      0x02\n        /* \"AVAX/artifacts/staking.sol\":3466:3484  rewardRate = _rate */\n      dup2\n      swap1\n      sstore\n      pop\n        /* \"AVAX/artifacts/staking.sol\":3398:3492  function setRewardRate(uint256 _rate) external onlyOwner {... */\n      pop\n      jump\t// out\n        /* \"AVAX/artifacts/staking.sol\":1077:1746  function stake(uint256 _amount) external {... */\n    tag_63:\n        /* \"AVAX/artifacts/staking.sol\":1147:1148  0 */\n      0x00\n        /* \"AVAX/artifacts/staking.sol\":1137:1144  _amount */\n      dup2\n        /* \"AVAX/artifacts/staking.sol\":1137:1148  _amount > 0 */\n      gt\n        /* \"AVAX/artifacts/staking.sol\":1129:1170  require(_amount > 0, \"Cannot stake zero\") */\n      tag_114\n      jumpi\n      mload(0x40)\n      0x08c379a000000000000000000000000000000000000000000000000000000000\n      dup2\n      mstore\n      0x04\n      add\n      tag_115\n      swap1\n      tag_116\n      jump\t// in\n    tag_115:\n      mload(0x40)\n      dup1\n      swap2\n      sub\n      swap1\n      revert\n    tag_114:\n        /* \"AVAX/artifacts/staking.sol\":1191:1203  stakingToken */\n      0x01\n      0x00\n      swap1\n      sload\n      swap1\n      0x0100\n      exp\n      swap1\n      div\n      0xffffffffffffffffffffffffffffffffffffffff\n      and\n        /* \"AVAX/artifacts/staking.sol\":1191:1216  stakingToken.transferFrom */\n      0xffffffffffffffffffffffffffffffffffffffff\n      and\n      0x23b872dd\n        /* \"AVAX/artifacts/staking.sol\":1217:1227  msg.sender */\n      caller\n        /* \"AVAX/artifacts/staking.sol\":1237:1241  this */\n      address\n        /* \"AVAX/artifacts/staking.sol\":1244:1251  _amount */\n      dup5\n        /* \"AVAX/artifacts/staking.sol\":1191:1252  stakingToken.transferFrom(msg.sender, address(this), _amount) */\n      mload(0x40)\n      dup5\n      0xffffffff\n      and\n      0xe0\n      shl\n      dup2\n      mstore\n      0x04\n      add\n      tag_117\n      swap4\n      swap3\n      swap2\n      swap1\n      tag_118\n      jump\t// in\n    tag_117:\n      0x20\n      mload(0x40)\n      dup1\n      dup4\n      sub\n      dup2\n      0x00\n      dup8\n      gas\n      call\n      iszero\n      dup1\n      iszero\n      tag_120\n      jumpi\n      returndatacopy(0x00, 0x00, returndatasize)\n      revert(0x00, returndatasize)\n    tag_120:\n      pop\n      pop\n      pop\n      pop\n      mload(0x40)\n      returndatasize\n      not(0x1f)\n      0x1f\n      dup3\n      add\n      and\n      dup3\n      add\n      dup1\n      0x40\n      mstore\n      pop\n      dup2\n      add\n      swap1\n      tag_121\n      swap2\n      swap1\n      tag_94\n      jump\t// in\n    tag_121:\n        /* \"AVAX/artifacts/staking.sol\":1183:1272  require(stakingToken.transferFrom(msg.sender, address(this), _amount), \"Transfer failed\") */\n      tag_122\n      jumpi\n      mload(0x40)\n      0x08c379a000000000000000000000000000000000000000000000000000000000\n      dup2\n      mstore\n      0x04\n      add\n      tag_123\n      swap1\n      tag_97\n      jump\t// in\n    tag_123:\n      mload(0x40)\n      dup1\n      swap2\n      sub\n      swap1\n      revert\n    tag_122:\n        /* \"AVAX/artifacts/staking.sol\":1387:1388  0 */\n      0x00\n        /* \"AVAX/artifacts/staking.sol\":1359:1365  stakes */\n      0x04\n        /* \"AVAX/artifacts/staking.sol\":1359:1377  stakes[msg.sender] */\n      0x00\n        /* \"AVAX/artifacts/staking.sol\":1366:1376  msg.sender */\n      caller\n        /* \"AVAX/artifacts/staking.sol\":1359:1377  stakes[msg.sender] */\n      0xffffffffffffffffffffffffffffffffffffffff\n      and\n      0xffffffffffffffffffffffffffffffffffffffff\n      and\n      dup2\n      mstore\n      0x20\n      add\n      swap1\n      dup2\n      mstore\n      0x20\n      add\n      0x00\n      keccak256\n        /* \"AVAX/artifacts/staking.sol\":1359:1384  stakes[msg.sender].amount */\n      0x00\n      add\n      sload\n        /* \"AVAX/artifacts/staking.sol\":1359:1388  stakes[msg.sender].amount > 0 */\n      gt\n        /* \"AVAX/artifacts/staking.sol\":1355:1513  if (stakes[msg.sender].amount > 0) {... */\n      iszero\n      tag_124\n      jumpi\n        /* \"AVAX/artifacts/staking.sol\":1405:1420  uint256 pending */\n      0x00\n        /* \"AVAX/artifacts/staking.sol\":1423:1450  calculateReward(msg.sender) */\n      tag_125\n        /* \"AVAX/artifacts/staking.sol\":1439:1449  msg.sender */\n      caller\n        /* \"AVAX/artifacts/staking.sol\":1423:1438  calculateReward */\n      tag_68\n        /* \"AVAX/artifacts/staking.sol\":1423:1450  calculateReward(msg.sender) */\n      jump\t// in\n    tag_125:\n        /* \"AVAX/artifacts/staking.sol\":1405:1450  uint256 pending = calculateReward(msg.sender) */\n      swap1\n      pop\n        /* \"AVAX/artifacts/staking.sol\":1494:1501  pending */\n      dup1\n        /* \"AVAX/artifacts/staking.sol\":1465:1471  stakes */\n      0x04\n        /* \"AVAX/artifacts/staking.sol\":1465:1483  stakes[msg.sender] */\n      0x00\n        /* \"AVAX/artifacts/staking.sol\":1472:1482  msg.sender */\n      caller\n        /* \"AVAX/artifacts/staking.sol\":1465:1483  stakes[msg.sender] */\n      0xffffffffffffffffffffffffffffffffffffffff\n      and\n      0xffffffffffffffffffffffffffffffffffffffff\n      and\n      dup2\n      mstore\n      0x20\n      add\n      swap1\n      dup2\n      mstore\n      0x20\n      add\n      0x00\n      keccak256\n        /* \"AVAX/artifacts/staking.sol\":1465:1490  stakes[msg.sender].amount */\n      0x00\n      add\n      0x00\n        /* \"AVAX/artifacts/staking.sol\":1465:1501  stakes[msg.sender].amount += pending */\n      dup3\n      dup3\n      sload\n      tag_126\n      swap2\n      swap1\n      tag_81\n      jump\t// in\n    tag_126:\n      swap3\n      pop\n      pop\n      dup2\n      swap1\n      sstore\n      pop\n        /* \"AVAX/artifacts/staking.sol\":1390:1513  {... */\n      pop\n        /* \"AVAX/artifacts/staking.sol\":1355:1513  if (stakes[msg.sender].amount > 0) {... */\n    tag_124:\n        /* \"AVAX/artifacts/staking.sol\":1554:1561  _amount */\n      dup1\n        /* \"AVAX/artifacts/staking.sol\":1525:1531  stakes */\n      0x04\n        /* \"AVAX/artifacts/staking.sol\":1525:1543  stakes[msg.sender] */\n      0x00\n        /* \"AVAX/artifacts/staking.sol\":1532:1542  msg.sender */\n      caller\n        /* \"AVAX/artifacts/staking.sol\":1525:1543  stakes[msg.sender] */\n      0xffffffffffffffffffffffffffffffffffffffff\n      and\n      0xffffffffffffffffffffffffffffffffffffffff\n      and\n      dup2\n      mstore\n      0x20\n      add\n      swap1\n      dup2\n      mstore\n      0x20\n      add\n      0x00\n      keccak256\n        /* \"AVAX/artifacts/staking.sol\":1525:1550  stakes[msg.sender].amount */\n      0x00\n      add\n      0x00\n        /* \"AVAX/artifacts/staking.sol\":1525:1561  stakes[msg.sender].amount += _amount */\n      dup3\n      dup3\n      sload\n      tag_127\n      swap2\n      swap1\n      tag_81\n      jump\t// in\n    tag_127:\n      swap3\n      pop\n      pop\n      dup2\n      swap1\n      sstore\n      pop\n        /* \"AVAX/artifacts/staking.sol\":1602:1617  block.timestamp */\n      timestamp\n        /* \"AVAX/artifacts/staking.sol\":1572:1578  stakes */\n      0x04\n        /* \"AVAX/artifacts/staking.sol\":1572:1590  stakes[msg.sender] */\n      0x00\n        /* \"AVAX/artifacts/staking.sol\":1579:1589  msg.sender */\n      caller\n        /* \"AVAX/artifacts/staking.sol\":1572:1590  stakes[msg.sender] */\n      0xffffffffffffffffffffffffffffffffffffffff\n      and\n      0xffffffffffffffffffffffffffffffffffffffff\n      and\n      dup2\n      mstore\n      0x20\n      add\n      swap1\n      dup2\n      mstore\n      0x20\n      add\n      0x00\n      keccak256\n        /* \"AVAX/artifacts/staking.sol\":1572:1599  stakes[msg.sender].stakedAt */\n      0x01\n      add\n        /* \"AVAX/artifacts/staking.sol\":1572:1617  stakes[msg.sender].stakedAt = block.timestamp */\n      dup2\n      swap1\n      sstore\n      pop\n        /* \"AVAX/artifacts/staking.sol\":1661:1676  block.timestamp */\n      timestamp\n        /* \"AVAX/artifacts/staking.sol\":1628:1634  stakes */\n      0x04\n        /* \"AVAX/artifacts/staking.sol\":1628:1646  stakes[msg.sender] */\n      0x00\n        /* \"AVAX/artifacts/staking.sol\":1635:1645  msg.sender */\n      caller\n        /* \"AVAX/artifacts/staking.sol\":1628:1646  stakes[msg.sender] */\n      0xffffffffffffffffffffffffffffffffffffffff\n      and\n      0xffffffffffffffffffffffffffffffffffffffff\n      and\n      dup2\n      mstore\n      0x20\n      add\n      swap1\n      dup2\n      mstore\n      0x20\n      add\n      0x00\n      keccak256\n        /* \"AVAX/artifacts/staking.sol\":1628:1658  stakes[msg.sender].lastClaimed */\n      0x02\n      add\n        /* \"AVAX/artifacts/staking.sol\":1628:1676  stakes[msg.sender].lastClaimed = block.timestamp */\n      dup2\n      swap1\n      sstore\n      pop\n        /* \"AVAX/artifacts/staking.sol\":1701:1711  msg.sender */\n      caller\n        /* \"AVAX/artifacts/staking.sol\":1694:1738  Staked(msg.sender, _amount, block.timestamp) */\n      0xffffffffffffffffffffffffffffffffffffffff\n      and\n      0x1449c6dd7851abc30abf37f57715f492010519147cc2652fbc38202c18a6ee90\n        /* \"AVAX/artifacts/staking.sol\":1713:1720  _amount */\n      dup3\n        /* \"AVAX/artifacts/staking.sol\":1722:1737  block.timestamp */\n      timestamp\n        /* \"AVAX/artifacts/staking.sol\":1694:1738  Staked(msg.sender, _amount, block.timestamp) */\n      mload(0x40)\n      tag_128\n      swap3\n      swap2\n      swap1\n      tag_129\n      jump\t// in\n    tag_128:\n      mload(0x40)\n      dup1\n      swap2\n      sub\n      swap1\n      log2\n        /* \"AVAX/artifacts/staking.sol\":1077:1746  function stake(uint256 _amount) external {... */\n      pop\n      jump\t// out\n        /* \"AVAX/artifacts/staking.sol\":2393:2822  function claimReward() external {... */\n    tag_65:\n        /* \"AVAX/artifacts/staking.sol\":2472:2473  0 */\n      0x00\n        /* \"AVAX/artifacts/staking.sol\":2444:2450  stakes */\n      0x04\n        /* \"AVAX/artifacts/staking.sol\":2444:2462  stakes[msg.sender] */\n      0x00\n        /* \"AVAX/artifacts/staking.sol\":2451:2461  msg.sender */\n      caller\n        /* \"AVAX/artifacts/staking.sol\":2444:2462  stakes[msg.sender] */\n      0xffffffffffffffffffffffffffffffffffffffff\n      and\n      0xffffffffffffffffffffffffffffffffffffffff\n      and\n      dup2\n      mstore\n      0x20\n      add\n      swap1\n      dup2\n      mstore\n      0x20\n      add\n      0x00\n      keccak256\n        /* \"AVAX/artifacts/staking.sol\":2444:2469  stakes[msg.sender].amount */\n      0x00\n      add\n      sload\n        /* \"AVAX/artifacts/staking.sol\":2444:2473  stakes[msg.sender].amount > 0 */\n      gt\n        /* \"AVAX/artifacts/staking.sol\":2436:2492  require(stakes[msg.sender].amount > 0, \"No stake found\") */\n      tag_131\n      jumpi\n      mload(0x40)\n      0x08c379a000000000000000000000000000000000000000000000000000000000\n      dup2\n      mstore\n      0x04\n      add\n      tag_132\n      swap1\n      tag_133\n      jump\t// in\n    tag_132:\n      mload(0x40)\n      dup1\n      swap2\n      sub\n      swap1\n      revert\n    tag_131:\n        /* \"AVAX/artifacts/staking.sol\":2505:2519  uint256 reward */\n      0x00\n        /* \"AVAX/artifacts/staking.sol\":2522:2549  calculateReward(msg.sender) */\n      tag_134\n        /* \"AVAX/artifacts/staking.sol\":2538:2548  msg.sender */\n      caller\n        /* \"AVAX/artifacts/staking.sol\":2522:2537  calculateReward */\n      tag_68\n        /* \"AVAX/artifacts/staking.sol\":2522:2549  calculateReward(msg.sender) */\n      jump\t// in\n    tag_134:\n        /* \"AVAX/artifacts/staking.sol\":2505:2549  uint256 reward = calculateReward(msg.sender) */\n      swap1\n      pop\n        /* \"AVAX/artifacts/staking.sol\":2577:2578  0 */\n      0x00\n        /* \"AVAX/artifacts/staking.sol\":2568:2574  reward */\n      dup2\n        /* \"AVAX/artifacts/staking.sol\":2568:2578  reward > 0 */\n      gt\n        /* \"AVAX/artifacts/staking.sol\":2560:2596  require(reward > 0, \"No reward yet\") */\n      tag_135\n      jumpi\n      mload(0x40)\n      0x08c379a000000000000000000000000000000000000000000000000000000000\n      dup2\n      mstore\n      0x04\n      add\n      tag_136\n      swap1\n      tag_137\n      jump\t// in\n    tag_136:\n      mload(0x40)\n      dup1\n      swap2\n      sub\n      swap1\n      revert\n    tag_135:\n        /* \"AVAX/artifacts/staking.sol\":2642:2657  block.timestamp */\n      timestamp\n        /* \"AVAX/artifacts/staking.sol\":2609:2615  stakes */\n      0x04\n        /* \"AVAX/artifacts/staking.sol\":2609:2627  stakes[msg.sender] */\n      0x00\n        /* \"AVAX/artifacts/staking.sol\":2616:2626  msg.sender */\n      caller\n        /* \"AVAX/artifacts/staking.sol\":2609:2627  stakes[msg.sender] */\n      0xffffffffffffffffffffffffffffffffffffffff\n      and\n      0xffffffffffffffffffffffffffffffffffffffff\n      and\n      dup2\n      mstore\n      0x20\n      add\n      swap1\n      dup2\n      mstore\n      0x20\n      add\n      0x00\n      keccak256\n        /* \"AVAX/artifacts/staking.sol\":2609:2639  stakes[msg.sender].lastClaimed */\n      0x02\n      add\n        /* \"AVAX/artifacts/staking.sol\":2609:2657  stakes[msg.sender].lastClaimed = block.timestamp */\n      dup2\n      swap1\n      sstore\n      pop\n        /* \"AVAX/artifacts/staking.sol\":2678:2690  stakingToken */\n      0x01\n      0x00\n      swap1\n      sload\n      swap1\n      0x0100\n      exp\n      swap1\n      div\n      0xffffffffffffffffffffffffffffffffffffffff\n      and\n        /* \"AVAX/artifacts/staking.sol\":2678:2699  stakingToken.transfer */\n      0xffffffffffffffffffffffffffffffffffffffff\n      and\n      0xa9059cbb\n        /* \"AVAX/artifacts/staking.sol\":2700:2710  msg.sender */\n      caller\n        /* \"AVAX/artifacts/staking.sol\":2712:2718  reward */\n      dup4\n        /* \"AVAX/artifacts/staking.sol\":2678:2719  stakingToken.transfer(msg.sender, reward) */\n      mload(0x40)\n      dup4\n      0xffffffff\n      and\n      0xe0\n      shl\n      dup2\n      mstore\n      0x04\n      add\n      tag_138\n      swap3\n      swap2\n      swap1\n      tag_90\n      jump\t// in\n    tag_138:\n      0x20\n      mload(0x40)\n      dup1\n      dup4\n      sub\n      dup2\n      0x00\n      dup8\n      gas\n      call\n      iszero\n      dup1\n      iszero\n      tag_140\n      jumpi\n      returndatacopy(0x00, 0x00, returndatasize)\n      revert(0x00, returndatasize)\n    tag_140:\n      pop\n      pop\n      pop\n      pop\n      mload(0x40)\n      returndatasize\n      not(0x1f)\n      0x1f\n      dup3\n      add\n      and\n      dup3\n      add\n      dup1\n      0x40\n      mstore\n      pop\n      dup2\n      add\n      swap1\n      tag_141\n      swap2\n      swap1\n      tag_94\n      jump\t// in\n    tag_141:\n        /* \"AVAX/artifacts/staking.sol\":2670:2746  require(stakingToken.transfer(msg.sender, reward), \"Reward transfer failed\") */\n      tag_142\n      jumpi\n      mload(0x40)\n      0x08c379a000000000000000000000000000000000000000000000000000000000\n      dup2\n      mstore\n      0x04\n      add\n      tag_143\n      swap1\n      tag_144\n      jump\t// in\n    tag_143:\n      mload(0x40)\n      dup1\n      swap2\n      sub\n      swap1\n      revert\n    tag_142:\n        /* \"AVAX/artifacts/staking.sol\":2778:2788  msg.sender */\n      caller\n        /* \"AVAX/artifacts/staking.sol\":2764:2814  RewardClaimed(msg.sender, reward, block.timestamp) */\n      0xffffffffffffffffffffffffffffffffffffffff\n      and\n      0xf01da32686223933d8a18a391060918c7f11a3648639edd87ae013e2e2731743\n        /* \"AVAX/artifacts/staking.sol\":2790:2796  reward */\n      dup3\n        /* \"AVAX/artifacts/staking.sol\":2798:2813  block.timestamp */\n      timestamp\n        /* \"AVAX/artifacts/staking.sol\":2764:2814  RewardClaimed(msg.sender, reward, block.timestamp) */\n      mload(0x40)\n      tag_145\n      swap3\n      swap2\n      swap1\n      tag_129\n      jump\t// in\n    tag_145:\n      mload(0x40)\n      dup1\n      swap2\n      sub\n      swap1\n      log2\n        /* \"AVAX/artifacts/staking.sol\":2425:2822  {... */\n      pop\n        /* \"AVAX/artifacts/staking.sol\":2393:2822  function claimReward() external {... */\n      jump\t// out\n        /* \"AVAX/artifacts/staking.sol\":2830:3207  function calculateReward(address user) public view returns (uint256) {... */\n    tag_68:\n        /* \"AVAX/artifacts/staking.sol\":2890:2897  uint256 */\n      0x00\n        /* \"AVAX/artifacts/staking.sol\":2910:2931  StakeInfo memory info */\n      0x00\n        /* \"AVAX/artifacts/staking.sol\":2934:2940  stakes */\n      0x04\n        /* \"AVAX/artifacts/staking.sol\":2934:2946  stakes[user] */\n      0x00\n        /* \"AVAX/artifacts/staking.sol\":2941:2945  user */\n      dup5\n        /* \"AVAX/artifacts/staking.sol\":2934:2946  stakes[user] */\n      0xffffffffffffffffffffffffffffffffffffffff\n      and\n      0xffffffffffffffffffffffffffffffffffffffff\n      and\n      dup2\n      mstore\n      0x20\n      add\n      swap1\n      dup2\n      mstore\n      0x20\n      add\n      0x00\n      keccak256\n        /* \"AVAX/artifacts/staking.sol\":2910:2946  StakeInfo memory info = stakes[user] */\n      mload(0x40)\n      dup1\n      0x60\n      add\n      0x40\n      mstore\n      swap1\n      dup2\n      0x00\n      dup3\n      add\n      sload\n      dup2\n      mstore\n      0x20\n      add\n      0x01\n      dup3\n      add\n      sload\n      dup2\n      mstore\n      0x20\n      add\n      0x02\n      dup3\n      add\n      sload\n      dup2\n      mstore\n      pop\n      pop\n      swap1\n      pop\n        /* \"AVAX/artifacts/staking.sol\":2976:2977  0 */\n      0x00\n        /* \"AVAX/artifacts/staking.sol\":2961:2965  info */\n      dup2\n        /* \"AVAX/artifacts/staking.sol\":2961:2972  info.amount */\n      0x00\n      add\n      mload\n        /* \"AVAX/artifacts/staking.sol\":2961:2977  info.amount == 0 */\n      sub\n        /* \"AVAX/artifacts/staking.sol\":2957:2987  if (info.amount == 0) return 0 */\n      tag_147\n      jumpi\n        /* \"AVAX/artifacts/staking.sol\":2986:2987  0 */\n      0x00\n        /* \"AVAX/artifacts/staking.sol\":2979:2987  return 0 */\n      swap2\n      pop\n      pop\n      jump(tag_146)\n        /* \"AVAX/artifacts/staking.sol\":2957:2987  if (info.amount == 0) return 0 */\n    tag_147:\n        /* \"AVAX/artifacts/staking.sol\":3000:3016  uint256 duration */\n      0x00\n        /* \"AVAX/artifacts/staking.sol\":3037:3041  info */\n      dup2\n        /* \"AVAX/artifacts/staking.sol\":3037:3053  info.lastClaimed */\n      0x40\n      add\n      mload\n        /* \"AVAX/artifacts/staking.sol\":3019:3034  block.timestamp */\n      timestamp\n        /* \"AVAX/artifacts/staking.sol\":3019:3053  block.timestamp - info.lastClaimed */\n      tag_148\n      swap2\n      swap1\n      tag_87\n      jump\t// in\n    tag_148:\n        /* \"AVAX/artifacts/staking.sol\":3000:3053  uint256 duration = block.timestamp - info.lastClaimed */\n      swap1\n      pop\n        /* \"AVAX/artifacts/staking.sol\":3064:3084  uint256 yearlyReward */\n      0x00\n        /* \"AVAX/artifacts/staking.sol\":3116:3120  1000 */\n      0x03e8\n        /* \"AVAX/artifacts/staking.sol\":3102:3112  rewardRate */\n      sload(0x02)\n        /* \"AVAX/artifacts/staking.sol\":3088:3092  info */\n      dup5\n        /* \"AVAX/artifacts/staking.sol\":3088:3099  info.amount */\n      0x00\n      add\n      mload\n        /* \"AVAX/artifacts/staking.sol\":3088:3112  info.amount * rewardRate */\n      tag_149\n      swap2\n      swap1\n      tag_150\n      jump\t// in\n    tag_149:\n        /* \"AVAX/artifacts/staking.sol\":3087:3120  (info.amount * rewardRate) / 1000 */\n      tag_151\n      swap2\n      swap1\n      tag_152\n      jump\t// in\n    tag_151:\n        /* \"AVAX/artifacts/staking.sol\":3064:3120  uint256 yearlyReward = (info.amount * rewardRate) / 1000 */\n      swap1\n      pop\n        /* \"AVAX/artifacts/staking.sol\":491:499  365 days */\n      0x01e13380\n        /* \"AVAX/artifacts/staking.sol\":3172:3180  duration */\n      dup3\n        /* \"AVAX/artifacts/staking.sol\":3157:3169  yearlyReward */\n      dup3\n        /* \"AVAX/artifacts/staking.sol\":3157:3180  yearlyReward * duration */\n      tag_153\n      swap2\n      swap1\n      tag_150\n      jump\t// in\n    tag_153:\n        /* \"AVAX/artifacts/staking.sol\":3156:3199  (yearlyReward * duration) / SECONDS_IN_YEAR */\n      tag_154\n      swap2\n      swap1\n      tag_152\n      jump\t// in\n    tag_154:\n        /* \"AVAX/artifacts/staking.sol\":3149:3199  return (yearlyReward * duration) / SECONDS_IN_YEAR */\n      swap4\n      pop\n      pop\n      pop\n      pop\n        /* \"AVAX/artifacts/staking.sol\":2830:3207  function calculateReward(address user) public view returns (uint256) {... */\n    tag_146:\n      swap2\n      swap1\n      pop\n      jump\t// out\n        /* \"https://raw.githubusercontent.com/OpenZeppelin/openzeppelin-contracts/v4.9.0/contracts/access/Ownable.sol\":2074:2272  function transferOwnership(address newOwner) public virtual onlyOwner {... */\n    tag_72:\n        /* \"https://raw.githubusercontent.com/OpenZeppelin/openzeppelin-contracts/v4.9.0/contracts/access/Ownable.sol\":1094:1107  _checkOwner() */\n      tag_156\n        /* \"https://raw.githubusercontent.com/OpenZeppelin/openzeppelin-contracts/v4.9.0/contracts/access/Ownable.sol\":1094:1105  _checkOwner */\n      tag_102\n        /* \"https://raw.githubusercontent.com/OpenZeppelin/openzeppelin-contracts/v4.9.0/contracts/access/Ownable.sol\":1094:1107  _checkOwner() */\n      jump\t// in\n    tag_156:\n        /* \"https://raw.githubusercontent.com/OpenZeppelin/openzeppelin-contracts/v4.9.0/contracts/access/Ownable.sol\":2182:2183  0 */\n      0x00\n        /* \"https://raw.githubusercontent.com/OpenZeppelin/openzeppelin-contracts/v4.9.0/contracts/access/Ownable.sol\":2162:2184  newOwner != address(0) */\n      0xffffffffffffffffffffffffffffffffffffffff\n      and\n        /* \"https://raw.githubusercontent.com/OpenZeppelin/openzeppelin-contracts/v4.9.0/contracts/access/Ownable.sol\":2162:2170  newOwner */\n      dup2\n        /* \"https://raw.githubusercontent.com/OpenZeppelin/openzeppelin-contracts/v4.9.0/contracts/access/Ownable.sol\":2162:2184  newOwner != address(0) */\n      0xffffffffffffffffffffffffffffffffffffffff\n      and\n      sub\n        /* \"https://raw.githubusercontent.com/OpenZeppelin/openzeppelin-contracts/v4.9.0/contracts/access/Ownable.sol\":2154:2227  require(newOwner != address(0), \"Ownable: new owner is the zero address\") */\n      tag_158\n      jumpi\n      mload(0x40)\n      0x08c379a000000000000000000000000000000000000000000000000000000000\n      dup2\n      mstore\n      0x04\n      add\n      tag_159\n      swap1\n      tag_160\n      jump\t// in\n    tag_159:\n      mload(0x40)\n      dup1\n      swap2\n      sub\n      swap1\n      revert\n    tag_158:\n        /* \"https://raw.githubusercontent.com/OpenZeppelin/openzeppelin-contracts/v4.9.0/contracts/access/Ownable.sol\":2237:2265  _transferOwnership(newOwner) */\n      tag_161\n        /* \"https://raw.githubusercontent.com/OpenZeppelin/openzeppelin-contracts/v4.9.0/contracts/access/Ownable.sol\":2256:2264  newOwner */\n      dup2\n        /* \"https://raw.githubusercontent.com/OpenZeppelin/openzeppelin-contracts/v4.9.0/contracts/access/Ownable.sol\":2237:2255  _transferOwnership */\n      tag_105\n        /* \"https://raw.githubusercontent.com/OpenZeppelin/openzeppelin-contracts/v4.9.0/contracts/access/Ownable.sol\":2237:2265  _transferOwnership(newOwner) */\n      jump\t// in\n    tag_161:\n        /* \"https://raw.githubusercontent.com/OpenZeppelin/openzeppelin-contracts/v4.9.0/contracts/access/Ownable.sol\":2074:2272  function transferOwnership(address newOwner) public virtual onlyOwner {... */\n      pop\n      jump\t// out\n        /* \"https://raw.githubusercontent.com/OpenZeppelin/openzeppelin-contracts/v4.9.0/contracts/access/Ownable.sol\":1359:1489  function _checkOwner() internal view virtual {... */\n    tag_102:\n        /* \"https://raw.githubusercontent.com/OpenZeppelin/openzeppelin-contracts/v4.9.0/contracts/access/Ownable.sol\":1433:1445  _msgSender() */\n      tag_163\n        /* \"https://raw.githubusercontent.com/OpenZeppelin/openzeppelin-contracts/v4.9.0/contracts/access/Ownable.sol\":1433:1443  _msgSender */\n      tag_164\n        /* \"https://raw.githubusercontent.com/OpenZeppelin/openzeppelin-contracts/v4.9.0/contracts/access/Ownable.sol\":1433:1445  _msgSender() */\n      jump\t// in\n    tag_163:\n        /* \"https://raw.githubusercontent.com/OpenZeppelin/openzeppelin-contracts/v4.9.0/contracts/access/Ownable.sol\":1422:1445  owner() == _msgSender() */\n      0xffffffffffffffffffffffffffffffffffffffff\n      and\n        /* \"https://raw.githubusercontent.com/OpenZeppelin/openzeppelin-contracts/v4.9.0/contracts/access/Ownable.sol\":1422:1429  owner() */\n      tag_165\n        /* \"https://raw.githubusercontent.com/OpenZeppelin/openzeppelin-contracts/v4.9.0/contracts/access/Ownable.sol\":1422:1427  owner */\n      tag_55\n        /* \"https://raw.githubusercontent.com/OpenZeppelin/openzeppelin-contracts/v4.9.0/contracts/access/Ownable.sol\":1422:1429  owner() */\n      jump\t// in\n    tag_165:\n        /* \"https://raw.githubusercontent.com/OpenZeppelin/openzeppelin-contracts/v4.9.0/contracts/access/Ownable.sol\":1422:1445  owner() == _msgSender() */\n      0xffffffffffffffffffffffffffffffffffffffff\n      and\n      eq\n        /* \"https://raw.githubusercontent.com/OpenZeppelin/openzeppelin-contracts/v4.9.0/contracts/access/Ownable.sol\":1414:1482  require(owner() == _msgSender(), \"Ownable: caller is not the owner\") */\n      tag_166\n      jumpi\n      mload(0x40)\n      0x08c379a000000000000000000000000000000000000000000000000000000000\n      dup2\n      mstore\n      0x04\n      add\n      tag_167\n      swap1\n      tag_168\n      jump\t// in\n    tag_167:\n      mload(0x40)\n      dup1\n      swap2\n      sub\n      swap1\n      revert\n    tag_166:\n        /* \"https://raw.githubusercontent.com/OpenZeppelin/openzeppelin-contracts/v4.9.0/contracts/access/Ownable.sol\":1359:1489  function _checkOwner() internal view virtual {... */\n      jump\t// out\n        /* \"https://raw.githubusercontent.com/OpenZeppelin/openzeppelin-contracts/v4.9.0/contracts/access/Ownable.sol\":2426:2613  function _transferOwnership(address newOwner) internal virtual {... */\n    tag_105:\n        /* \"https://raw.githubusercontent.com/OpenZeppelin/openzeppelin-contracts/v4.9.0/contracts/access/Ownable.sol\":2499:2515  address oldOwner */\n      0x00\n        /* \"https://raw.githubusercontent.com/OpenZeppelin/openzeppelin-contracts/v4.9.0/contracts/access/Ownable.sol\":2518:2524  _owner */\n      0x00\n      0x00\n      swap1\n      sload\n      swap1\n      0x0100\n      exp\n      swap1\n      div\n      0xffffffffffffffffffffffffffffffffffffffff\n      and\n        /* \"https://raw.githubusercontent.com/OpenZeppelin/openzeppelin-contracts/v4.9.0/contracts/access/Ownable.sol\":2499:2524  address oldOwner = _owner */\n      swap1\n      pop\n        /* \"https://raw.githubusercontent.com/OpenZeppelin/openzeppelin-contracts/v4.9.0/contracts/access/Ownable.sol\":2543:2551  newOwner */\n      dup2\n        /* \"https://raw.githubusercontent.com/OpenZeppelin/openzeppelin-contracts/v4.9.0/contracts/access/Ownable.sol\":2534:2540  _owner */\n      0x00\n      0x00\n        /* \"https://raw.githubusercontent.com/OpenZeppelin/openzeppelin-contracts/v4.9.0/contracts/access/Ownable.sol\":2534:2551  _owner = newOwner */\n      0x0100\n      exp\n      dup2\n      sload\n      dup2\n      0xffffffffffffffffffffffffffffffffffffffff\n      mul\n      not\n      and\n      swap1\n      dup4\n      0xffffffffffffffffffffffffffffffffffffffff\n      and\n      mul\n      or\n      swap1\n      sstore\n      pop\n        /* \"https://raw.githubusercontent.com/OpenZeppelin/openzeppelin-contracts/v4.9.0/contracts/access/Ownable.sol\":2597:2605  newOwner */\n      dup2\n        /* \"https://raw.githubusercontent.com/OpenZeppelin/openzeppelin-contracts/v4.9.0/contracts/access/Ownable.sol\":2566:2606  OwnershipTransferred(oldOwner, newOwner) */\n      0xffffffffffffffffffffffffffffffffffffffff\n      and\n        /* \"https://raw.githubusercontent.com/OpenZeppelin/openzeppelin-contracts/v4.9.0/contracts/access/Ownable.sol\":2587:2595  oldOwner */\n      dup2\n        /* \"https://raw.githubusercontent.com/OpenZeppelin/openzeppelin-contracts/v4.9.0/contracts/access/Ownable.sol\":2566:2606  OwnershipTransferred(oldOwner, newOwner) */\n      0xffffffffffffffffffffffffffffffffffffffff\n      and\n      0x8be0079c531659141344cd1fd0a4f28419497f9722a3daafe3b4186f6b6457e0\n      mload(0x40)\n      mload(0x40)\n      dup1\n      swap2\n      sub\n      swap1\n      log3\n        /* \"https://raw.githubusercontent.com/OpenZeppelin/openzeppelin-contracts/v4.9.0/contracts/access/Ownable.sol\":2489:2613  {... */\n      pop\n        /* \"https://raw.githubusercontent.com/OpenZeppelin/openzeppelin-contracts/v4.9.0/contracts/access/Ownable.sol\":2426:2613  function _transferOwnership(address newOwner) internal virtual {... */\n      pop\n      jump\t// out\n        /* \"https://raw.githubusercontent.com/OpenZeppelin/openzeppelin-contracts/v4.9.0/contracts/utils/Context.sol\":640:736  function _msgSender() internal view virtual returns (address) {... */\n    tag_164:\n        /* \"https://raw.githubusercontent.com/OpenZeppelin/openzeppelin-contracts/v4.9.0/contracts/utils/Context.sol\":693:700  address */\n      0x00\n        /* \"https://raw.githubusercontent.com/OpenZeppelin/openzeppelin-contracts/v4.9.0/contracts/utils/Context.sol\":719:729  msg.sender */\n      caller\n        /* \"https://raw.githubusercontent.com/OpenZeppelin/openzeppelin-contracts/v4.9.0/contracts/utils/Context.sol\":712:729  return msg.sender */\n      swap1\n      pop\n        /* \"https://raw.githubusercontent.com/OpenZeppelin/openzeppelin-contracts/v4.9.0/contracts/utils/Context.sol\":640:736  function _msgSender() internal view virtual returns (address) {... */\n      swap1\n      jump\t// out\n        /* \"#utility.yul\":7:84   */\n    tag_171:\n        /* \"#utility.yul\":44:51   */\n      0x00\n        /* \"#utility.yul\":73:78   */\n      dup2\n        /* \"#utility.yul\":62:78   */\n      swap1\n      pop\n        /* \"#utility.yul\":7:84   */\n      swap2\n      swap1\n      pop\n      jump\t// out\n        /* \"#utility.yul\":90:208   */\n    tag_172:\n        /* \"#utility.yul\":177:201   */\n      tag_217\n        /* \"#utility.yul\":195:200   */\n      dup2\n        /* \"#utility.yul\":177:201   */\n      tag_171\n      jump\t// in\n    tag_217:\n        /* \"#utility.yul\":172:175   */\n      dup3\n        /* \"#utility.yul\":165:202   */\n      mstore\n        /* \"#utility.yul\":90:208   */\n      pop\n      pop\n      jump\t// out\n        /* \"#utility.yul\":214:436   */\n    tag_24:\n        /* \"#utility.yul\":307:311   */\n      0x00\n        /* \"#utility.yul\":345:347   */\n      0x20\n        /* \"#utility.yul\":334:343   */\n      dup3\n        /* \"#utility.yul\":330:348   */\n      add\n        /* \"#utility.yul\":322:348   */\n      swap1\n      pop\n        /* \"#utility.yul\":358:429   */\n      tag_219\n        /* \"#utility.yul\":426:427   */\n      0x00\n        /* \"#utility.yul\":415:424   */\n      dup4\n        /* \"#utility.yul\":411:428   */\n      add\n        /* \"#utility.yul\":402:408   */\n      dup5\n        /* \"#utility.yul\":358:429   */\n      tag_172\n      jump\t// in\n    tag_219:\n        /* \"#utility.yul\":214:436   */\n      swap3\n      swap2\n      pop\n      pop\n      jump\t// out\n        /* \"#utility.yul\":523:640   */\n    tag_174:\n        /* \"#utility.yul\":632:633   */\n      0x00\n        /* \"#utility.yul\":629:630   */\n      0x00\n        /* \"#utility.yul\":622:634   */\n      revert\n        /* \"#utility.yul\":769:895   */\n    tag_176:\n        /* \"#utility.yul\":806:813   */\n      0x00\n        /* \"#utility.yul\":846:888   */\n      0xffffffffffffffffffffffffffffffffffffffff\n        /* \"#utility.yul\":839:844   */\n      dup3\n        /* \"#utility.yul\":835:889   */\n      and\n        /* \"#utility.yul\":824:889   */\n      swap1\n      pop\n        /* \"#utility.yul\":769:895   */\n      swap2\n      swap1\n      pop\n      jump\t// out\n        /* \"#utility.yul\":901:997   */\n    tag_177:\n        /* \"#utility.yul\":938:945   */\n      0x00\n        /* \"#utility.yul\":967:991   */\n      tag_225\n        /* \"#utility.yul\":985:990   */\n      dup3\n        /* \"#utility.yul\":967:991   */\n      tag_176\n      jump\t// in\n    tag_225:\n        /* \"#utility.yul\":956:991   */\n      swap1\n      pop\n        /* \"#utility.yul\":901:997   */\n      swap2\n      swap1\n      pop\n      jump\t// out\n        /* \"#utility.yul\":1003:1125   */\n    tag_178:\n        /* \"#utility.yul\":1076:1100   */\n      tag_227\n        /* \"#utility.yul\":1094:1099   */\n      dup2\n        /* \"#utility.yul\":1076:1100   */\n      tag_177\n      jump\t// in\n    tag_227:\n        /* \"#utility.yul\":1069:1074   */\n      dup2\n        /* \"#utility.yul\":1066:1101   */\n      eq\n        /* \"#utility.yul\":1056:1119   */\n      tag_228\n      jumpi\n        /* \"#utility.yul\":1115:1116   */\n      0x00\n        /* \"#utility.yul\":1112:1113   */\n      0x00\n        /* \"#utility.yul\":1105:1117   */\n      revert\n        /* \"#utility.yul\":1056:1119   */\n    tag_228:\n        /* \"#utility.yul\":1003:1125   */\n      pop\n      jump\t// out\n        /* \"#utility.yul\":1131:1270   */\n    tag_179:\n        /* \"#utility.yul\":1177:1182   */\n      0x00\n        /* \"#utility.yul\":1215:1221   */\n      dup2\n        /* \"#utility.yul\":1202:1222   */\n      calldataload\n        /* \"#utility.yul\":1193:1222   */\n      swap1\n      pop\n        /* \"#utility.yul\":1231:1264   */\n      tag_230\n        /* \"#utility.yul\":1258:1263   */\n      dup2\n        /* \"#utility.yul\":1231:1264   */\n      tag_178\n      jump\t// in\n    tag_230:\n        /* \"#utility.yul\":1131:1270   */\n      swap3\n      swap2\n      pop\n      pop\n      jump\t// out\n        /* \"#utility.yul\":1276:1605   */\n    tag_27:\n        /* \"#utility.yul\":1335:1341   */\n      0x00\n        /* \"#utility.yul\":1384:1386   */\n      0x20\n        /* \"#utility.yul\":1372:1381   */\n      dup3\n        /* \"#utility.yul\":1363:1370   */\n      dup5\n        /* \"#utility.yul\":1359:1382   */\n      sub\n        /* \"#utility.yul\":1355:1387   */\n      slt\n        /* \"#utility.yul\":1352:1471   */\n      iszero\n      tag_232\n      jumpi\n        /* \"#utility.yul\":1390:1469   */\n      tag_233\n      tag_174\n      jump\t// in\n    tag_233:\n        /* \"#utility.yul\":1352:1471   */\n    tag_232:\n        /* \"#utility.yul\":1510:1511   */\n      0x00\n        /* \"#utility.yul\":1535:1588   */\n      tag_234\n        /* \"#utility.yul\":1580:1587   */\n      dup5\n        /* \"#utility.yul\":1571:1577   */\n      dup3\n        /* \"#utility.yul\":1560:1569   */\n      dup6\n        /* \"#utility.yul\":1556:1578   */\n      add\n        /* \"#utility.yul\":1535:1588   */\n      tag_179\n      jump\t// in\n    tag_234:\n        /* \"#utility.yul\":1525:1588   */\n      swap2\n      pop\n        /* \"#utility.yul\":1481:1598   */\n      pop\n        /* \"#utility.yul\":1276:1605   */\n      swap3\n      swap2\n      pop\n      pop\n      jump\t// out\n        /* \"#utility.yul\":1611:2053   */\n    tag_30:\n        /* \"#utility.yul\":1760:1764   */\n      0x00\n        /* \"#utility.yul\":1798:1800   */\n      0x60\n        /* \"#utility.yul\":1787:1796   */\n      dup3\n        /* \"#utility.yul\":1783:1801   */\n      add\n        /* \"#utility.yul\":1775:1801   */\n      swap1\n      pop\n        /* \"#utility.yul\":1811:1882   */\n      tag_236\n        /* \"#utility.yul\":1879:1880   */\n      0x00\n        /* \"#utility.yul\":1868:1877   */\n      dup4\n        /* \"#utility.yul\":1864:1881   */\n      add\n        /* \"#utility.yul\":1855:1861   */\n      dup7\n        /* \"#utility.yul\":1811:1882   */\n      tag_172\n      jump\t// in\n    tag_236:\n        /* \"#utility.yul\":1892:1964   */\n      tag_237\n        /* \"#utility.yul\":1960:1962   */\n      0x20\n        /* \"#utility.yul\":1949:1958   */\n      dup4\n        /* \"#utility.yul\":1945:1963   */\n      add\n        /* \"#utility.yul\":1936:1942   */\n      dup6\n        /* \"#utility.yul\":1892:1964   */\n      tag_172\n      jump\t// in\n    tag_237:\n        /* \"#utility.yul\":1974:2046   */\n      tag_238\n        /* \"#utility.yul\":2042:2044   */\n      0x40\n        /* \"#utility.yul\":2031:2040   */\n      dup4\n        /* \"#utility.yul\":2027:2045   */\n      add\n        /* \"#utility.yul\":2018:2024   */\n      dup5\n        /* \"#utility.yul\":1974:2046   */\n      tag_172\n      jump\t// in\n    tag_238:\n        /* \"#utility.yul\":1611:2053   */\n      swap5\n      swap4\n      pop\n      pop\n      pop\n      pop\n      jump\t// out\n        /* \"#utility.yul\":2059:2181   */\n    tag_180:\n        /* \"#utility.yul\":2132:2156   */\n      tag_240\n        /* \"#utility.yul\":2150:2155   */\n      dup2\n        /* \"#utility.yul\":2132:2156   */\n      tag_171\n      jump\t// in\n    tag_240:\n        /* \"#utility.yul\":2125:2130   */\n      dup2\n        /* \"#utility.yul\":2122:2157   */\n      eq\n        /* \"#utility.yul\":2112:2175   */\n      tag_241\n      jumpi\n        /* \"#utility.yul\":2171:2172   */\n      0x00\n        /* \"#utility.yul\":2168:2169   */\n      0x00\n        /* \"#utility.yul\":2161:2173   */\n      revert\n        /* \"#utility.yul\":2112:2175   */\n    tag_241:\n        /* \"#utility.yul\":2059:2181   */\n      pop\n      jump\t// out\n        /* \"#utility.yul\":2187:2326   */\n    tag_181:\n        /* \"#utility.yul\":2233:2238   */\n      0x00\n        /* \"#utility.yul\":2271:2277   */\n      dup2\n        /* \"#utility.yul\":2258:2278   */\n      calldataload\n        /* \"#utility.yul\":2249:2278   */\n      swap1\n      pop\n        /* \"#utility.yul\":2287:2320   */\n      tag_243\n        /* \"#utility.yul\":2314:2319   */\n      dup2\n        /* \"#utility.yul\":2287:2320   */\n      tag_180\n      jump\t// in\n    tag_243:\n        /* \"#utility.yul\":2187:2326   */\n      swap3\n      swap2\n      pop\n      pop\n      jump\t// out\n        /* \"#utility.yul\":2332:2661   */\n    tag_33:\n        /* \"#utility.yul\":2391:2397   */\n      0x00\n        /* \"#utility.yul\":2440:2442   */\n      0x20\n        /* \"#utility.yul\":2428:2437   */\n      dup3\n        /* \"#utility.yul\":2419:2426   */\n      dup5\n        /* \"#utility.yul\":2415:2438   */\n      sub\n        /* \"#utility.yul\":2411:2443   */\n      slt\n        /* \"#utility.yul\":2408:2527   */\n      iszero\n      tag_245\n      jumpi\n        /* \"#utility.yul\":2446:2525   */\n      tag_246\n      tag_174\n      jump\t// in\n    tag_246:\n        /* \"#utility.yul\":2408:2527   */\n    tag_245:\n        /* \"#utility.yul\":2566:2567   */\n      0x00\n        /* \"#utility.yul\":2591:2644   */\n      tag_247\n        /* \"#utility.yul\":2636:2643   */\n      dup5\n        /* \"#utility.yul\":2627:2633   */\n      dup3\n        /* \"#utility.yul\":2616:2625   */\n      dup6\n        /* \"#utility.yul\":2612:2634   */\n      add\n        /* \"#utility.yul\":2591:2644   */\n      tag_181\n      jump\t// in\n    tag_247:\n        /* \"#utility.yul\":2581:2644   */\n      swap2\n      pop\n        /* \"#utility.yul\":2537:2654   */\n      pop\n        /* \"#utility.yul\":2332:2661   */\n      swap3\n      swap2\n      pop\n      pop\n      jump\t// out\n        /* \"#utility.yul\":2667:2727   */\n    tag_182:\n        /* \"#utility.yul\":2695:2698   */\n      0x00\n        /* \"#utility.yul\":2716:2721   */\n      dup2\n        /* \"#utility.yul\":2709:2721   */\n      swap1\n      pop\n        /* \"#utility.yul\":2667:2727   */\n      swap2\n      swap1\n      pop\n      jump\t// out\n        /* \"#utility.yul\":2733:2875   */\n    tag_183:\n        /* \"#utility.yul\":2783:2792   */\n      0x00\n        /* \"#utility.yul\":2816:2869   */\n      tag_250\n        /* \"#utility.yul\":2834:2868   */\n      tag_251\n        /* \"#utility.yul\":2843:2867   */\n      tag_252\n        /* \"#utility.yul\":2861:2866   */\n      dup5\n        /* \"#utility.yul\":2843:2867   */\n      tag_176\n      jump\t// in\n    tag_252:\n        /* \"#utility.yul\":2834:2868   */\n      tag_182\n      jump\t// in\n    tag_251:\n        /* \"#utility.yul\":2816:2869   */\n      tag_176\n      jump\t// in\n    tag_250:\n        /* \"#utility.yul\":2803:2869   */\n      swap1\n      pop\n        /* \"#utility.yul\":2733:2875   */\n      swap2\n      swap1\n      pop\n      jump\t// out\n        /* \"#utility.yul\":2881:3007   */\n    tag_184:\n        /* \"#utility.yul\":2931:2940   */\n      0x00\n        /* \"#utility.yul\":2964:3001   */\n      tag_254\n        /* \"#utility.yul\":2995:3000   */\n      dup3\n        /* \"#utility.yul\":2964:3001   */\n      tag_183\n      jump\t// in\n    tag_254:\n        /* \"#utility.yul\":2951:3001   */\n      swap1\n      pop\n        /* \"#utility.yul\":2881:3007   */\n      swap2\n      swap1\n      pop\n      jump\t// out\n        /* \"#utility.yul\":3013:3153   */\n    tag_185:\n        /* \"#utility.yul\":3077:3086   */\n      0x00\n        /* \"#utility.yul\":3110:3147   */\n      tag_256\n        /* \"#utility.yul\":3141:3146   */\n      dup3\n        /* \"#utility.yul\":3110:3147   */\n      tag_184\n      jump\t// in\n    tag_256:\n        /* \"#utility.yul\":3097:3147   */\n      swap1\n      pop\n        /* \"#utility.yul\":3013:3153   */\n      swap2\n      swap1\n      pop\n      jump\t// out\n        /* \"#utility.yul\":3159:3318   */\n    tag_186:\n        /* \"#utility.yul\":3260:3311   */\n      tag_258\n        /* \"#utility.yul\":3305:3310   */\n      dup2\n        /* \"#utility.yul\":3260:3311   */\n      tag_185\n      jump\t// in\n    tag_258:\n        /* \"#utility.yul\":3255:3258   */\n      dup3\n        /* \"#utility.yul\":3248:3312   */\n      mstore\n        /* \"#utility.yul\":3159:3318   */\n      pop\n      pop\n      jump\t// out\n        /* \"#utility.yul\":3324:3574   */\n    tag_47:\n        /* \"#utility.yul\":3431:3435   */\n      0x00\n        /* \"#utility.yul\":3469:3471   */\n      0x20\n        /* \"#utility.yul\":3458:3467   */\n      dup3\n        /* \"#utility.yul\":3454:3472   */\n      add\n        /* \"#utility.yul\":3446:3472   */\n      swap1\n      pop\n        /* \"#utility.yul\":3482:3567   */\n      tag_260\n        /* \"#utility.yul\":3564:3565   */\n      0x00\n        /* \"#utility.yul\":3553:3562   */\n      dup4\n        /* \"#utility.yul\":3549:3566   */\n      add\n        /* \"#utility.yul\":3540:3546   */\n      dup5\n        /* \"#utility.yul\":3482:3567   */\n      tag_186\n      jump\t// in\n    tag_260:\n        /* \"#utility.yul\":3324:3574   */\n      swap3\n      swap2\n      pop\n      pop\n      jump\t// out\n        /* \"#utility.yul\":3580:3698   */\n    tag_187:\n        /* \"#utility.yul\":3667:3691   */\n      tag_262\n        /* \"#utility.yul\":3685:3690   */\n      dup2\n        /* \"#utility.yul\":3667:3691   */\n      tag_177\n      jump\t// in\n    tag_262:\n        /* \"#utility.yul\":3662:3665   */\n      dup3\n        /* \"#utility.yul\":3655:3692   */\n      mstore\n        /* \"#utility.yul\":3580:3698   */\n      pop\n      pop\n      jump\t// out\n        /* \"#utility.yul\":3704:3926   */\n    tag_57:\n        /* \"#utility.yul\":3797:3801   */\n      0x00\n        /* \"#utility.yul\":3835:3837   */\n      0x20\n        /* \"#utility.yul\":3824:3833   */\n      dup3\n        /* \"#utility.yul\":3820:3838   */\n      add\n        /* \"#utility.yul\":3812:3838   */\n      swap1\n      pop\n        /* \"#utility.yul\":3848:3919   */\n      tag_264\n        /* \"#utility.yul\":3916:3917   */\n      0x00\n        /* \"#utility.yul\":3905:3914   */\n      dup4\n        /* \"#utility.yul\":3901:3918   */\n      add\n        /* \"#utility.yul\":3892:3898   */\n      dup5\n        /* \"#utility.yul\":3848:3919   */\n      tag_187\n      jump\t// in\n    tag_264:\n        /* \"#utility.yul\":3704:3926   */\n      swap3\n      swap2\n      pop\n      pop\n      jump\t// out\n        /* \"#utility.yul\":3932:4101   */\n    tag_188:\n        /* \"#utility.yul\":4016:4027   */\n      0x00\n        /* \"#utility.yul\":4050:4056   */\n      dup3\n        /* \"#utility.yul\":4045:4048   */\n      dup3\n        /* \"#utility.yul\":4038:4057   */\n      mstore\n        /* \"#utility.yul\":4090:4094   */\n      0x20\n        /* \"#utility.yul\":4085:4088   */\n      dup3\n        /* \"#utility.yul\":4081:4095   */\n      add\n        /* \"#utility.yul\":4066:4095   */\n      swap1\n      pop\n        /* \"#utility.yul\":3932:4101   */\n      swap3\n      swap2\n      pop\n      pop\n      jump\t// out\n        /* \"#utility.yul\":4107:4276   */\n    tag_189:\n        /* \"#utility.yul\":4247:4268   */\n      0x43616e6e6f7420756e7374616b65207a65726f00000000000000000000000000\n        /* \"#utility.yul\":4243:4244   */\n      0x00\n        /* \"#utility.yul\":4235:4241   */\n      dup3\n        /* \"#utility.yul\":4231:4245   */\n      add\n        /* \"#utility.yul\":4224:4269   */\n      mstore\n        /* \"#utility.yul\":4107:4276   */\n      pop\n      jump\t// out\n        /* \"#utility.yul\":4282:4648   */\n    tag_190:\n        /* \"#utility.yul\":4424:4427   */\n      0x00\n        /* \"#utility.yul\":4445:4512   */\n      tag_268\n        /* \"#utility.yul\":4509:4511   */\n      0x13\n        /* \"#utility.yul\":4504:4507   */\n      dup4\n        /* \"#utility.yul\":4445:4512   */\n      tag_188\n      jump\t// in\n    tag_268:\n        /* \"#utility.yul\":4438:4512   */\n      swap2\n      pop\n        /* \"#utility.yul\":4521:4614   */\n      tag_269\n        /* \"#utility.yul\":4610:4613   */\n      dup3\n        /* \"#utility.yul\":4521:4614   */\n      tag_189\n      jump\t// in\n    tag_269:\n        /* \"#utility.yul\":4639:4641   */\n      0x20\n        /* \"#utility.yul\":4634:4637   */\n      dup3\n        /* \"#utility.yul\":4630:4642   */\n      add\n        /* \"#utility.yul\":4623:4642   */\n      swap1\n      pop\n        /* \"#utility.yul\":4282:4648   */\n      swap2\n      swap1\n      pop\n      jump\t// out\n        /* \"#utility.yul\":4654:5073   */\n    tag_76:\n        /* \"#utility.yul\":4820:4824   */\n      0x00\n        /* \"#utility.yul\":4858:4860   */\n      0x20\n        /* \"#utility.yul\":4847:4856   */\n      dup3\n        /* \"#utility.yul\":4843:4861   */\n      add\n        /* \"#utility.yul\":4835:4861   */\n      swap1\n      pop\n        /* \"#utility.yul\":4907:4916   */\n      dup2\n        /* \"#utility.yul\":4901:4905   */\n      dup2\n        /* \"#utility.yul\":4897:4917   */\n      sub\n        /* \"#utility.yul\":4893:4894   */\n      0x00\n        /* \"#utility.yul\":4882:4891   */\n      dup4\n        /* \"#utility.yul\":4878:4895   */\n      add\n        /* \"#utility.yul\":4871:4918   */\n      mstore\n        /* \"#utility.yul\":4935:5066   */\n      tag_271\n        /* \"#utility.yul\":5061:5065   */\n      dup2\n        /* \"#utility.yul\":4935:5066   */\n      tag_190\n      jump\t// in\n    tag_271:\n        /* \"#utility.yul\":4927:5066   */\n      swap1\n      pop\n        /* \"#utility.yul\":4654:5073   */\n      swap2\n      swap1\n      pop\n      jump\t// out\n        /* \"#utility.yul\":5079:5246   */\n    tag_191:\n        /* \"#utility.yul\":5219:5238   */\n      0x4e6f7420656e6f756768207374616b6564000000000000000000000000000000\n        /* \"#utility.yul\":5215:5216   */\n      0x00\n        /* \"#utility.yul\":5207:5213   */\n      dup3\n        /* \"#utility.yul\":5203:5217   */\n      add\n        /* \"#utility.yul\":5196:5239   */\n      mstore\n        /* \"#utility.yul\":5079:5246   */\n      pop\n      jump\t// out\n        /* \"#utility.yul\":5252:5618   */\n    tag_192:\n        /* \"#utility.yul\":5394:5397   */\n      0x00\n        /* \"#utility.yul\":5415:5482   */\n      tag_274\n        /* \"#utility.yul\":5479:5481   */\n      0x11\n        /* \"#utility.yul\":5474:5477   */\n      dup4\n        /* \"#utility.yul\":5415:5482   */\n      tag_188\n      jump\t// in\n    tag_274:\n        /* \"#utility.yul\":5408:5482   */\n      swap2\n      pop\n        /* \"#utility.yul\":5491:5584   */\n      tag_275\n        /* \"#utility.yul\":5580:5583   */\n      dup3\n        /* \"#utility.yul\":5491:5584   */\n      tag_191\n      jump\t// in\n    tag_275:\n        /* \"#utility.yul\":5609:5611   */\n      0x20\n        /* \"#utility.yul\":5604:5607   */\n      dup3\n        /* \"#utility.yul\":5600:5612   */\n      add\n        /* \"#utility.yul\":5593:5612   */\n      swap1\n      pop\n        /* \"#utility.yul\":5252:5618   */\n      swap2\n      swap1\n      pop\n      jump\t// out\n        /* \"#utility.yul\":5624:6043   */\n    tag_79:\n        /* \"#utility.yul\":5790:5794   */\n      0x00\n        /* \"#utility.yul\":5828:5830   */\n      0x20\n        /* \"#utility.yul\":5817:5826   */\n      dup3\n        /* \"#utility.yul\":5813:5831   */\n      add\n        /* \"#utility.yul\":5805:5831   */\n      swap1\n      pop\n        /* \"#utility.yul\":5877:5886   */\n      dup2\n        /* \"#utility.yul\":5871:5875   */\n      dup2\n        /* \"#utility.yul\":5867:5887   */\n      sub\n        /* \"#utility.yul\":5863:5864   */\n      0x00\n        /* \"#utility.yul\":5852:5861   */\n      dup4\n        /* \"#utility.yul\":5848:5865   */\n      add\n        /* \"#utility.yul\":5841:5888   */\n      mstore\n        /* \"#utility.yul\":5905:6036   */\n      tag_277\n        /* \"#utility.yul\":6031:6035   */\n      dup2\n        /* \"#utility.yul\":5905:6036   */\n      tag_192\n      jump\t// in\n    tag_277:\n        /* \"#utility.yul\":5897:6036   */\n      swap1\n      pop\n        /* \"#utility.yul\":5624:6043   */\n      swap2\n      swap1\n      pop\n      jump\t// out\n        /* \"#utility.yul\":6049:6229   */\n    tag_193:\n        /* \"#utility.yul\":6097:6174   */\n      0x4e487b7100000000000000000000000000000000000000000000000000000000\n        /* \"#utility.yul\":6094:6095   */\n      0x00\n        /* \"#utility.yul\":6087:6175   */\n      mstore\n        /* \"#utility.yul\":6194:6198   */\n      0x11\n        /* \"#utility.yul\":6191:6192   */\n      0x04\n        /* \"#utility.yul\":6184:6199   */\n      mstore\n        /* \"#utility.yul\":6218:6222   */\n      0x24\n        /* \"#utility.yul\":6215:6216   */\n      0x00\n        /* \"#utility.yul\":6208:6223   */\n      revert\n        /* \"#utility.yul\":6235:6426   */\n    tag_81:\n        /* \"#utility.yul\":6275:6278   */\n      0x00\n        /* \"#utility.yul\":6294:6314   */\n      tag_280\n        /* \"#utility.yul\":6312:6313   */\n      dup3\n        /* \"#utility.yul\":6294:6314   */\n      tag_171\n      jump\t// in\n    tag_280:\n        /* \"#utility.yul\":6289:6314   */\n      swap2\n      pop\n        /* \"#utility.yul\":6328:6348   */\n      tag_281\n        /* \"#utility.yul\":6346:6347   */\n      dup4\n        /* \"#utility.yul\":6328:6348   */\n      tag_171\n      jump\t// in\n    tag_281:\n        /* \"#utility.yul\":6323:6348   */\n      swap3\n      pop\n        /* \"#utility.yul\":6371:6372   */\n      dup3\n        /* \"#utility.yul\":6368:6369   */\n      dup3\n        /* \"#utility.yul\":6364:6373   */\n      add\n        /* \"#utility.yul\":6357:6373   */\n      swap1\n      pop\n        /* \"#utility.yul\":6392:6395   */\n      dup1\n        /* \"#utility.yul\":6389:6390   */\n      dup3\n        /* \"#utility.yul\":6386:6396   */\n      gt\n        /* \"#utility.yul\":6383:6419   */\n      iszero\n      tag_282\n      jumpi\n        /* \"#utility.yul\":6399:6417   */\n      tag_283\n      tag_193\n      jump\t// in\n    tag_283:\n        /* \"#utility.yul\":6383:6419   */\n    tag_282:\n        /* \"#utility.yul\":6235:6426   */\n      swap3\n      swap2\n      pop\n      pop\n      jump\t// out\n        /* \"#utility.yul\":6432:6611   */\n    tag_194:\n        /* \"#utility.yul\":6572:6603   */\n      0x5374616b696e6720706572696f64206e6f742079657420706173736564000000\n        /* \"#utility.yul\":6568:6569   */\n      0x00\n        /* \"#utility.yul\":6560:6566   */\n      dup3\n        /* \"#utility.yul\":6556:6570   */\n      add\n        /* \"#utility.yul\":6549:6604   */\n      mstore\n        /* \"#utility.yul\":6432:6611   */\n      pop\n      jump\t// out\n        /* \"#utility.yul\":6617:6983   */\n    tag_195:\n        /* \"#utility.yul\":6759:6762   */\n      0x00\n        /* \"#utility.yul\":6780:6847   */\n      tag_286\n        /* \"#utility.yul\":6844:6846   */\n      0x1d\n        /* \"#utility.yul\":6839:6842   */\n      dup4\n        /* \"#utility.yul\":6780:6847   */\n      tag_188\n      jump\t// in\n    tag_286:\n        /* \"#utility.yul\":6773:6847   */\n      swap2\n      pop\n        /* \"#utility.yul\":6856:6949   */\n      tag_287\n        /* \"#utility.yul\":6945:6948   */\n      dup3\n        /* \"#utility.yul\":6856:6949   */\n      tag_194\n      jump\t// in\n    tag_287:\n        /* \"#utility.yul\":6974:6976   */\n      0x20\n        /* \"#utility.yul\":6969:6972   */\n      dup3\n        /* \"#utility.yul\":6965:6977   */\n      add\n        /* \"#utility.yul\":6958:6977   */\n      swap1\n      pop\n        /* \"#utility.yul\":6617:6983   */\n      swap2\n      swap1\n      pop\n      jump\t// out\n        /* \"#utility.yul\":6989:7408   */\n    tag_84:\n        /* \"#utility.yul\":7155:7159   */\n      0x00\n        /* \"#utility.yul\":7193:7195   */\n      0x20\n        /* \"#utility.yul\":7182:7191   */\n      dup3\n        /* \"#utility.yul\":7178:7196   */\n      add\n        /* \"#utility.yul\":7170:7196   */\n      swap1\n      pop\n        /* \"#utility.yul\":7242:7251   */\n      dup2\n        /* \"#utility.yul\":7236:7240   */\n      dup2\n        /* \"#utility.yul\":7232:7252   */\n      sub\n        /* \"#utility.yul\":7228:7229   */\n      0x00\n        /* \"#utility.yul\":7217:7226   */\n      dup4\n        /* \"#utility.yul\":7213:7230   */\n      add\n        /* \"#utility.yul\":7206:7253   */\n      mstore\n        /* \"#utility.yul\":7270:7401   */\n      tag_289\n        /* \"#utility.yul\":7396:7400   */\n      dup2\n        /* \"#utility.yul\":7270:7401   */\n      tag_195\n      jump\t// in\n    tag_289:\n        /* \"#utility.yul\":7262:7401   */\n      swap1\n      pop\n        /* \"#utility.yul\":6989:7408   */\n      swap2\n      swap1\n      pop\n      jump\t// out\n        /* \"#utility.yul\":7414:7608   */\n    tag_87:\n        /* \"#utility.yul\":7454:7458   */\n      0x00\n        /* \"#utility.yul\":7474:7494   */\n      tag_291\n        /* \"#utility.yul\":7492:7493   */\n      dup3\n        /* \"#utility.yul\":7474:7494   */\n      tag_171\n      jump\t// in\n    tag_291:\n        /* \"#utility.yul\":7469:7494   */\n      swap2\n      pop\n        /* \"#utility.yul\":7508:7528   */\n      tag_292\n        /* \"#utility.yul\":7526:7527   */\n      dup4\n        /* \"#utility.yul\":7508:7528   */\n      tag_171\n      jump\t// in\n    tag_292:\n        /* \"#utility.yul\":7503:7528   */\n      swap3\n      pop\n        /* \"#utility.yul\":7552:7553   */\n      dup3\n        /* \"#utility.yul\":7549:7550   */\n      dup3\n        /* \"#utility.yul\":7545:7554   */\n      sub\n        /* \"#utility.yul\":7537:7554   */\n      swap1\n      pop\n        /* \"#utility.yul\":7576:7577   */\n      dup2\n        /* \"#utility.yul\":7570:7574   */\n      dup2\n        /* \"#utility.yul\":7567:7578   */\n      gt\n        /* \"#utility.yul\":7564:7601   */\n      iszero\n      tag_293\n      jumpi\n        /* \"#utility.yul\":7581:7599   */\n      tag_294\n      tag_193\n      jump\t// in\n    tag_294:\n        /* \"#utility.yul\":7564:7601   */\n    tag_293:\n        /* \"#utility.yul\":7414:7608   */\n      swap3\n      swap2\n      pop\n      pop\n      jump\t// out\n        /* \"#utility.yul\":7614:7946   */\n    tag_90:\n        /* \"#utility.yul\":7735:7739   */\n      0x00\n        /* \"#utility.yul\":7773:7775   */\n      0x40\n        /* \"#utility.yul\":7762:7771   */\n      dup3\n        /* \"#utility.yul\":7758:7776   */\n      add\n        /* \"#utility.yul\":7750:7776   */\n      swap1\n      pop\n        /* \"#utility.yul\":7786:7857   */\n      tag_296\n        /* \"#utility.yul\":7854:7855   */\n      0x00\n        /* \"#utility.yul\":7843:7852   */\n      dup4\n        /* \"#utility.yul\":7839:7856   */\n      add\n        /* \"#utility.yul\":7830:7836   */\n      dup6\n        /* \"#utility.yul\":7786:7857   */\n      tag_187\n      jump\t// in\n    tag_296:\n        /* \"#utility.yul\":7867:7939   */\n      tag_297\n        /* \"#utility.yul\":7935:7937   */\n      0x20\n        /* \"#utility.yul\":7924:7933   */\n      dup4\n        /* \"#utility.yul\":7920:7938   */\n      add\n        /* \"#utility.yul\":7911:7917   */\n      dup5\n        /* \"#utility.yul\":7867:7939   */\n      tag_172\n      jump\t// in\n    tag_297:\n        /* \"#utility.yul\":7614:7946   */\n      swap4\n      swap3\n      pop\n      pop\n      pop\n      jump\t// out\n        /* \"#utility.yul\":7952:8042   */\n    tag_196:\n        /* \"#utility.yul\":7986:7993   */\n      0x00\n        /* \"#utility.yul\":8029:8034   */\n      dup2\n        /* \"#utility.yul\":8022:8035   */\n      iszero\n        /* \"#utility.yul\":8015:8036   */\n      iszero\n        /* \"#utility.yul\":8004:8036   */\n      swap1\n      pop\n        /* \"#utility.yul\":7952:8042   */\n      swap2\n      swap1\n      pop\n      jump\t// out\n        /* \"#utility.yul\":8048:8164   */\n    tag_197:\n        /* \"#utility.yul\":8118:8139   */\n      tag_300\n        /* \"#utility.yul\":8133:8138   */\n      dup2\n        /* \"#utility.yul\":8118:8139   */\n      tag_196\n      jump\t// in\n    tag_300:\n        /* \"#utility.yul\":8111:8116   */\n      dup2\n        /* \"#utility.yul\":8108:8140   */\n      eq\n        /* \"#utility.yul\":8098:8158   */\n      tag_301\n      jumpi\n        /* \"#utility.yul\":8154:8155   */\n      0x00\n        /* \"#utility.yul\":8151:8152   */\n      0x00\n        /* \"#utility.yul\":8144:8156   */\n      revert\n        /* \"#utility.yul\":8098:8158   */\n    tag_301:\n        /* \"#utility.yul\":8048:8164   */\n      pop\n      jump\t// out\n        /* \"#utility.yul\":8170:8307   */\n    tag_198:\n        /* \"#utility.yul\":8224:8229   */\n      0x00\n        /* \"#utility.yul\":8255:8261   */\n      dup2\n        /* \"#utility.yul\":8249:8262   */\n      mload\n        /* \"#utility.yul\":8240:8262   */\n      swap1\n      pop\n        /* \"#utility.yul\":8271:8301   */\n      tag_303\n        /* \"#utility.yul\":8295:8300   */\n      dup2\n        /* \"#utility.yul\":8271:8301   */\n      tag_197\n      jump\t// in\n    tag_303:\n        /* \"#utility.yul\":8170:8307   */\n      swap3\n      swap2\n      pop\n      pop\n      jump\t// out\n        /* \"#utility.yul\":8313:8658   */\n    tag_94:\n        /* \"#utility.yul\":8380:8386   */\n      0x00\n        /* \"#utility.yul\":8429:8431   */\n      0x20\n        /* \"#utility.yul\":8417:8426   */\n      dup3\n        /* \"#utility.yul\":8408:8415   */\n      dup5\n        /* \"#utility.yul\":8404:8427   */\n      sub\n        /* \"#utility.yul\":8400:8432   */\n      slt\n        /* \"#utility.yul\":8397:8516   */\n      iszero\n      tag_305\n      jumpi\n        /* \"#utility.yul\":8435:8514   */\n      tag_306\n      tag_174\n      jump\t// in\n    tag_306:\n        /* \"#utility.yul\":8397:8516   */\n    tag_305:\n        /* \"#utility.yul\":8555:8556   */\n      0x00\n        /* \"#utility.yul\":8580:8641   */\n      tag_307\n        /* \"#utility.yul\":8633:8640   */\n      dup5\n        /* \"#utility.yul\":8624:8630   */\n      dup3\n        /* \"#utility.yul\":8613:8622   */\n      dup6\n        /* \"#utility.yul\":8609:8631   */\n      add\n        /* \"#utility.yul\":8580:8641   */\n      tag_198\n      jump\t// in\n    tag_307:\n        /* \"#utility.yul\":8570:8641   */\n      swap2\n      pop\n        /* \"#utility.yul\":8526:8651   */\n      pop\n        /* \"#utility.yul\":8313:8658   */\n      swap3\n      swap2\n      pop\n      pop\n      jump\t// out\n        /* \"#utility.yul\":8664:8829   */\n    tag_199:\n        /* \"#utility.yul\":8804:8821   */\n      0x5472616e73666572206661696c65640000000000000000000000000000000000\n        /* \"#utility.yul\":8800:8801   */\n      0x00\n        /* \"#utility.yul\":8792:8798   */\n      dup3\n        /* \"#utility.yul\":8788:8802   */\n      add\n        /* \"#utility.yul\":8781:8822   */\n      mstore\n        /* \"#utility.yul\":8664:8829   */\n      pop\n      jump\t// out\n        /* \"#utility.yul\":8835:9201   */\n    tag_200:\n        /* \"#utility.yul\":8977:8980   */\n      0x00\n        /* \"#utility.yul\":8998:9065   */\n      tag_310\n        /* \"#utility.yul\":9062:9064   */\n      0x0f\n        /* \"#utility.yul\":9057:9060   */\n      dup4\n        /* \"#utility.yul\":8998:9065   */\n      tag_188\n      jump\t// in\n    tag_310:\n        /* \"#utility.yul\":8991:9065   */\n      swap2\n      pop\n        /* \"#utility.yul\":9074:9167   */\n      tag_311\n        /* \"#utility.yul\":9163:9166   */\n      dup3\n        /* \"#utility.yul\":9074:9167   */\n      tag_199\n      jump\t// in\n    tag_311:\n        /* \"#utility.yul\":9192:9194   */\n      0x20\n        /* \"#utility.yul\":9187:9190   */\n      dup3\n        /* \"#utility.yul\":9183:9195   */\n      add\n        /* \"#utility.yul\":9176:9195   */\n      swap1\n      pop\n        /* \"#utility.yul\":8835:9201   */\n      swap2\n      swap1\n      pop\n      jump\t// out\n        /* \"#utility.yul\":9207:9626   */\n    tag_97:\n        /* \"#utility.yul\":9373:9377   */\n      0x00\n        /* \"#utility.yul\":9411:9413   */\n      0x20\n        /* \"#utility.yul\":9400:9409   */\n      dup3\n        /* \"#utility.yul\":9396:9414   */\n      add\n        /* \"#utility.yul\":9388:9414   */\n      swap1\n      pop\n        /* \"#utility.yul\":9460:9469   */\n      dup2\n        /* \"#utility.yul\":9454:9458   */\n      dup2\n        /* \"#utility.yul\":9450:9470   */\n      sub\n        /* \"#utility.yul\":9446:9447   */\n      0x00\n        /* \"#utility.yul\":9435:9444   */\n      dup4\n        /* \"#utility.yul\":9431:9448   */\n      add\n        /* \"#utility.yul\":9424:9471   */\n      mstore\n        /* \"#utility.yul\":9488:9619   */\n      tag_313\n        /* \"#utility.yul\":9614:9618   */\n      dup2\n        /* \"#utility.yul\":9488:9619   */\n      tag_200\n      jump\t// in\n    tag_313:\n        /* \"#utility.yul\":9480:9619   */\n      swap1\n      pop\n        /* \"#utility.yul\":9207:9626   */\n      swap2\n      swap1\n      pop\n      jump\t// out\n        /* \"#utility.yul\":9632:9799   */\n    tag_201:\n        /* \"#utility.yul\":9772:9791   */\n      0x43616e6e6f74207374616b65207a65726f000000000000000000000000000000\n        /* \"#utility.yul\":9768:9769   */\n      0x00\n        /* \"#utility.yul\":9760:9766   */\n      dup3\n        /* \"#utility.yul\":9756:9770   */\n      add\n        /* \"#utility.yul\":9749:9792   */\n      mstore\n        /* \"#utility.yul\":9632:9799   */\n      pop\n      jump\t// out\n        /* \"#utility.yul\":9805:10171   */\n    tag_202:\n        /* \"#utility.yul\":9947:9950   */\n      0x00\n        /* \"#utility.yul\":9968:10035   */\n      tag_316\n        /* \"#utility.yul\":10032:10034   */\n      0x11\n        /* \"#utility.yul\":10027:10030   */\n      dup4\n        /* \"#utility.yul\":9968:10035   */\n      tag_188\n      jump\t// in\n    tag_316:\n        /* \"#utility.yul\":9961:10035   */\n      swap2\n      pop\n        /* \"#utility.yul\":10044:10137   */\n      tag_317\n        /* \"#utility.yul\":10133:10136   */\n      dup3\n        /* \"#utility.yul\":10044:10137   */\n      tag_201\n      jump\t// in\n    tag_317:\n        /* \"#utility.yul\":10162:10164   */\n      0x20\n        /* \"#utility.yul\":10157:10160   */\n      dup3\n        /* \"#utility.yul\":10153:10165   */\n      add\n        /* \"#utility.yul\":10146:10165   */\n      swap1\n      pop\n        /* \"#utility.yul\":9805:10171   */\n      swap2\n      swap1\n      pop\n      jump\t// out\n        /* \"#utility.yul\":10177:10596   */\n    tag_116:\n        /* \"#utility.yul\":10343:10347   */\n      0x00\n        /* \"#utility.yul\":10381:10383   */\n      0x20\n        /* \"#utility.yul\":10370:10379   */\n      dup3\n        /* \"#utility.yul\":10366:10384   */\n      add\n        /* \"#utility.yul\":10358:10384   */\n      swap1\n      pop\n        /* \"#utility.yul\":10430:10439   */\n      dup2\n        /* \"#utility.yul\":10424:10428   */\n      dup2\n        /* \"#utility.yul\":10420:10440   */\n      sub\n        /* \"#utility.yul\":10416:10417   */\n      0x00\n        /* \"#utility.yul\":10405:10414   */\n      dup4\n        /* \"#utility.yul\":10401:10418   */\n      add\n        /* \"#utility.yul\":10394:10441   */\n      mstore\n        /* \"#utility.yul\":10458:10589   */\n      tag_319\n        /* \"#utility.yul\":10584:10588   */\n      dup2\n        /* \"#utility.yul\":10458:10589   */\n      tag_202\n      jump\t// in\n    tag_319:\n        /* \"#utility.yul\":10450:10589   */\n      swap1\n      pop\n        /* \"#utility.yul\":10177:10596   */\n      swap2\n      swap1\n      pop\n      jump\t// out\n        /* \"#utility.yul\":10602:11044   */\n    tag_118:\n        /* \"#utility.yul\":10751:10755   */\n      0x00\n        /* \"#utility.yul\":10789:10791   */\n      0x60\n        /* \"#utility.yul\":10778:10787   */\n      dup3\n        /* \"#utility.yul\":10774:10792   */\n      add\n        /* \"#utility.yul\":10766:10792   */\n      swap1\n      pop\n        /* \"#utility.yul\":10802:10873   */\n      tag_321\n        /* \"#utility.yul\":10870:10871   */\n      0x00\n        /* \"#utility.yul\":10859:10868   */\n      dup4\n        /* \"#utility.yul\":10855:10872   */\n      add\n        /* \"#utility.yul\":10846:10852   */\n      dup7\n        /* \"#utility.yul\":10802:10873   */\n      tag_187\n      jump\t// in\n    tag_321:\n        /* \"#utility.yul\":10883:10955   */\n      tag_322\n        /* \"#utility.yul\":10951:10953   */\n      0x20\n        /* \"#utility.yul\":10940:10949   */\n      dup4\n        /* \"#utility.yul\":10936:10954   */\n      add\n        /* \"#utility.yul\":10927:10933   */\n      dup6\n        /* \"#utility.yul\":10883:10955   */\n      tag_187\n      jump\t// in\n    tag_322:\n        /* \"#utility.yul\":10965:11037   */\n      tag_323\n        /* \"#utility.yul\":11033:11035   */\n      0x40\n        /* \"#utility.yul\":11022:11031   */\n      dup4\n        /* \"#utility.yul\":11018:11036   */\n      add\n        /* \"#utility.yul\":11009:11015   */\n      dup5\n        /* \"#utility.yul\":10965:11037   */\n      tag_172\n      jump\t// in\n    tag_323:\n        /* \"#utility.yul\":10602:11044   */\n      swap5\n      swap4\n      pop\n      pop\n      pop\n      pop\n      jump\t// out\n        /* \"#utility.yul\":11050:11382   */\n    tag_129:\n        /* \"#utility.yul\":11171:11175   */\n      0x00\n        /* \"#utility.yul\":11209:11211   */\n      0x40\n        /* \"#utility.yul\":11198:11207   */\n      dup3\n        /* \"#utility.yul\":11194:11212   */\n      add\n        /* \"#utility.yul\":11186:11212   */\n      swap1\n      pop\n        /* \"#utility.yul\":11222:11293   */\n      tag_325\n        /* \"#utility.yul\":11290:11291   */\n      0x00\n        /* \"#utility.yul\":11279:11288   */\n      dup4\n        /* \"#utility.yul\":11275:11292   */\n      add\n        /* \"#utility.yul\":11266:11272   */\n      dup6\n        /* \"#utility.yul\":11222:11293   */\n      tag_172\n      jump\t// in\n    tag_325:\n        /* \"#utility.yul\":11303:11375   */\n      tag_326\n        /* \"#utility.yul\":11371:11373   */\n      0x20\n        /* \"#utility.yul\":11360:11369   */\n      dup4\n        /* \"#utility.yul\":11356:11374   */\n      add\n        /* \"#utility.yul\":11347:11353   */\n      dup5\n        /* \"#utility.yul\":11303:11375   */\n      tag_172\n      jump\t// in\n    tag_326:\n        /* \"#utility.yul\":11050:11382   */\n      swap4\n      swap3\n      pop\n      pop\n      pop\n      jump\t// out\n        /* \"#utility.yul\":11388:11552   */\n    tag_203:\n        /* \"#utility.yul\":11528:11544   */\n      0x4e6f207374616b6520666f756e64000000000000000000000000000000000000\n        /* \"#utility.yul\":11524:11525   */\n      0x00\n        /* \"#utility.yul\":11516:11522   */\n      dup3\n        /* \"#utility.yul\":11512:11526   */\n      add\n        /* \"#utility.yul\":11505:11545   */\n      mstore\n        /* \"#utility.yul\":11388:11552   */\n      pop\n      jump\t// out\n        /* \"#utility.yul\":11558:11924   */\n    tag_204:\n        /* \"#utility.yul\":11700:11703   */\n      0x00\n        /* \"#utility.yul\":11721:11788   */\n      tag_329\n        /* \"#utility.yul\":11785:11787   */\n      0x0e\n        /* \"#utility.yul\":11780:11783   */\n      dup4\n        /* \"#utility.yul\":11721:11788   */\n      tag_188\n      jump\t// in\n    tag_329:\n        /* \"#utility.yul\":11714:11788   */\n      swap2\n      pop\n        /* \"#utility.yul\":11797:11890   */\n      tag_330\n        /* \"#utility.yul\":11886:11889   */\n      dup3\n        /* \"#utility.yul\":11797:11890   */\n      tag_203\n      jump\t// in\n    tag_330:\n        /* \"#utility.yul\":11915:11917   */\n      0x20\n        /* \"#utility.yul\":11910:11913   */\n      dup3\n        /* \"#utility.yul\":11906:11918   */\n      add\n        /* \"#utility.yul\":11899:11918   */\n      swap1\n      pop\n        /* \"#utility.yul\":11558:11924   */\n      swap2\n      swap1\n      pop\n      jump\t// out\n        /* \"#utility.yul\":11930:12349   */\n    tag_133:\n        /* \"#utility.yul\":12096:12100   */\n      0x00\n        /* \"#utility.yul\":12134:12136   */\n      0x20\n        /* \"#utility.yul\":12123:12132   */\n      dup3\n        /* \"#utility.yul\":12119:12137   */\n      add\n        /* \"#utility.yul\":12111:12137   */\n      swap1\n      pop\n        /* \"#utility.yul\":12183:12192   */\n      dup2\n        /* \"#utility.yul\":12177:12181   */\n      dup2\n        /* \"#utility.yul\":12173:12193   */\n      sub\n        /* \"#utility.yul\":12169:12170   */\n      0x00\n        /* \"#utility.yul\":12158:12167   */\n      dup4\n        /* \"#utility.yul\":12154:12171   */\n      add\n        /* \"#utility.yul\":12147:12194   */\n      mstore\n        /* \"#utility.yul\":12211:12342   */\n      tag_332\n        /* \"#utility.yul\":12337:12341   */\n      dup2\n        /* \"#utility.yul\":12211:12342   */\n      tag_204\n      jump\t// in\n    tag_332:\n        /* \"#utility.yul\":12203:12342   */\n      swap1\n      pop\n        /* \"#utility.yul\":11930:12349   */\n      swap2\n      swap1\n      pop\n      jump\t// out\n        /* \"#utility.yul\":12355:12518   */\n    tag_205:\n        /* \"#utility.yul\":12495:12510   */\n      0x4e6f207265776172642079657400000000000000000000000000000000000000\n        /* \"#utility.yul\":12491:12492   */\n      0x00\n        /* \"#utility.yul\":12483:12489   */\n      dup3\n        /* \"#utility.yul\":12479:12493   */\n      add\n        /* \"#utility.yul\":12472:12511   */\n      mstore\n        /* \"#utility.yul\":12355:12518   */\n      pop\n      jump\t// out\n        /* \"#utility.yul\":12524:12890   */\n    tag_206:\n        /* \"#utility.yul\":12666:12669   */\n      0x00\n        /* \"#utility.yul\":12687:12754   */\n      tag_335\n        /* \"#utility.yul\":12751:12753   */\n      0x0d\n        /* \"#utility.yul\":12746:12749   */\n      dup4\n        /* \"#utility.yul\":12687:12754   */\n      tag_188\n      jump\t// in\n    tag_335:\n        /* \"#utility.yul\":12680:12754   */\n      swap2\n      pop\n        /* \"#utility.yul\":12763:12856   */\n      tag_336\n        /* \"#utility.yul\":12852:12855   */\n      dup3\n        /* \"#utility.yul\":12763:12856   */\n      tag_205\n      jump\t// in\n    tag_336:\n        /* \"#utility.yul\":12881:12883   */\n      0x20\n        /* \"#utility.yul\":12876:12879   */\n      dup3\n        /* \"#utility.yul\":12872:12884   */\n      add\n        /* \"#utility.yul\":12865:12884   */\n      swap1\n      pop\n        /* \"#utility.yul\":12524:12890   */\n      swap2\n      swap1\n      pop\n      jump\t// out\n        /* \"#utility.yul\":12896:13315   */\n    tag_137:\n        /* \"#utility.yul\":13062:13066   */\n      0x00\n        /* \"#utility.yul\":13100:13102   */\n      0x20\n        /* \"#utility.yul\":13089:13098   */\n      dup3\n        /* \"#utility.yul\":13085:13103   */\n      add\n        /* \"#utility.yul\":13077:13103   */\n      swap1\n      pop\n        /* \"#utility.yul\":13149:13158   */\n      dup2\n        /* \"#utility.yul\":13143:13147   */\n      dup2\n        /* \"#utility.yul\":13139:13159   */\n      sub\n        /* \"#utility.yul\":13135:13136   */\n      0x00\n        /* \"#utility.yul\":13124:13133   */\n      dup4\n        /* \"#utility.yul\":13120:13137   */\n      add\n        /* \"#utility.yul\":13113:13160   */\n      mstore\n        /* \"#utility.yul\":13177:13308   */\n      tag_338\n        /* \"#utility.yul\":13303:13307   */\n      dup2\n        /* \"#utility.yul\":13177:13308   */\n      tag_206\n      jump\t// in\n    tag_338:\n        /* \"#utility.yul\":13169:13308   */\n      swap1\n      pop\n        /* \"#utility.yul\":12896:13315   */\n      swap2\n      swap1\n      pop\n      jump\t// out\n        /* \"#utility.yul\":13321:13493   */\n    tag_207:\n        /* \"#utility.yul\":13461:13485   */\n      0x526577617264207472616e73666572206661696c656400000000000000000000\n        /* \"#utility.yul\":13457:13458   */\n      0x00\n        /* \"#utility.yul\":13449:13455   */\n      dup3\n        /* \"#utility.yul\":13445:13459   */\n      add\n        /* \"#utility.yul\":13438:13486   */\n      mstore\n        /* \"#utility.yul\":13321:13493   */\n      pop\n      jump\t// out\n        /* \"#utility.yul\":13499:13865   */\n    tag_208:\n        /* \"#utility.yul\":13641:13644   */\n      0x00\n        /* \"#utility.yul\":13662:13729   */\n      tag_341\n        /* \"#utility.yul\":13726:13728   */\n      0x16\n        /* \"#utility.yul\":13721:13724   */\n      dup4\n        /* \"#utility.yul\":13662:13729   */\n      tag_188\n      jump\t// in\n    tag_341:\n        /* \"#utility.yul\":13655:13729   */\n      swap2\n      pop\n        /* \"#utility.yul\":13738:13831   */\n      tag_342\n        /* \"#utility.yul\":13827:13830   */\n      dup3\n        /* \"#utility.yul\":13738:13831   */\n      tag_207\n      jump\t// in\n    tag_342:\n        /* \"#utility.yul\":13856:13858   */\n      0x20\n        /* \"#utility.yul\":13851:13854   */\n      dup3\n        /* \"#utility.yul\":13847:13859   */\n      add\n        /* \"#utility.yul\":13840:13859   */\n      swap1\n      pop\n        /* \"#utility.yul\":13499:13865   */\n      swap2\n      swap1\n      pop\n      jump\t// out\n        /* \"#utility.yul\":13871:14290   */\n    tag_144:\n        /* \"#utility.yul\":14037:14041   */\n      0x00\n        /* \"#utility.yul\":14075:14077   */\n      0x20\n        /* \"#utility.yul\":14064:14073   */\n      dup3\n        /* \"#utility.yul\":14060:14078   */\n      add\n        /* \"#utility.yul\":14052:14078   */\n      swap1\n      pop\n        /* \"#utility.yul\":14124:14133   */\n      dup2\n        /* \"#utility.yul\":14118:14122   */\n      dup2\n        /* \"#utility.yul\":14114:14134   */\n      sub\n        /* \"#utility.yul\":14110:14111   */\n      0x00\n        /* \"#utility.yul\":14099:14108   */\n      dup4\n        /* \"#utility.yul\":14095:14112   */\n      add\n        /* \"#utility.yul\":14088:14135   */\n      mstore\n        /* \"#utility.yul\":14152:14283   */\n      tag_344\n        /* \"#utility.yul\":14278:14282   */\n      dup2\n        /* \"#utility.yul\":14152:14283   */\n      tag_208\n      jump\t// in\n    tag_344:\n        /* \"#utility.yul\":14144:14283   */\n      swap1\n      pop\n        /* \"#utility.yul\":13871:14290   */\n      swap2\n      swap1\n      pop\n      jump\t// out\n        /* \"#utility.yul\":14296:14706   */\n    tag_150:\n        /* \"#utility.yul\":14336:14343   */\n      0x00\n        /* \"#utility.yul\":14359:14379   */\n      tag_346\n        /* \"#utility.yul\":14377:14378   */\n      dup3\n        /* \"#utility.yul\":14359:14379   */\n      tag_171\n      jump\t// in\n    tag_346:\n        /* \"#utility.yul\":14354:14379   */\n      swap2\n      pop\n        /* \"#utility.yul\":14393:14413   */\n      tag_347\n        /* \"#utility.yul\":14411:14412   */\n      dup4\n        /* \"#utility.yul\":14393:14413   */\n      tag_171\n      jump\t// in\n    tag_347:\n        /* \"#utility.yul\":14388:14413   */\n      swap3\n      pop\n        /* \"#utility.yul\":14448:14449   */\n      dup3\n        /* \"#utility.yul\":14445:14446   */\n      dup3\n        /* \"#utility.yul\":14441:14450   */\n      mul\n        /* \"#utility.yul\":14470:14500   */\n      tag_348\n        /* \"#utility.yul\":14488:14499   */\n      dup2\n        /* \"#utility.yul\":14470:14500   */\n      tag_171\n      jump\t// in\n    tag_348:\n        /* \"#utility.yul\":14459:14500   */\n      swap2\n      pop\n        /* \"#utility.yul\":14649:14650   */\n      dup3\n        /* \"#utility.yul\":14640:14647   */\n      dup3\n        /* \"#utility.yul\":14636:14651   */\n      div\n        /* \"#utility.yul\":14633:14634   */\n      dup5\n        /* \"#utility.yul\":14630:14652   */\n      eq\n        /* \"#utility.yul\":14610:14611   */\n      dup4\n        /* \"#utility.yul\":14603:14612   */\n      iszero\n        /* \"#utility.yul\":14583:14666   */\n      or\n        /* \"#utility.yul\":14560:14699   */\n      tag_349\n      jumpi\n        /* \"#utility.yul\":14679:14697   */\n      tag_350\n      tag_193\n      jump\t// in\n    tag_350:\n        /* \"#utility.yul\":14560:14699   */\n    tag_349:\n        /* \"#utility.yul\":14344:14706   */\n      pop\n        /* \"#utility.yul\":14296:14706   */\n      swap3\n      swap2\n      pop\n      pop\n      jump\t// out\n        /* \"#utility.yul\":14712:14892   */\n    tag_209:\n        /* \"#utility.yul\":14760:14837   */\n      0x4e487b7100000000000000000000000000000000000000000000000000000000\n        /* \"#utility.yul\":14757:14758   */\n      0x00\n        /* \"#utility.yul\":14750:14838   */\n      mstore\n        /* \"#utility.yul\":14857:14861   */\n      0x12\n        /* \"#utility.yul\":14854:14855   */\n      0x04\n        /* \"#utility.yul\":14847:14862   */\n      mstore\n        /* \"#utility.yul\":14881:14885   */\n      0x24\n        /* \"#utility.yul\":14878:14879   */\n      0x00\n        /* \"#utility.yul\":14871:14886   */\n      revert\n        /* \"#utility.yul\":14898:15083   */\n    tag_152:\n        /* \"#utility.yul\":14938:14939   */\n      0x00\n        /* \"#utility.yul\":14955:14975   */\n      tag_353\n        /* \"#utility.yul\":14973:14974   */\n      dup3\n        /* \"#utility.yul\":14955:14975   */\n      tag_171\n      jump\t// in\n    tag_353:\n        /* \"#utility.yul\":14950:14975   */\n      swap2\n      pop\n        /* \"#utility.yul\":14989:15009   */\n      tag_354\n        /* \"#utility.yul\":15007:15008   */\n      dup4\n        /* \"#utility.yul\":14989:15009   */\n      tag_171\n      jump\t// in\n    tag_354:\n        /* \"#utility.yul\":14984:15009   */\n      swap3\n      pop\n        /* \"#utility.yul\":15028:15029   */\n      dup3\n        /* \"#utility.yul\":15018:15053   */\n      tag_355\n      jumpi\n        /* \"#utility.yul\":15033:15051   */\n      tag_356\n      tag_209\n      jump\t// in\n    tag_356:\n        /* \"#utility.yul\":15018:15053   */\n    tag_355:\n        /* \"#utility.yul\":15075:15076   */\n      dup3\n        /* \"#utility.yul\":15072:15073   */\n      dup3\n        /* \"#utility.yul\":15068:15077   */\n      div\n        /* \"#utility.yul\":15063:15077   */\n      swap1\n      pop\n        /* \"#utility.yul\":14898:15083   */\n      swap3\n      swap2\n      pop\n      pop\n      jump\t// out\n        /* \"#utility.yul\":15089:15314   */\n    tag_210:\n        /* \"#utility.yul\":15229:15263   */\n      0x4f776e61626c653a206e6577206f776e657220697320746865207a65726f2061\n        /* \"#utility.yul\":15225:15226   */\n      0x00\n        /* \"#utility.yul\":15217:15223   */\n      dup3\n        /* \"#utility.yul\":15213:15227   */\n      add\n        /* \"#utility.yul\":15206:15264   */\n      mstore\n        /* \"#utility.yul\":15298:15306   */\n      0x6464726573730000000000000000000000000000000000000000000000000000\n        /* \"#utility.yul\":15293:15295   */\n      0x20\n        /* \"#utility.yul\":15285:15291   */\n      dup3\n        /* \"#utility.yul\":15281:15296   */\n      add\n        /* \"#utility.yul\":15274:15307   */\n      mstore\n        /* \"#utility.yul\":15089:15314   */\n      pop\n      jump\t// out\n        /* \"#utility.yul\":15320:15686   */\n    tag_211:\n        /* \"#utility.yul\":15462:15465   */\n      0x00\n        /* \"#utility.yul\":15483:15550   */\n      tag_359\n        /* \"#utility.yul\":15547:15549   */\n      0x26\n        /* \"#utility.yul\":15542:15545   */\n      dup4\n        /* \"#utility.yul\":15483:15550   */\n      tag_188\n      jump\t// in\n    tag_359:\n        /* \"#utility.yul\":15476:15550   */\n      swap2\n      pop\n        /* \"#utility.yul\":15559:15652   */\n      tag_360\n        /* \"#utility.yul\":15648:15651   */\n      dup3\n        /* \"#utility.yul\":15559:15652   */\n      tag_210\n      jump\t// in\n    tag_360:\n        /* \"#utility.yul\":15677:15679   */\n      0x40\n        /* \"#utility.yul\":15672:15675   */\n      dup3\n        /* \"#utility.yul\":15668:15680   */\n      add\n        /* \"#utility.yul\":15661:15680   */\n      swap1\n      pop\n        /* \"#utility.yul\":15320:15686   */\n      swap2\n      swap1\n      pop\n      jump\t// out\n        /* \"#utility.yul\":15692:16111   */\n    tag_160:\n        /* \"#utility.yul\":15858:15862   */\n      0x00\n        /* \"#utility.yul\":15896:15898   */\n      0x20\n        /* \"#utility.yul\":15885:15894   */\n      dup3\n        /* \"#utility.yul\":15881:15899   */\n      add\n        /* \"#utility.yul\":15873:15899   */\n      swap1\n      pop\n        /* \"#utility.yul\":15945:15954   */\n      dup2\n        /* \"#utility.yul\":15939:15943   */\n      dup2\n        /* \"#utility.yul\":15935:15955   */\n      sub\n        /* \"#utility.yul\":15931:15932   */\n      0x00\n        /* \"#utility.yul\":15920:15929   */\n      dup4\n        /* \"#utility.yul\":15916:15933   */\n      add\n        /* \"#utility.yul\":15909:15956   */\n      mstore\n        /* \"#utility.yul\":15973:16104   */\n      tag_362\n        /* \"#utility.yul\":16099:16103   */\n      dup2\n        /* \"#utility.yul\":15973:16104   */\n      tag_211\n      jump\t// in\n    tag_362:\n        /* \"#utility.yul\":15965:16104   */\n      swap1\n      pop\n        /* \"#utility.yul\":15692:16111   */\n      swap2\n      swap1\n      pop\n      jump\t// out\n        /* \"#utility.yul\":16117:16299   */\n    tag_212:\n        /* \"#utility.yul\":16257:16291   */\n      0x4f776e61626c653a2063616c6c6572206973206e6f7420746865206f776e6572\n        /* \"#utility.yul\":16253:16254   */\n      0x00\n        /* \"#utility.yul\":16245:16251   */\n      dup3\n        /* \"#utility.yul\":16241:16255   */\n      add\n        /* \"#utility.yul\":16234:16292   */\n      mstore\n        /* \"#utility.yul\":16117:16299   */\n      pop\n      jump\t// out\n        /* \"#utility.yul\":16305:16671   */\n    tag_213:\n        /* \"#utility.yul\":16447:16450   */\n      0x00\n        /* \"#utility.yul\":16468:16535   */\n      tag_365\n        /* \"#utility.yul\":16532:16534   */\n      0x20\n        /* \"#utility.yul\":16527:16530   */\n      dup4\n        /* \"#utility.yul\":16468:16535   */\n      tag_188\n      jump\t// in\n    tag_365:\n        /* \"#utility.yul\":16461:16535   */\n      swap2\n      pop\n        /* \"#utility.yul\":16544:16637   */\n      tag_366\n        /* \"#utility.yul\":16633:16636   */\n      dup3\n        /* \"#utility.yul\":16544:16637   */\n      tag_212\n      jump\t// in\n    tag_366:\n        /* \"#utility.yul\":16662:16664   */\n      0x20\n        /* \"#utility.yul\":16657:16660   */\n      dup3\n        /* \"#utility.yul\":16653:16665   */\n      add\n        /* \"#utility.yul\":16646:16665   */\n      swap1\n      pop\n        /* \"#utility.yul\":16305:16671   */\n      swap2\n      swap1\n      pop\n      jump\t// out\n        /* \"#utility.yul\":16677:17096   */\n    tag_168:\n        /* \"#utility.yul\":16843:16847   */\n      0x00\n        /* \"#utility.yul\":16881:16883   */\n      0x20\n        /* \"#utility.yul\":16870:16879   */\n      dup3\n        /* \"#utility.yul\":16866:16884   */\n      add\n        /* \"#utility.yul\":16858:16884   */\n      swap1\n      pop\n        /* \"#utility.yul\":16930:16939   */\n      dup2\n        /* \"#utility.yul\":16924:16928   */\n      dup2\n        /* \"#utility.yul\":16920:16940   */\n      sub\n        /* \"#utility.yul\":16916:16917   */\n      0x00\n        /* \"#utility.yul\":16905:16914   */\n      dup4\n        /* \"#utility.yul\":16901:16918   */\n      add\n        /* \"#utility.yul\":16894:16941   */\n      mstore\n        /* \"#utility.yul\":16958:17089   */\n      tag_368\n        /* \"#utility.yul\":17084:17088   */\n      dup2\n        /* \"#utility.yul\":16958:17089   */\n      tag_213\n      jump\t// in\n    tag_368:\n        /* \"#utility.yul\":16950:17089   */\n      swap1\n      pop\n        /* \"#utility.yul\":16677:17096   */\n      swap2\n      swap1\n      pop\n      jump\t// out\n\n    auxdata: 0xa2646970667358221220248745fedbfff70103f4f26043164c405fea12a2d6a595712e2435d02d878b6a64736f6c634300081e0033\n}\n",
				"bytecode": {
					"linkReferences": {},
					"object": "6080604052606460025562093a8060035534801561001b575f5ffd5b50604051611942380380611942833981810160405281019061003d91906101c5565b61005961004e61009f60201b60201c565b6100a660201b60201c565b8060015f6101000a81548173ffffffffffffffffffffffffffffffffffffffff021916908373ffffffffffffffffffffffffffffffffffffffff160217905550506101f0565b5f33905090565b5f5f5f9054906101000a900473ffffffffffffffffffffffffffffffffffffffff169050815f5f6101000a81548173ffffffffffffffffffffffffffffffffffffffff021916908373ffffffffffffffffffffffffffffffffffffffff1602179055508173ffffffffffffffffffffffffffffffffffffffff168173ffffffffffffffffffffffffffffffffffffffff167f8be0079c531659141344cd1fd0a4f28419497f9722a3daafe3b4186f6b6457e060405160405180910390a35050565b5f5ffd5b5f73ffffffffffffffffffffffffffffffffffffffff82169050919050565b5f6101948261016b565b9050919050565b6101a48161018a565b81146101ae575f5ffd5b50565b5f815190506101bf8161019b565b92915050565b5f602082840312156101da576101d9610167565b5b5f6101e7848285016101b1565b91505092915050565b611745806101fd5f395ff3fe608060405234801561000f575f5ffd5b50600436106100f3575f3560e01c80637b0a47ee11610095578063a694fc3a11610064578063a694fc3a1461024d578063b88a802f14610269578063d82e396214610273578063f2fde38b146102a3576100f3565b80637b0a47ee146101d95780638a2ff9a2146101f75780638da5cb5b146102135780639e447fc614610231576100f3565b80635dcc9391116100d15780635dcc9391146101635780636021726714610181578063715018a6146101b157806372f702f3146101bb576100f3565b806308ae7e54146100f757806316934fc4146101155780632e17de7814610147575b5f5ffd5b6100ff6102bf565b60405161010c9190610eed565b60405180910390f35b61012f600480360381019061012a9190610f64565b6102c5565b60405161013e93929190610f8f565b60405180910390f35b610161600480360381019061015c9190610fee565b6102eb565b005b61016b610621565b6040516101789190610eed565b60405180910390f35b61019b60048036038101906101969190610f64565b610629565b6040516101a89190610eed565b60405180910390f35b6101b9610671565b005b6101c3610684565b6040516101d09190611074565b60405180910390f35b6101e16106a9565b6040516101ee9190610eed565b60405180910390f35b610211600480360381019061020c9190610fee565b6106af565b005b61021b6106c1565b604051610228919061109c565b60405180910390f35b61024b60048036038101906102469190610fee565b6106e8565b005b61026760048036038101906102629190610fee565b6106fa565b005b6102716109f5565b005b61028d60048036038101906102889190610f64565b610c37565b60405161029a9190610eed565b60405180910390f35b6102bd60048036038101906102b89190610f64565b610d0d565b005b60035481565b6004602052805f5260405f205f91509050805f0154908060010154908060020154905083565b5f811161032d576040517f08c379a00000000000000000000000000000000000000000000000000000000081526004016103249061110f565b60405180910390fd5b8060045f3373ffffffffffffffffffffffffffffffffffffffff1673ffffffffffffffffffffffffffffffffffffffff1681526020019081526020015f205f015410156103af576040517f08c379a00000000000000000000000000000000000000000000000000000000081526004016103a690611177565b60405180910390fd5b60035460045f3373ffffffffffffffffffffffffffffffffffffffff1673ffffffffffffffffffffffffffffffffffffffff1681526020019081526020015f20600101546103fd91906111c2565b42101561043f576040517f08c379a00000000000000000000000000000000000000000000000000000000081526004016104369061123f565b60405180910390fd5b5f61044933610c37565b90508160045f3373ffffffffffffffffffffffffffffffffffffffff1673ffffffffffffffffffffffffffffffffffffffff1681526020019081526020015f205f015f828254610499919061125d565b925050819055504260045f3373ffffffffffffffffffffffffffffffffffffffff1673ffffffffffffffffffffffffffffffffffffffff1681526020019081526020015f206002018190555060015f9054906101000a900473ffffffffffffffffffffffffffffffffffffffff1673ffffffffffffffffffffffffffffffffffffffff1663a9059cbb33838561052f91906111c2565b6040518363ffffffff1660e01b815260040161054c929190611290565b6020604051808303815f875af1158015610568573d5f5f3e3d5ffd5b505050506040513d601f19601f8201168201806040525081019061058c91906112ec565b6105cb576040517f08c379a00000000000000000000000000000000000000000000000000000000081526004016105c290611361565b60405180910390fd5b3373ffffffffffffffffffffffffffffffffffffffff167f204fccf0d92ed8d48f204adb39b2e81e92bad0dedb93f5716ca9478cfb57de0083834260405161061593929190610f8f565b60405180910390a25050565b6301e1338081565b5f60045f8373ffffffffffffffffffffffffffffffffffffffff1673ffffffffffffffffffffffffffffffffffffffff1681526020019081526020015f205f01549050919050565b610679610d8f565b6106825f610e0d565b565b60015f9054906101000a900473ffffffffffffffffffffffffffffffffffffffff1681565b60025481565b6106b7610d8f565b8060038190555050565b5f5f5f9054906101000a900473ffffffffffffffffffffffffffffffffffffffff16905090565b6106f0610d8f565b8060028190555050565b5f811161073c576040517f08c379a0000000000000000000000000000000000000000000000000000000008152600401610733906113c9565b60405180910390fd5b60015f9054906101000a900473ffffffffffffffffffffffffffffffffffffffff1673ffffffffffffffffffffffffffffffffffffffff166323b872dd3330846040518463ffffffff1660e01b815260040161079a939291906113e7565b6020604051808303815f875af11580156107b6573d5f5f3e3d5ffd5b505050506040513d601f19601f820116820180604052508101906107da91906112ec565b610819576040517f08c379a000000000000000000000000000000000000000000000000000000000815260040161081090611361565b60405180910390fd5b5f60045f3373ffffffffffffffffffffffffffffffffffffffff1673ffffffffffffffffffffffffffffffffffffffff1681526020019081526020015f205f015411156108c3575f61086a33610c37565b90508060045f3373ffffffffffffffffffffffffffffffffffffffff1673ffffffffffffffffffffffffffffffffffffffff1681526020019081526020015f205f015f8282546108ba91906111c2565b92505081905550505b8060045f3373ffffffffffffffffffffffffffffffffffffffff1673ffffffffffffffffffffffffffffffffffffffff1681526020019081526020015f205f015f82825461091191906111c2565b925050819055504260045f3373ffffffffffffffffffffffffffffffffffffffff1673ffffffffffffffffffffffffffffffffffffffff1681526020019081526020015f20600101819055504260045f3373ffffffffffffffffffffffffffffffffffffffff1673ffffffffffffffffffffffffffffffffffffffff1681526020019081526020015f20600201819055503373ffffffffffffffffffffffffffffffffffffffff167f1449c6dd7851abc30abf37f57715f492010519147cc2652fbc38202c18a6ee9082426040516109ea92919061141c565b60405180910390a250565b5f60045f3373ffffffffffffffffffffffffffffffffffffffff1673ffffffffffffffffffffffffffffffffffffffff1681526020019081526020015f205f015411610a76576040517f08c379a0000000000000000000000000000000000000000000000000000000008152600401610a6d9061148d565b60405180910390fd5b5f610a8033610c37565b90505f8111610ac4576040517f08c379a0000000000000000000000000000000000000000000000000000000008152600401610abb906114f5565b60405180910390fd5b4260045f3373ffffffffffffffffffffffffffffffffffffffff1673ffffffffffffffffffffffffffffffffffffffff1681526020019081526020015f206002018190555060015f9054906101000a900473ffffffffffffffffffffffffffffffffffffffff1673ffffffffffffffffffffffffffffffffffffffff1663a9059cbb33836040518363ffffffff1660e01b8152600401610b65929190611290565b6020604051808303815f875af1158015610b81573d5f5f3e3d5ffd5b505050506040513d601f19601f82011682018060405250810190610ba591906112ec565b610be4576040517f08c379a0000000000000000000000000000000000000000000000000000000008152600401610bdb9061155d565b60405180910390fd5b3373ffffffffffffffffffffffffffffffffffffffff167ff01da32686223933d8a18a391060918c7f11a3648639edd87ae013e2e27317438242604051610c2c92919061141c565b60405180910390a250565b5f5f60045f8473ffffffffffffffffffffffffffffffffffffffff1673ffffffffffffffffffffffffffffffffffffffff1681526020019081526020015f206040518060600160405290815f82015481526020016001820154815260200160028201548152505090505f815f015103610cb3575f915050610d08565b5f816040015142610cc4919061125d565b90505f6103e8600254845f0151610cdb919061157b565b610ce591906115e9565b90506301e133808282610cf8919061157b565b610d0291906115e9565b93505050505b919050565b610d15610d8f565b5f73ffffffffffffffffffffffffffffffffffffffff168173ffffffffffffffffffffffffffffffffffffffff1603610d83576040517f08c379a0000000000000000000000000000000000000000000000000000000008152600401610d7a90611689565b60405180910390fd5b610d8c81610e0d565b50565b610d97610ece565b73ffffffffffffffffffffffffffffffffffffffff16610db56106c1565b73ffffffffffffffffffffffffffffffffffffffff1614610e0b576040517f08c379a0000000000000000000000000000000000000000000000000000000008152600401610e02906116f1565b60405180910390fd5b565b5f5f5f9054906101000a900473ffffffffffffffffffffffffffffffffffffffff169050815f5f6101000a81548173ffffffffffffffffffffffffffffffffffffffff021916908373ffffffffffffffffffffffffffffffffffffffff1602179055508173ffffffffffffffffffffffffffffffffffffffff168173ffffffffffffffffffffffffffffffffffffffff167f8be0079c531659141344cd1fd0a4f28419497f9722a3daafe3b4186f6b6457e060405160405180910390a35050565b5f33905090565b5f819050919050565b610ee781610ed5565b82525050565b5f602082019050610f005f830184610ede565b92915050565b5f5ffd5b5f73ffffffffffffffffffffffffffffffffffffffff82169050919050565b5f610f3382610f0a565b9050919050565b610f4381610f29565b8114610f4d575f5ffd5b50565b5f81359050610f5e81610f3a565b92915050565b5f60208284031215610f7957610f78610f06565b5b5f610f8684828501610f50565b91505092915050565b5f606082019050610fa25f830186610ede565b610faf6020830185610ede565b610fbc6040830184610ede565b949350505050565b610fcd81610ed5565b8114610fd7575f5ffd5b50565b5f81359050610fe881610fc4565b92915050565b5f6020828403121561100357611002610f06565b5b5f61101084828501610fda565b91505092915050565b5f819050919050565b5f61103c61103761103284610f0a565b611019565b610f0a565b9050919050565b5f61104d82611022565b9050919050565b5f61105e82611043565b9050919050565b61106e81611054565b82525050565b5f6020820190506110875f830184611065565b92915050565b61109681610f29565b82525050565b5f6020820190506110af5f83018461108d565b92915050565b5f82825260208201905092915050565b7f43616e6e6f7420756e7374616b65207a65726f000000000000000000000000005f82015250565b5f6110f96013836110b5565b9150611104826110c5565b602082019050919050565b5f6020820190508181035f830152611126816110ed565b9050919050565b7f4e6f7420656e6f756768207374616b65640000000000000000000000000000005f82015250565b5f6111616011836110b5565b915061116c8261112d565b602082019050919050565b5f6020820190508181035f83015261118e81611155565b9050919050565b7f4e487b71000000000000000000000000000000000000000000000000000000005f52601160045260245ffd5b5f6111cc82610ed5565b91506111d783610ed5565b92508282019050808211156111ef576111ee611195565b5b92915050565b7f5374616b696e6720706572696f64206e6f7420796574207061737365640000005f82015250565b5f611229601d836110b5565b9150611234826111f5565b602082019050919050565b5f6020820190508181035f8301526112568161121d565b9050919050565b5f61126782610ed5565b915061127283610ed5565b925082820390508181111561128a57611289611195565b5b92915050565b5f6040820190506112a35f83018561108d565b6112b06020830184610ede565b9392505050565b5f8115159050919050565b6112cb816112b7565b81146112d5575f5ffd5b50565b5f815190506112e6816112c2565b92915050565b5f6020828403121561130157611300610f06565b5b5f61130e848285016112d8565b91505092915050565b7f5472616e73666572206661696c656400000000000000000000000000000000005f82015250565b5f61134b600f836110b5565b915061135682611317565b602082019050919050565b5f6020820190508181035f8301526113788161133f565b9050919050565b7f43616e6e6f74207374616b65207a65726f0000000000000000000000000000005f82015250565b5f6113b36011836110b5565b91506113be8261137f565b602082019050919050565b5f6020820190508181035f8301526113e0816113a7565b9050919050565b5f6060820190506113fa5f83018661108d565b611407602083018561108d565b6114146040830184610ede565b949350505050565b5f60408201905061142f5f830185610ede565b61143c6020830184610ede565b9392505050565b7f4e6f207374616b6520666f756e640000000000000000000000000000000000005f82015250565b5f611477600e836110b5565b915061148282611443565b602082019050919050565b5f6020820190508181035f8301526114a48161146b565b9050919050565b7f4e6f2072657761726420796574000000000000000000000000000000000000005f82015250565b5f6114df600d836110b5565b91506114ea826114ab565b602082019050919050565b5f6020820190508181035f83015261150c816114d3565b9050919050565b7f526577617264207472616e73666572206661696c6564000000000000000000005f82015250565b5f6115476016836110b5565b915061155282611513565b602082019050919050565b5f6020820190508181035f8301526115748161153b565b9050919050565b5f61158582610ed5565b915061159083610ed5565b925082820261159e81610ed5565b915082820484148315176115b5576115b4611195565b5b5092915050565b7f4e487b71000000000000000000000000000000000000000000000000000000005f52601260045260245ffd5b5f6115f382610ed5565b91506115fe83610ed5565b92508261160e5761160d6115bc565b5b828204905092915050565b7f4f776e61626c653a206e6577206f776e657220697320746865207a65726f20615f8201527f6464726573730000000000000000000000000000000000000000000000000000602082015250565b5f6116736026836110b5565b915061167e82611619565b604082019050919050565b5f6020820190508181035f8301526116a081611667565b9050919050565b7f4f776e61626c653a2063616c6c6572206973206e6f7420746865206f776e65725f82015250565b5f6116db6020836110b5565b91506116e6826116a7565b602082019050919050565b5f6020820190508181035f830152611708816116cf565b905091905056fea2646970667358221220248745fedbfff70103f4f26043164c405fea12a2d6a595712e2435d02d878b6a64736f6c634300081e0033",
					"opcodes": "PUSH1 0x80 PUSH1 0x40 MSTORE PUSH1 0x64 PUSH1 0x2 SSTORE PUSH3 0x93A80 PUSH1 0x3 SSTORE CALLVALUE DUP1 ISZERO PUSH2 0x1B JUMPI PUSH0 PUSH0 REVERT JUMPDEST POP PUSH1 0x40 MLOAD PUSH2 0x1942 CODESIZE SUB DUP1 PUSH2 0x1942 DUP4 CODECOPY DUP2 DUP2 ADD PUSH1 0x40 MSTORE DUP2 ADD SWAP1 PUSH2 0x3D SWAP2 SWAP1 PUSH2 0x1C5 JUMP JUMPDEST PUSH2 0x59 PUSH2 0x4E PUSH2 0x9F PUSH1 0x20 SHL PUSH1 0x20 SHR JUMP JUMPDEST PUSH2 0xA6 PUSH1 0x20 SHL PUSH1 0x20 SHR JUMP JUMPDEST DUP1 PUSH1 0x1 PUSH0 PUSH2 0x100 EXP DUP2 SLOAD DUP2 PUSH20 0xFFFFFFFFFFFFFFFFFFFFFFFFFFFFFFFFFFFFFFFF MUL NOT AND SWAP1 DUP4 PUSH20 0xFFFFFFFFFFFFFFFFFFFFFFFFFFFFFFFFFFFFFFFF AND MUL OR SWAP1 SSTORE POP POP PUSH2 0x1F0 JUMP JUMPDEST PUSH0 CALLER SWAP1 POP SWAP1 JUMP JUMPDEST PUSH0 PUSH0 PUSH0 SWAP1 SLOAD SWAP1 PUSH2 0x100 EXP SWAP1 DIV PUSH20 0xFFFFFFFFFFFFFFFFFFFFFFFFFFFFFFFFFFFFFFFF AND SWAP1 POP DUP2 PUSH0 PUSH0 PUSH2 0x100 EXP DUP2 SLOAD DUP2 PUSH20 0xFFFFFFFFFFFFFFFFFFFFFFFFFFFFFFFFFFFFFFFF MUL NOT AND SWAP1 DUP4 PUSH20 0xFFFFFFFFFFFFFFFFFFFFFFFFFFFFFFFFFFFFFFFF AND MUL OR SWAP1 SSTORE POP DUP2 PUSH20 0xFFFFFFFFFFFFFFFFFFFFFFFFFFFFFFFFFFFFFFFF AND DUP2 PUSH20 0xFFFFFFFFFFFFFFFFFFFFFFFFFFFFFFFFFFFFFFFF AND PUSH32 0x8BE0079C531659141344CD1FD0A4F28419497F9722A3DAAFE3B4186F6B6457E0 PUSH1 0x40 MLOAD PUSH1 0x40 MLOAD DUP1 SWAP2 SUB SWAP1 LOG3 POP POP JUMP JUMPDEST PUSH0 PUSH0 REVERT JUMPDEST PUSH0 PUSH20 0xFFFFFFFFFFFFFFFFFFFFFFFFFFFFFFFFFFFFFFFF DUP3 AND SWAP1 POP SWAP2 SWAP1 POP JUMP JUMPDEST PUSH0 PUSH2 0x194 DUP3 PUSH2 0x16B JUMP JUMPDEST SWAP1 POP SWAP2 SWAP1 POP JUMP JUMPDEST PUSH2 0x1A4 DUP2 PUSH2 0x18A JUMP JUMPDEST DUP2 EQ PUSH2 0x1AE JUMPI PUSH0 PUSH0 REVERT JUMPDEST POP JUMP JUMPDEST PUSH0 DUP2 MLOAD SWAP1 POP PUSH2 0x1BF DUP2 PUSH2 0x19B JUMP JUMPDEST SWAP3 SWAP2 POP POP JUMP JUMPDEST PUSH0 PUSH1 0x20 DUP3 DUP5 SUB SLT ISZERO PUSH2 0x1DA JUMPI PUSH2 0x1D9 PUSH2 0x167 JUMP JUMPDEST JUMPDEST PUSH0 PUSH2 0x1E7 DUP5 DUP3 DUP6 ADD PUSH2 0x1B1 JUMP JUMPDEST SWAP2 POP POP SWAP3 SWAP2 POP POP JUMP JUMPDEST PUSH2 0x1745 DUP1 PUSH2 0x1FD PUSH0 CODECOPY PUSH0 RETURN INVALID PUSH1 0x80 PUSH1 0x40 MSTORE CALLVALUE DUP1 ISZERO PUSH2 0xF JUMPI PUSH0 PUSH0 REVERT JUMPDEST POP PUSH1 0x4 CALLDATASIZE LT PUSH2 0xF3 JUMPI PUSH0 CALLDATALOAD PUSH1 0xE0 SHR DUP1 PUSH4 0x7B0A47EE GT PUSH2 0x95 JUMPI DUP1 PUSH4 0xA694FC3A GT PUSH2 0x64 JUMPI DUP1 PUSH4 0xA694FC3A EQ PUSH2 0x24D JUMPI DUP1 PUSH4 0xB88A802F EQ PUSH2 0x269 JUMPI DUP1 PUSH4 0xD82E3962 EQ PUSH2 0x273 JUMPI DUP1 PUSH4 0xF2FDE38B EQ PUSH2 0x2A3 JUMPI PUSH2 0xF3 JUMP JUMPDEST DUP1 PUSH4 0x7B0A47EE EQ PUSH2 0x1D9 JUMPI DUP1 PUSH4 0x8A2FF9A2 EQ PUSH2 0x1F7 JUMPI DUP1 PUSH4 0x8DA5CB5B EQ PUSH2 0x213 JUMPI DUP1 PUSH4 0x9E447FC6 EQ PUSH2 0x231 JUMPI PUSH2 0xF3 JUMP JUMPDEST DUP1 PUSH4 0x5DCC9391 GT PUSH2 0xD1 JUMPI DUP1 PUSH4 0x5DCC9391 EQ PUSH2 0x163 JUMPI DUP1 PUSH4 0x60217267 EQ PUSH2 0x181 JUMPI DUP1 PUSH4 0x715018A6 EQ PUSH2 0x1B1 JUMPI DUP1 PUSH4 0x72F702F3 EQ PUSH2 0x1BB JUMPI PUSH2 0xF3 JUMP JUMPDEST DUP1 PUSH4 0x8AE7E54 EQ PUSH2 0xF7 JUMPI DUP1 PUSH4 0x16934FC4 EQ PUSH2 0x115 JUMPI DUP1 PUSH4 0x2E17DE78 EQ PUSH2 0x147 JUMPI JUMPDEST PUSH0 PUSH0 REVERT JUMPDEST PUSH2 0xFF PUSH2 0x2BF JUMP JUMPDEST PUSH1 0x40 MLOAD PUSH2 0x10C SWAP2 SWAP1 PUSH2 0xEED JUMP JUMPDEST PUSH1 0x40 MLOAD DUP1 SWAP2 SUB SWAP1 RETURN JUMPDEST PUSH2 0x12F PUSH1 0x4 DUP1 CALLDATASIZE SUB DUP2 ADD SWAP1 PUSH2 0x12A SWAP2 SWAP1 PUSH2 0xF64 JUMP JUMPDEST PUSH2 0x2C5 JUMP JUMPDEST PUSH1 0x40 MLOAD PUSH2 0x13E SWAP4 SWAP3 SWAP2 SWAP1 PUSH2 0xF8F JUMP JUMPDEST PUSH1 0x40 MLOAD DUP1 SWAP2 SUB SWAP1 RETURN JUMPDEST PUSH2 0x161 PUSH1 0x4 DUP1 CALLDATASIZE SUB DUP2 ADD SWAP1 PUSH2 0x15C SWAP2 SWAP1 PUSH2 0xFEE JUMP JUMPDEST PUSH2 0x2EB JUMP JUMPDEST STOP JUMPDEST PUSH2 0x16B PUSH2 0x621 JUMP JUMPDEST PUSH1 0x40 MLOAD PUSH2 0x178 SWAP2 SWAP1 PUSH2 0xEED JUMP JUMPDEST PUSH1 0x40 MLOAD DUP1 SWAP2 SUB SWAP1 RETURN JUMPDEST PUSH2 0x19B PUSH1 0x4 DUP1 CALLDATASIZE SUB DUP2 ADD SWAP1 PUSH2 0x196 SWAP2 SWAP1 PUSH2 0xF64 JUMP JUMPDEST PUSH2 0x629 JUMP JUMPDEST PUSH1 0x40 MLOAD PUSH2 0x1A8 SWAP2 SWAP1 PUSH2 0xEED JUMP JUMPDEST PUSH1 0x40 MLOAD DUP1 SWAP2 SUB SWAP1 RETURN JUMPDEST PUSH2 0x1B9 PUSH2 0x671 JUMP JUMPDEST STOP JUMPDEST PUSH2 0x1C3 PUSH2 0x684 JUMP JUMPDEST PUSH1 0x40 MLOAD PUSH2 0x1D0 SWAP2 SWAP1 PUSH2 0x1074 JUMP JUMPDEST PUSH1 0x40 MLOAD DUP1 SWAP2 SUB SWAP1 RETURN JUMPDEST PUSH2 0x1E1 PUSH2 0x6A9 JUMP JUMPDEST PUSH1 0x40 MLOAD PUSH2 0x1EE SWAP2 SWAP1 PUSH2 0xEED JUMP JUMPDEST PUSH1 0x40 MLOAD DUP1 SWAP2 SUB SWAP1 RETURN JUMPDEST PUSH2 0x211 PUSH1 0x4 DUP1 CALLDATASIZE SUB DUP2 ADD SWAP1 PUSH2 0x20C SWAP2 SWAP1 PUSH2 0xFEE JUMP JUMPDEST PUSH2 0x6AF JUMP JUMPDEST STOP JUMPDEST PUSH2 0x21B PUSH2 0x6C1 JUMP JUMPDEST PUSH1 0x40 MLOAD PUSH2 0x228 SWAP2 SWAP1 PUSH2 0x109C JUMP JUMPDEST PUSH1 0x40 MLOAD DUP1 SWAP2 SUB SWAP1 RETURN JUMPDEST PUSH2 0x24B PUSH1 0x4 DUP1 CALLDATASIZE SUB DUP2 ADD SWAP1 PUSH2 0x246 SWAP2 SWAP1 PUSH2 0xFEE JUMP JUMPDEST PUSH2 0x6E8 JUMP JUMPDEST STOP JUMPDEST PUSH2 0x267 PUSH1 0x4 DUP1 CALLDATASIZE SUB DUP2 ADD SWAP1 PUSH2 0x262 SWAP2 SWAP1 PUSH2 0xFEE JUMP JUMPDEST PUSH2 0x6FA JUMP JUMPDEST STOP JUMPDEST PUSH2 0x271 PUSH2 0x9F5 JUMP JUMPDEST STOP JUMPDEST PUSH2 0x28D PUSH1 0x4 DUP1 CALLDATASIZE SUB DUP2 ADD SWAP1 PUSH2 0x288 SWAP2 SWAP1 PUSH2 0xF64 JUMP JUMPDEST PUSH2 0xC37 JUMP JUMPDEST PUSH1 0x40 MLOAD PUSH2 0x29A SWAP2 SWAP1 PUSH2 0xEED JUMP JUMPDEST PUSH1 0x40 MLOAD DUP1 SWAP2 SUB SWAP1 RETURN JUMPDEST PUSH2 0x2BD PUSH1 0x4 DUP1 CALLDATASIZE SUB DUP2 ADD SWAP1 PUSH2 0x2B8 SWAP2 SWAP1 PUSH2 0xF64 JUMP JUMPDEST PUSH2 0xD0D JUMP JUMPDEST STOP JUMPDEST PUSH1 0x3 SLOAD DUP2 JUMP JUMPDEST PUSH1 0x4 PUSH1 0x20 MSTORE DUP1 PUSH0 MSTORE PUSH1 0x40 PUSH0 KECCAK256 PUSH0 SWAP2 POP SWAP1 POP DUP1 PUSH0 ADD SLOAD SWAP1 DUP1 PUSH1 0x1 ADD SLOAD SWAP1 DUP1 PUSH1 0x2 ADD SLOAD SWAP1 POP DUP4 JUMP JUMPDEST PUSH0 DUP2 GT PUSH2 0x32D JUMPI PUSH1 0x40 MLOAD PUSH32 0x8C379A000000000000000000000000000000000000000000000000000000000 DUP2 MSTORE PUSH1 0x4 ADD PUSH2 0x324 SWAP1 PUSH2 0x110F JUMP JUMPDEST PUSH1 0x40 MLOAD DUP1 SWAP2 SUB SWAP1 REVERT JUMPDEST DUP1 PUSH1 0x4 PUSH0 CALLER PUSH20 0xFFFFFFFFFFFFFFFFFFFFFFFFFFFFFFFFFFFFFFFF AND PUSH20 0xFFFFFFFFFFFFFFFFFFFFFFFFFFFFFFFFFFFFFFFF AND DUP2 MSTORE PUSH1 0x20 ADD SWAP1 DUP2 MSTORE PUSH1 0x20 ADD PUSH0 KECCAK256 PUSH0 ADD SLOAD LT ISZERO PUSH2 0x3AF JUMPI PUSH1 0x40 MLOAD PUSH32 0x8C379A000000000000000000000000000000000000000000000000000000000 DUP2 MSTORE PUSH1 0x4 ADD PUSH2 0x3A6 SWAP1 PUSH2 0x1177 JUMP JUMPDEST PUSH1 0x40 MLOAD DUP1 SWAP2 SUB SWAP1 REVERT JUMPDEST PUSH1 0x3 SLOAD PUSH1 0x4 PUSH0 CALLER PUSH20 0xFFFFFFFFFFFFFFFFFFFFFFFFFFFFFFFFFFFFFFFF AND PUSH20 0xFFFFFFFFFFFFFFFFFFFFFFFFFFFFFFFFFFFFFFFF AND DUP2 MSTORE PUSH1 0x20 ADD SWAP1 DUP2 MSTORE PUSH1 0x20 ADD PUSH0 KECCAK256 PUSH1 0x1 ADD SLOAD PUSH2 0x3FD SWAP2 SWAP1 PUSH2 0x11C2 JUMP JUMPDEST TIMESTAMP LT ISZERO PUSH2 0x43F JUMPI PUSH1 0x40 MLOAD PUSH32 0x8C379A000000000000000000000000000000000000000000000000000000000 DUP2 MSTORE PUSH1 0x4 ADD PUSH2 0x436 SWAP1 PUSH2 0x123F JUMP JUMPDEST PUSH1 0x40 MLOAD DUP1 SWAP2 SUB SWAP1 REVERT JUMPDEST PUSH0 PUSH2 0x449 CALLER PUSH2 0xC37 JUMP JUMPDEST SWAP1 POP DUP2 PUSH1 0x4 PUSH0 CALLER PUSH20 0xFFFFFFFFFFFFFFFFFFFFFFFFFFFFFFFFFFFFFFFF AND PUSH20 0xFFFFFFFFFFFFFFFFFFFFFFFFFFFFFFFFFFFFFFFF AND DUP2 MSTORE PUSH1 0x20 ADD SWAP1 DUP2 MSTORE PUSH1 0x20 ADD PUSH0 KECCAK256 PUSH0 ADD PUSH0 DUP3 DUP3 SLOAD PUSH2 0x499 SWAP2 SWAP1 PUSH2 0x125D JUMP JUMPDEST SWAP3 POP POP DUP2 SWAP1 SSTORE POP TIMESTAMP PUSH1 0x4 PUSH0 CALLER PUSH20 0xFFFFFFFFFFFFFFFFFFFFFFFFFFFFFFFFFFFFFFFF AND PUSH20 0xFFFFFFFFFFFFFFFFFFFFFFFFFFFFFFFFFFFFFFFF AND DUP2 MSTORE PUSH1 0x20 ADD SWAP1 DUP2 MSTORE PUSH1 0x20 ADD PUSH0 KECCAK256 PUSH1 0x2 ADD DUP2 SWAP1 SSTORE POP PUSH1 0x1 PUSH0 SWAP1 SLOAD SWAP1 PUSH2 0x100 EXP SWAP1 DIV PUSH20 0xFFFFFFFFFFFFFFFFFFFFFFFFFFFFFFFFFFFFFFFF AND PUSH20 0xFFFFFFFFFFFFFFFFFFFFFFFFFFFFFFFFFFFFFFFF AND PUSH4 0xA9059CBB CALLER DUP4 DUP6 PUSH2 0x52F SWAP2 SWAP1 PUSH2 0x11C2 JUMP JUMPDEST PUSH1 0x40 MLOAD DUP4 PUSH4 0xFFFFFFFF AND PUSH1 0xE0 SHL DUP2 MSTORE PUSH1 0x4 ADD PUSH2 0x54C SWAP3 SWAP2 SWAP1 PUSH2 0x1290 JUMP JUMPDEST PUSH1 0x20 PUSH1 0x40 MLOAD DUP1 DUP4 SUB DUP2 PUSH0 DUP8 GAS CALL ISZERO DUP1 ISZERO PUSH2 0x568 JUMPI RETURNDATASIZE PUSH0 PUSH0 RETURNDATACOPY RETURNDATASIZE PUSH0 REVERT JUMPDEST POP POP POP POP PUSH1 0x40 MLOAD RETURNDATASIZE PUSH1 0x1F NOT PUSH1 0x1F DUP3 ADD AND DUP3 ADD DUP1 PUSH1 0x40 MSTORE POP DUP2 ADD SWAP1 PUSH2 0x58C SWAP2 SWAP1 PUSH2 0x12EC JUMP JUMPDEST PUSH2 0x5CB JUMPI PUSH1 0x40 MLOAD PUSH32 0x8C379A000000000000000000000000000000000000000000000000000000000 DUP2 MSTORE PUSH1 0x4 ADD PUSH2 0x5C2 SWAP1 PUSH2 0x1361 JUMP JUMPDEST PUSH1 0x40 MLOAD DUP1 SWAP2 SUB SWAP1 REVERT JUMPDEST CALLER PUSH20 0xFFFFFFFFFFFFFFFFFFFFFFFFFFFFFFFFFFFFFFFF AND PUSH32 0x204FCCF0D92ED8D48F204ADB39B2E81E92BAD0DEDB93F5716CA9478CFB57DE00 DUP4 DUP4 TIMESTAMP PUSH1 0x40 MLOAD PUSH2 0x615 SWAP4 SWAP3 SWAP2 SWAP1 PUSH2 0xF8F JUMP JUMPDEST PUSH1 0x40 MLOAD DUP1 SWAP2 SUB SWAP1 LOG2 POP POP JUMP JUMPDEST PUSH4 0x1E13380 DUP2 JUMP JUMPDEST PUSH0 PUSH1 0x4 PUSH0 DUP4 PUSH20 0xFFFFFFFFFFFFFFFFFFFFFFFFFFFFFFFFFFFFFFFF AND PUSH20 0xFFFFFFFFFFFFFFFFFFFFFFFFFFFFFFFFFFFFFFFF AND DUP2 MSTORE PUSH1 0x20 ADD SWAP1 DUP2 MSTORE PUSH1 0x20 ADD PUSH0 KECCAK256 PUSH0 ADD SLOAD SWAP1 POP SWAP2 SWAP1 POP JUMP JUMPDEST PUSH2 0x679 PUSH2 0xD8F JUMP JUMPDEST PUSH2 0x682 PUSH0 PUSH2 0xE0D JUMP JUMPDEST JUMP JUMPDEST PUSH1 0x1 PUSH0 SWAP1 SLOAD SWAP1 PUSH2 0x100 EXP SWAP1 DIV PUSH20 0xFFFFFFFFFFFFFFFFFFFFFFFFFFFFFFFFFFFFFFFF AND DUP2 JUMP JUMPDEST PUSH1 0x2 SLOAD DUP2 JUMP JUMPDEST PUSH2 0x6B7 PUSH2 0xD8F JUMP JUMPDEST DUP1 PUSH1 0x3 DUP2 SWAP1 SSTORE POP POP JUMP JUMPDEST PUSH0 PUSH0 PUSH0 SWAP1 SLOAD SWAP1 PUSH2 0x100 EXP SWAP1 DIV PUSH20 0xFFFFFFFFFFFFFFFFFFFFFFFFFFFFFFFFFFFFFFFF AND SWAP1 POP SWAP1 JUMP JUMPDEST PUSH2 0x6F0 PUSH2 0xD8F JUMP JUMPDEST DUP1 PUSH1 0x2 DUP2 SWAP1 SSTORE POP POP JUMP JUMPDEST PUSH0 DUP2 GT PUSH2 0x73C JUMPI PUSH1 0x40 MLOAD PUSH32 0x8C379A000000000000000000000000000000000000000000000000000000000 DUP2 MSTORE PUSH1 0x4 ADD PUSH2 0x733 SWAP1 PUSH2 0x13C9 JUMP JUMPDEST PUSH1 0x40 MLOAD DUP1 SWAP2 SUB SWAP1 REVERT JUMPDEST PUSH1 0x1 PUSH0 SWAP1 SLOAD SWAP1 PUSH2 0x100 EXP SWAP1 DIV PUSH20 0xFFFFFFFFFFFFFFFFFFFFFFFFFFFFFFFFFFFFFFFF AND PUSH20 0xFFFFFFFFFFFFFFFFFFFFFFFFFFFFFFFFFFFFFFFF AND PUSH4 0x23B872DD CALLER ADDRESS DUP5 PUSH1 0x40 MLOAD DUP5 PUSH4 0xFFFFFFFF AND PUSH1 0xE0 SHL DUP2 MSTORE PUSH1 0x4 ADD PUSH2 0x79A SWAP4 SWAP3 SWAP2 SWAP1 PUSH2 0x13E7 JUMP JUMPDEST PUSH1 0x20 PUSH1 0x40 MLOAD DUP1 DUP4 SUB DUP2 PUSH0 DUP8 GAS CALL ISZERO DUP1 ISZERO PUSH2 0x7B6 JUMPI RETURNDATASIZE PUSH0 PUSH0 RETURNDATACOPY RETURNDATASIZE PUSH0 REVERT JUMPDEST POP POP POP POP PUSH1 0x40 MLOAD RETURNDATASIZE PUSH1 0x1F NOT PUSH1 0x1F DUP3 ADD AND DUP3 ADD DUP1 PUSH1 0x40 MSTORE POP DUP2 ADD SWAP1 PUSH2 0x7DA SWAP2 SWAP1 PUSH2 0x12EC JUMP JUMPDEST PUSH2 0x819 JUMPI PUSH1 0x40 MLOAD PUSH32 0x8C379A000000000000000000000000000000000000000000000000000000000 DUP2 MSTORE PUSH1 0x4 ADD PUSH2 0x810 SWAP1 PUSH2 0x1361 JUMP JUMPDEST PUSH1 0x40 MLOAD DUP1 SWAP2 SUB SWAP1 REVERT JUMPDEST PUSH0 PUSH1 0x4 PUSH0 CALLER PUSH20 0xFFFFFFFFFFFFFFFFFFFFFFFFFFFFFFFFFFFFFFFF AND PUSH20 0xFFFFFFFFFFFFFFFFFFFFFFFFFFFFFFFFFFFFFFFF AND DUP2 MSTORE PUSH1 0x20 ADD SWAP1 DUP2 MSTORE PUSH1 0x20 ADD PUSH0 KECCAK256 PUSH0 ADD SLOAD GT ISZERO PUSH2 0x8C3 JUMPI PUSH0 PUSH2 0x86A CALLER PUSH2 0xC37 JUMP JUMPDEST SWAP1 POP DUP1 PUSH1 0x4 PUSH0 CALLER PUSH20 0xFFFFFFFFFFFFFFFFFFFFFFFFFFFFFFFFFFFFFFFF AND PUSH20 0xFFFFFFFFFFFFFFFFFFFFFFFFFFFFFFFFFFFFFFFF AND DUP2 MSTORE PUSH1 0x20 ADD SWAP1 DUP2 MSTORE PUSH1 0x20 ADD PUSH0 KECCAK256 PUSH0 ADD PUSH0 DUP3 DUP3 SLOAD PUSH2 0x8BA SWAP2 SWAP1 PUSH2 0x11C2 JUMP JUMPDEST SWAP3 POP POP DUP2 SWAP1 SSTORE POP POP JUMPDEST DUP1 PUSH1 0x4 PUSH0 CALLER PUSH20 0xFFFFFFFFFFFFFFFFFFFFFFFFFFFFFFFFFFFFFFFF AND PUSH20 0xFFFFFFFFFFFFFFFFFFFFFFFFFFFFFFFFFFFFFFFF AND DUP2 MSTORE PUSH1 0x20 ADD SWAP1 DUP2 MSTORE PUSH1 0x20 ADD PUSH0 KECCAK256 PUSH0 ADD PUSH0 DUP3 DUP3 SLOAD PUSH2 0x911 SWAP2 SWAP1 PUSH2 0x11C2 JUMP JUMPDEST SWAP3 POP POP DUP2 SWAP1 SSTORE POP TIMESTAMP PUSH1 0x4 PUSH0 CALLER PUSH20 0xFFFFFFFFFFFFFFFFFFFFFFFFFFFFFFFFFFFFFFFF AND PUSH20 0xFFFFFFFFFFFFFFFFFFFFFFFFFFFFFFFFFFFFFFFF AND DUP2 MSTORE PUSH1 0x20 ADD SWAP1 DUP2 MSTORE PUSH1 0x20 ADD PUSH0 KECCAK256 PUSH1 0x1 ADD DUP2 SWAP1 SSTORE POP TIMESTAMP PUSH1 0x4 PUSH0 CALLER PUSH20 0xFFFFFFFFFFFFFFFFFFFFFFFFFFFFFFFFFFFFFFFF AND PUSH20 0xFFFFFFFFFFFFFFFFFFFFFFFFFFFFFFFFFFFFFFFF AND DUP2 MSTORE PUSH1 0x20 ADD SWAP1 DUP2 MSTORE PUSH1 0x20 ADD PUSH0 KECCAK256 PUSH1 0x2 ADD DUP2 SWAP1 SSTORE POP CALLER PUSH20 0xFFFFFFFFFFFFFFFFFFFFFFFFFFFFFFFFFFFFFFFF AND PUSH32 0x1449C6DD7851ABC30ABF37F57715F492010519147CC2652FBC38202C18A6EE90 DUP3 TIMESTAMP PUSH1 0x40 MLOAD PUSH2 0x9EA SWAP3 SWAP2 SWAP1 PUSH2 0x141C JUMP JUMPDEST PUSH1 0x40 MLOAD DUP1 SWAP2 SUB SWAP1 LOG2 POP JUMP JUMPDEST PUSH0 PUSH1 0x4 PUSH0 CALLER PUSH20 0xFFFFFFFFFFFFFFFFFFFFFFFFFFFFFFFFFFFFFFFF AND PUSH20 0xFFFFFFFFFFFFFFFFFFFFFFFFFFFFFFFFFFFFFFFF AND DUP2 MSTORE PUSH1 0x20 ADD SWAP1 DUP2 MSTORE PUSH1 0x20 ADD PUSH0 KECCAK256 PUSH0 ADD SLOAD GT PUSH2 0xA76 JUMPI PUSH1 0x40 MLOAD PUSH32 0x8C379A000000000000000000000000000000000000000000000000000000000 DUP2 MSTORE PUSH1 0x4 ADD PUSH2 0xA6D SWAP1 PUSH2 0x148D JUMP JUMPDEST PUSH1 0x40 MLOAD DUP1 SWAP2 SUB SWAP1 REVERT JUMPDEST PUSH0 PUSH2 0xA80 CALLER PUSH2 0xC37 JUMP JUMPDEST SWAP1 POP PUSH0 DUP2 GT PUSH2 0xAC4 JUMPI PUSH1 0x40 MLOAD PUSH32 0x8C379A000000000000000000000000000000000000000000000000000000000 DUP2 MSTORE PUSH1 0x4 ADD PUSH2 0xABB SWAP1 PUSH2 0x14F5 JUMP JUMPDEST PUSH1 0x40 MLOAD DUP1 SWAP2 SUB SWAP1 REVERT JUMPDEST TIMESTAMP PUSH1 0x4 PUSH0 CALLER PUSH20 0xFFFFFFFFFFFFFFFFFFFFFFFFFFFFFFFFFFFFFFFF AND PUSH20 0xFFFFFFFFFFFFFFFFFFFFFFFFFFFFFFFFFFFFFFFF AND DUP2 MSTORE PUSH1 0x20 ADD SWAP1 DUP2 MSTORE PUSH1 0x20 ADD PUSH0 KECCAK256 PUSH1 0x2 ADD DUP2 SWAP1 SSTORE POP PUSH1 0x1 PUSH0 SWAP1 SLOAD SWAP1 PUSH2 0x100 EXP SWAP1 DIV PUSH20 0xFFFFFFFFFFFFFFFFFFFFFFFFFFFFFFFFFFFFFFFF AND PUSH20 0xFFFFFFFFFFFFFFFFFFFFFFFFFFFFFFFFFFFFFFFF AND PUSH4 0xA9059CBB CALLER DUP4 PUSH1 0x40 MLOAD DUP4 PUSH4 0xFFFFFFFF AND PUSH1 0xE0 SHL DUP2 MSTORE PUSH1 0x4 ADD PUSH2 0xB65 SWAP3 SWAP2 SWAP1 PUSH2 0x1290 JUMP JUMPDEST PUSH1 0x20 PUSH1 0x40 MLOAD DUP1 DUP4 SUB DUP2 PUSH0 DUP8 GAS CALL ISZERO DUP1 ISZERO PUSH2 0xB81 JUMPI RETURNDATASIZE PUSH0 PUSH0 RETURNDATACOPY RETURNDATASIZE PUSH0 REVERT JUMPDEST POP POP POP POP PUSH1 0x40 MLOAD RETURNDATASIZE PUSH1 0x1F NOT PUSH1 0x1F DUP3 ADD AND DUP3 ADD DUP1 PUSH1 0x40 MSTORE POP DUP2 ADD SWAP1 PUSH2 0xBA5 SWAP2 SWAP1 PUSH2 0x12EC JUMP JUMPDEST PUSH2 0xBE4 JUMPI PUSH1 0x40 MLOAD PUSH32 0x8C379A000000000000000000000000000000000000000000000000000000000 DUP2 MSTORE PUSH1 0x4 ADD PUSH2 0xBDB SWAP1 PUSH2 0x155D JUMP JUMPDEST PUSH1 0x40 MLOAD DUP1 SWAP2 SUB SWAP1 REVERT JUMPDEST CALLER PUSH20 0xFFFFFFFFFFFFFFFFFFFFFFFFFFFFFFFFFFFFFFFF AND PUSH32 0xF01DA32686223933D8A18A391060918C7F11A3648639EDD87AE013E2E2731743 DUP3 TIMESTAMP PUSH1 0x40 MLOAD PUSH2 0xC2C SWAP3 SWAP2 SWAP1 PUSH2 0x141C JUMP JUMPDEST PUSH1 0x40 MLOAD DUP1 SWAP2 SUB SWAP1 LOG2 POP JUMP JUMPDEST PUSH0 PUSH0 PUSH1 0x4 PUSH0 DUP5 PUSH20 0xFFFFFFFFFFFFFFFFFFFFFFFFFFFFFFFFFFFFFFFF AND PUSH20 0xFFFFFFFFFFFFFFFFFFFFFFFFFFFFFFFFFFFFFFFF AND DUP2 MSTORE PUSH1 0x20 ADD SWAP1 DUP2 MSTORE PUSH1 0x20 ADD PUSH0 KECCAK256 PUSH1 0x40 MLOAD DUP1 PUSH1 0x60 ADD PUSH1 0x40 MSTORE SWAP1 DUP2 PUSH0 DUP3 ADD SLOAD DUP2 MSTORE PUSH1 0x20 ADD PUSH1 0x1 DUP3 ADD SLOAD DUP2 MSTORE PUSH1 0x20 ADD PUSH1 0x2 DUP3 ADD SLOAD DUP2 MSTORE POP POP SWAP1 POP PUSH0 DUP2 PUSH0 ADD MLOAD SUB PUSH2 0xCB3 JUMPI PUSH0 SWAP2 POP POP PUSH2 0xD08 JUMP JUMPDEST PUSH0 DUP2 PUSH1 0x40 ADD MLOAD TIMESTAMP PUSH2 0xCC4 SWAP2 SWAP1 PUSH2 0x125D JUMP JUMPDEST SWAP1 POP PUSH0 PUSH2 0x3E8 PUSH1 0x2 SLOAD DUP5 PUSH0 ADD MLOAD PUSH2 0xCDB SWAP2 SWAP1 PUSH2 0x157B JUMP JUMPDEST PUSH2 0xCE5 SWAP2 SWAP1 PUSH2 0x15E9 JUMP JUMPDEST SWAP1 POP PUSH4 0x1E13380 DUP3 DUP3 PUSH2 0xCF8 SWAP2 SWAP1 PUSH2 0x157B JUMP JUMPDEST PUSH2 0xD02 SWAP2 SWAP1 PUSH2 0x15E9 JUMP JUMPDEST SWAP4 POP POP POP POP JUMPDEST SWAP2 SWAP1 POP JUMP JUMPDEST PUSH2 0xD15 PUSH2 0xD8F JUMP JUMPDEST PUSH0 PUSH20 0xFFFFFFFFFFFFFFFFFFFFFFFFFFFFFFFFFFFFFFFF AND DUP2 PUSH20 0xFFFFFFFFFFFFFFFFFFFFFFFFFFFFFFFFFFFFFFFF AND SUB PUSH2 0xD83 JUMPI PUSH1 0x40 MLOAD PUSH32 0x8C379A000000000000000000000000000000000000000000000000000000000 DUP2 MSTORE PUSH1 0x4 ADD PUSH2 0xD7A SWAP1 PUSH2 0x1689 JUMP JUMPDEST PUSH1 0x40 MLOAD DUP1 SWAP2 SUB SWAP1 REVERT JUMPDEST PUSH2 0xD8C DUP2 PUSH2 0xE0D JUMP JUMPDEST POP JUMP JUMPDEST PUSH2 0xD97 PUSH2 0xECE JUMP JUMPDEST PUSH20 0xFFFFFFFFFFFFFFFFFFFFFFFFFFFFFFFFFFFFFFFF AND PUSH2 0xDB5 PUSH2 0x6C1 JUMP JUMPDEST PUSH20 0xFFFFFFFFFFFFFFFFFFFFFFFFFFFFFFFFFFFFFFFF AND EQ PUSH2 0xE0B JUMPI PUSH1 0x40 MLOAD PUSH32 0x8C379A000000000000000000000000000000000000000000000000000000000 DUP2 MSTORE PUSH1 0x4 ADD PUSH2 0xE02 SWAP1 PUSH2 0x16F1 JUMP JUMPDEST PUSH1 0x40 MLOAD DUP1 SWAP2 SUB SWAP1 REVERT JUMPDEST JUMP JUMPDEST PUSH0 PUSH0 PUSH0 SWAP1 SLOAD SWAP1 PUSH2 0x100 EXP SWAP1 DIV PUSH20 0xFFFFFFFFFFFFFFFFFFFFFFFFFFFFFFFFFFFFFFFF AND SWAP1 POP DUP2 PUSH0 PUSH0 PUSH2 0x100 EXP DUP2 SLOAD DUP2 PUSH20 0xFFFFFFFFFFFFFFFFFFFFFFFFFFFFFFFFFFFFFFFF MUL NOT AND SWAP1 DUP4 PUSH20 0xFFFFFFFFFFFFFFFFFFFFFFFFFFFFFFFFFFFFFFFF AND MUL OR SWAP1 SSTORE POP DUP2 PUSH20 0xFFFFFFFFFFFFFFFFFFFFFFFFFFFFFFFFFFFFFFFF AND DUP2 PUSH20 0xFFFFFFFFFFFFFFFFFFFFFFFFFFFFFFFFFFFFFFFF AND PUSH32 0x8BE0079C531659141344CD1FD0A4F28419497F9722A3DAAFE3B4186F6B6457E0 PUSH1 0x40 MLOAD PUSH1 0x40 MLOAD DUP1 SWAP2 SUB SWAP1 LOG3 POP POP JUMP JUMPDEST PUSH0 CALLER SWAP1 POP SWAP1 JUMP JUMPDEST PUSH0 DUP2 SWAP1 POP SWAP2 SWAP1 POP JUMP JUMPDEST PUSH2 0xEE7 DUP2 PUSH2 0xED5 JUMP JUMPDEST DUP3 MSTORE POP POP JUMP JUMPDEST PUSH0 PUSH1 0x20 DUP3 ADD SWAP1 POP PUSH2 0xF00 PUSH0 DUP4 ADD DUP5 PUSH2 0xEDE JUMP JUMPDEST SWAP3 SWAP2 POP POP JUMP JUMPDEST PUSH0 PUSH0 REVERT JUMPDEST PUSH0 PUSH20 0xFFFFFFFFFFFFFFFFFFFFFFFFFFFFFFFFFFFFFFFF DUP3 AND SWAP1 POP SWAP2 SWAP1 POP JUMP JUMPDEST PUSH0 PUSH2 0xF33 DUP3 PUSH2 0xF0A JUMP JUMPDEST SWAP1 POP SWAP2 SWAP1 POP JUMP JUMPDEST PUSH2 0xF43 DUP2 PUSH2 0xF29 JUMP JUMPDEST DUP2 EQ PUSH2 0xF4D JUMPI PUSH0 PUSH0 REVERT JUMPDEST POP JUMP JUMPDEST PUSH0 DUP2 CALLDATALOAD SWAP1 POP PUSH2 0xF5E DUP2 PUSH2 0xF3A JUMP JUMPDEST SWAP3 SWAP2 POP POP JUMP JUMPDEST PUSH0 PUSH1 0x20 DUP3 DUP5 SUB SLT ISZERO PUSH2 0xF79 JUMPI PUSH2 0xF78 PUSH2 0xF06 JUMP JUMPDEST JUMPDEST PUSH0 PUSH2 0xF86 DUP5 DUP3 DUP6 ADD PUSH2 0xF50 JUMP JUMPDEST SWAP2 POP POP SWAP3 SWAP2 POP POP JUMP JUMPDEST PUSH0 PUSH1 0x60 DUP3 ADD SWAP1 POP PUSH2 0xFA2 PUSH0 DUP4 ADD DUP7 PUSH2 0xEDE JUMP JUMPDEST PUSH2 0xFAF PUSH1 0x20 DUP4 ADD DUP6 PUSH2 0xEDE JUMP JUMPDEST PUSH2 0xFBC PUSH1 0x40 DUP4 ADD DUP5 PUSH2 0xEDE JUMP JUMPDEST SWAP5 SWAP4 POP POP POP POP JUMP JUMPDEST PUSH2 0xFCD DUP2 PUSH2 0xED5 JUMP JUMPDEST DUP2 EQ PUSH2 0xFD7 JUMPI PUSH0 PUSH0 REVERT JUMPDEST POP JUMP JUMPDEST PUSH0 DUP2 CALLDATALOAD SWAP1 POP PUSH2 0xFE8 DUP2 PUSH2 0xFC4 JUMP JUMPDEST SWAP3 SWAP2 POP POP JUMP JUMPDEST PUSH0 PUSH1 0x20 DUP3 DUP5 SUB SLT ISZERO PUSH2 0x1003 JUMPI PUSH2 0x1002 PUSH2 0xF06 JUMP JUMPDEST JUMPDEST PUSH0 PUSH2 0x1010 DUP5 DUP3 DUP6 ADD PUSH2 0xFDA JUMP JUMPDEST SWAP2 POP POP SWAP3 SWAP2 POP POP JUMP JUMPDEST PUSH0 DUP2 SWAP1 POP SWAP2 SWAP1 POP JUMP JUMPDEST PUSH0 PUSH2 0x103C PUSH2 0x1037 PUSH2 0x1032 DUP5 PUSH2 0xF0A JUMP JUMPDEST PUSH2 0x1019 JUMP JUMPDEST PUSH2 0xF0A JUMP JUMPDEST SWAP1 POP SWAP2 SWAP1 POP JUMP JUMPDEST PUSH0 PUSH2 0x104D DUP3 PUSH2 0x1022 JUMP JUMPDEST SWAP1 POP SWAP2 SWAP1 POP JUMP JUMPDEST PUSH0 PUSH2 0x105E DUP3 PUSH2 0x1043 JUMP JUMPDEST SWAP1 POP SWAP2 SWAP1 POP JUMP JUMPDEST PUSH2 0x106E DUP2 PUSH2 0x1054 JUMP JUMPDEST DUP3 MSTORE POP POP JUMP JUMPDEST PUSH0 PUSH1 0x20 DUP3 ADD SWAP1 POP PUSH2 0x1087 PUSH0 DUP4 ADD DUP5 PUSH2 0x1065 JUMP JUMPDEST SWAP3 SWAP2 POP POP JUMP JUMPDEST PUSH2 0x1096 DUP2 PUSH2 0xF29 JUMP JUMPDEST DUP3 MSTORE POP POP JUMP JUMPDEST PUSH0 PUSH1 0x20 DUP3 ADD SWAP1 POP PUSH2 0x10AF PUSH0 DUP4 ADD DUP5 PUSH2 0x108D JUMP JUMPDEST SWAP3 SWAP2 POP POP JUMP JUMPDEST PUSH0 DUP3 DUP3 MSTORE PUSH1 0x20 DUP3 ADD SWAP1 POP SWAP3 SWAP2 POP POP JUMP JUMPDEST PUSH32 0x43616E6E6F7420756E7374616B65207A65726F00000000000000000000000000 PUSH0 DUP3 ADD MSTORE POP JUMP JUMPDEST PUSH0 PUSH2 0x10F9 PUSH1 0x13 DUP4 PUSH2 0x10B5 JUMP JUMPDEST SWAP2 POP PUSH2 0x1104 DUP3 PUSH2 0x10C5 JUMP JUMPDEST PUSH1 0x20 DUP3 ADD SWAP1 POP SWAP2 SWAP1 POP JUMP JUMPDEST PUSH0 PUSH1 0x20 DUP3 ADD SWAP1 POP DUP2 DUP2 SUB PUSH0 DUP4 ADD MSTORE PUSH2 0x1126 DUP2 PUSH2 0x10ED JUMP JUMPDEST SWAP1 POP SWAP2 SWAP1 POP JUMP JUMPDEST PUSH32 0x4E6F7420656E6F756768207374616B6564000000000000000000000000000000 PUSH0 DUP3 ADD MSTORE POP JUMP JUMPDEST PUSH0 PUSH2 0x1161 PUSH1 0x11 DUP4 PUSH2 0x10B5 JUMP JUMPDEST SWAP2 POP PUSH2 0x116C DUP3 PUSH2 0x112D JUMP JUMPDEST PUSH1 0x20 DUP3 ADD SWAP1 POP SWAP2 SWAP1 POP JUMP JUMPDEST PUSH0 PUSH1 0x20 DUP3 ADD SWAP1 POP DUP2 DUP2 SUB PUSH0 DUP4 ADD MSTORE PUSH2 0x118E DUP2 PUSH2 0x1155 JUMP JUMPDEST SWAP1 POP SWAP2 SWAP1 POP JUMP JUMPDEST PUSH32 0x4E487B7100000000000000000000000000000000000000000000000000000000 PUSH0 MSTORE PUSH1 0x11 PUSH1 0x4 MSTORE PUSH1 0x24 PUSH0 REVERT JUMPDEST PUSH0 PUSH2 0x11CC DUP3 PUSH2 0xED5 JUMP JUMPDEST SWAP2 POP PUSH2 0x11D7 DUP4 PUSH2 0xED5 JUMP JUMPDEST SWAP3 POP DUP3 DUP3 ADD SWAP1 POP DUP1 DUP3 GT ISZERO PUSH2 0x11EF JUMPI PUSH2 0x11EE PUSH2 0x1195 JUMP JUMPDEST JUMPDEST SWAP3 SWAP2 POP POP JUMP JUMPDEST PUSH32 0x5374616B696E6720706572696F64206E6F742079657420706173736564000000 PUSH0 DUP3 ADD MSTORE POP JUMP JUMPDEST PUSH0 PUSH2 0x1229 PUSH1 0x1D DUP4 PUSH2 0x10B5 JUMP JUMPDEST SWAP2 POP PUSH2 0x1234 DUP3 PUSH2 0x11F5 JUMP JUMPDEST PUSH1 0x20 DUP3 ADD SWAP1 POP SWAP2 SWAP1 POP JUMP JUMPDEST PUSH0 PUSH1 0x20 DUP3 ADD SWAP1 POP DUP2 DUP2 SUB PUSH0 DUP4 ADD MSTORE PUSH2 0x1256 DUP2 PUSH2 0x121D JUMP JUMPDEST SWAP1 POP SWAP2 SWAP1 POP JUMP JUMPDEST PUSH0 PUSH2 0x1267 DUP3 PUSH2 0xED5 JUMP JUMPDEST SWAP2 POP PUSH2 0x1272 DUP4 PUSH2 0xED5 JUMP JUMPDEST SWAP3 POP DUP3 DUP3 SUB SWAP1 POP DUP2 DUP2 GT ISZERO PUSH2 0x128A JUMPI PUSH2 0x1289 PUSH2 0x1195 JUMP JUMPDEST JUMPDEST SWAP3 SWAP2 POP POP JUMP JUMPDEST PUSH0 PUSH1 0x40 DUP3 ADD SWAP1 POP PUSH2 0x12A3 PUSH0 DUP4 ADD DUP6 PUSH2 0x108D JUMP JUMPDEST PUSH2 0x12B0 PUSH1 0x20 DUP4 ADD DUP5 PUSH2 0xEDE JUMP JUMPDEST SWAP4 SWAP3 POP POP POP JUMP JUMPDEST PUSH0 DUP2 ISZERO ISZERO SWAP1 POP SWAP2 SWAP1 POP JUMP JUMPDEST PUSH2 0x12CB DUP2 PUSH2 0x12B7 JUMP JUMPDEST DUP2 EQ PUSH2 0x12D5 JUMPI PUSH0 PUSH0 REVERT JUMPDEST POP JUMP JUMPDEST PUSH0 DUP2 MLOAD SWAP1 POP PUSH2 0x12E6 DUP2 PUSH2 0x12C2 JUMP JUMPDEST SWAP3 SWAP2 POP POP JUMP JUMPDEST PUSH0 PUSH1 0x20 DUP3 DUP5 SUB SLT ISZERO PUSH2 0x1301 JUMPI PUSH2 0x1300 PUSH2 0xF06 JUMP JUMPDEST JUMPDEST PUSH0 PUSH2 0x130E DUP5 DUP3 DUP6 ADD PUSH2 0x12D8 JUMP JUMPDEST SWAP2 POP POP SWAP3 SWAP2 POP POP JUMP JUMPDEST PUSH32 0x5472616E73666572206661696C65640000000000000000000000000000000000 PUSH0 DUP3 ADD MSTORE POP JUMP JUMPDEST PUSH0 PUSH2 0x134B PUSH1 0xF DUP4 PUSH2 0x10B5 JUMP JUMPDEST SWAP2 POP PUSH2 0x1356 DUP3 PUSH2 0x1317 JUMP JUMPDEST PUSH1 0x20 DUP3 ADD SWAP1 POP SWAP2 SWAP1 POP JUMP JUMPDEST PUSH0 PUSH1 0x20 DUP3 ADD SWAP1 POP DUP2 DUP2 SUB PUSH0 DUP4 ADD MSTORE PUSH2 0x1378 DUP2 PUSH2 0x133F JUMP JUMPDEST SWAP1 POP SWAP2 SWAP1 POP JUMP JUMPDEST PUSH32 0x43616E6E6F74207374616B65207A65726F000000000000000000000000000000 PUSH0 DUP3 ADD MSTORE POP JUMP JUMPDEST PUSH0 PUSH2 0x13B3 PUSH1 0x11 DUP4 PUSH2 0x10B5 JUMP JUMPDEST SWAP2 POP PUSH2 0x13BE DUP3 PUSH2 0x137F JUMP JUMPDEST PUSH1 0x20 DUP3 ADD SWAP1 POP SWAP2 SWAP1 POP JUMP JUMPDEST PUSH0 PUSH1 0x20 DUP3 ADD SWAP1 POP DUP2 DUP2 SUB PUSH0 DUP4 ADD MSTORE PUSH2 0x13E0 DUP2 PUSH2 0x13A7 JUMP JUMPDEST SWAP1 POP SWAP2 SWAP1 POP JUMP JUMPDEST PUSH0 PUSH1 0x60 DUP3 ADD SWAP1 POP PUSH2 0x13FA PUSH0 DUP4 ADD DUP7 PUSH2 0x108D JUMP JUMPDEST PUSH2 0x1407 PUSH1 0x20 DUP4 ADD DUP6 PUSH2 0x108D JUMP JUMPDEST PUSH2 0x1414 PUSH1 0x40 DUP4 ADD DUP5 PUSH2 0xEDE JUMP JUMPDEST SWAP5 SWAP4 POP POP POP POP JUMP JUMPDEST PUSH0 PUSH1 0x40 DUP3 ADD SWAP1 POP PUSH2 0x142F PUSH0 DUP4 ADD DUP6 PUSH2 0xEDE JUMP JUMPDEST PUSH2 0x143C PUSH1 0x20 DUP4 ADD DUP5 PUSH2 0xEDE JUMP JUMPDEST SWAP4 SWAP3 POP POP POP JUMP JUMPDEST PUSH32 0x4E6F207374616B6520666F756E64000000000000000000000000000000000000 PUSH0 DUP3 ADD MSTORE POP JUMP JUMPDEST PUSH0 PUSH2 0x1477 PUSH1 0xE DUP4 PUSH2 0x10B5 JUMP JUMPDEST SWAP2 POP PUSH2 0x1482 DUP3 PUSH2 0x1443 JUMP JUMPDEST PUSH1 0x20 DUP3 ADD SWAP1 POP SWAP2 SWAP1 POP JUMP JUMPDEST PUSH0 PUSH1 0x20 DUP3 ADD SWAP1 POP DUP2 DUP2 SUB PUSH0 DUP4 ADD MSTORE PUSH2 0x14A4 DUP2 PUSH2 0x146B JUMP JUMPDEST SWAP1 POP SWAP2 SWAP1 POP JUMP JUMPDEST PUSH32 0x4E6F207265776172642079657400000000000000000000000000000000000000 PUSH0 DUP3 ADD MSTORE POP JUMP JUMPDEST PUSH0 PUSH2 0x14DF PUSH1 0xD DUP4 PUSH2 0x10B5 JUMP JUMPDEST SWAP2 POP PUSH2 0x14EA DUP3 PUSH2 0x14AB JUMP JUMPDEST PUSH1 0x20 DUP3 ADD SWAP1 POP SWAP2 SWAP1 POP JUMP JUMPDEST PUSH0 PUSH1 0x20 DUP3 ADD SWAP1 POP DUP2 DUP2 SUB PUSH0 DUP4 ADD MSTORE PUSH2 0x150C DUP2 PUSH2 0x14D3 JUMP JUMPDEST SWAP1 POP SWAP2 SWAP1 POP JUMP JUMPDEST PUSH32 0x526577617264207472616E73666572206661696C656400000000000000000000 PUSH0 DUP3 ADD MSTORE POP JUMP JUMPDEST PUSH0 PUSH2 0x1547 PUSH1 0x16 DUP4 PUSH2 0x10B5 JUMP JUMPDEST SWAP2 POP PUSH2 0x1552 DUP3 PUSH2 0x1513 JUMP JUMPDEST PUSH1 0x20 DUP3 ADD SWAP1 POP SWAP2 SWAP1 POP JUMP JUMPDEST PUSH0 PUSH1 0x20 DUP3 ADD SWAP1 POP DUP2 DUP2 SUB PUSH0 DUP4 ADD MSTORE PUSH2 0x1574 DUP2 PUSH2 0x153B JUMP JUMPDEST SWAP1 POP SWAP2 SWAP1 POP JUMP JUMPDEST PUSH0 PUSH2 0x1585 DUP3 PUSH2 0xED5 JUMP JUMPDEST SWAP2 POP PUSH2 0x1590 DUP4 PUSH2 0xED5 JUMP JUMPDEST SWAP3 POP DUP3 DUP3 MUL PUSH2 0x159E DUP2 PUSH2 0xED5 JUMP JUMPDEST SWAP2 POP DUP3 DUP3 DIV DUP5 EQ DUP4 ISZERO OR PUSH2 0x15B5 JUMPI PUSH2 0x15B4 PUSH2 0x1195 JUMP JUMPDEST JUMPDEST POP SWAP3 SWAP2 POP POP JUMP JUMPDEST PUSH32 0x4E487B7100000000000000000000000000000000000000000000000000000000 PUSH0 MSTORE PUSH1 0x12 PUSH1 0x4 MSTORE PUSH1 0x24 PUSH0 REVERT JUMPDEST PUSH0 PUSH2 0x15F3 DUP3 PUSH2 0xED5 JUMP JUMPDEST SWAP2 POP PUSH2 0x15FE DUP4 PUSH2 0xED5 JUMP JUMPDEST SWAP3 POP DUP3 PUSH2 0x160E JUMPI PUSH2 0x160D PUSH2 0x15BC JUMP JUMPDEST JUMPDEST DUP3 DUP3 DIV SWAP1 POP SWAP3 SWAP2 POP POP JUMP JUMPDEST PUSH32 0x4F776E61626C653A206E6577206F776E657220697320746865207A65726F2061 PUSH0 DUP3 ADD MSTORE PUSH32 0x6464726573730000000000000000000000000000000000000000000000000000 PUSH1 0x20 DUP3 ADD MSTORE POP JUMP JUMPDEST PUSH0 PUSH2 0x1673 PUSH1 0x26 DUP4 PUSH2 0x10B5 JUMP JUMPDEST SWAP2 POP PUSH2 0x167E DUP3 PUSH2 0x1619 JUMP JUMPDEST PUSH1 0x40 DUP3 ADD SWAP1 POP SWAP2 SWAP1 POP JUMP JUMPDEST PUSH0 PUSH1 0x20 DUP3 ADD SWAP1 POP DUP2 DUP2 SUB PUSH0 DUP4 ADD MSTORE PUSH2 0x16A0 DUP2 PUSH2 0x1667 JUMP JUMPDEST SWAP1 POP SWAP2 SWAP1 POP JUMP JUMPDEST PUSH32 0x4F776E61626C653A2063616C6C6572206973206E6F7420746865206F776E6572 PUSH0 DUP3 ADD MSTORE POP JUMP JUMPDEST PUSH0 PUSH2 0x16DB PUSH1 0x20 DUP4 PUSH2 0x10B5 JUMP JUMPDEST SWAP2 POP PUSH2 0x16E6 DUP3 PUSH2 0x16A7 JUMP JUMPDEST PUSH1 0x20 DUP3 ADD SWAP1 POP SWAP2 SWAP1 POP JUMP JUMPDEST PUSH0 PUSH1 0x20 DUP3 ADD SWAP1 POP DUP2 DUP2 SUB PUSH0 DUP4 ADD MSTORE PUSH2 0x1708 DUP2 PUSH2 0x16CF JUMP JUMPDEST SWAP1 POP SWAP2 SWAP1 POP JUMP INVALID LOG2 PUSH5 0x6970667358 0x22 SLT KECCAK256 0x24 DUP8 GASLIMIT INVALID 0xDB SELFDESTRUCT 0xF7 ADD SUB DELEGATECALL CALLCODE PUSH1 0x43 AND 0x4C BLOCKHASH PUSH0 0xEA SLT LOG2 0xD6 0xA5 SWAP6 PUSH18 0x2E2435D02D878B6A64736F6C634300081E00 CALLER "
				},
				"gasEstimates": {
					"creation": {
						"codeDepositCost": "1191400",
						"executionCost": "infinite",
						"totalCost": "infinite"
					},
					"external": {
						"SECONDS_IN_YEAR()": "348",
						"calculateReward(address)": "infinite",
						"claimReward()": "infinite",
						"minStakingDuration()": "2449",
						"owner()": "2581",
						"renounceOwnership()": "30454",
						"rewardRate()": "2448",
						"setMinStakingDuration(uint256)": "24820",
						"setRewardRate(uint256)": "24864",
						"stake(uint256)": "infinite",
						"stakedBalance(address)": "2879",
						"stakes(address)": "infinite",
						"stakingToken()": "infinite",
						"transferOwnership(address)": "30816",
						"unstake(uint256)": "infinite"
					}
				},
				"methodIdentifiers": {
					"SECONDS_IN_YEAR()": "5dcc9391",
					"calculateReward(address)": "d82e3962",
					"claimReward()": "b88a802f",
					"minStakingDuration()": "08ae7e54",
					"owner()": "8da5cb5b",
					"renounceOwnership()": "715018a6",
					"rewardRate()": "7b0a47ee",
					"setMinStakingDuration(uint256)": "8a2ff9a2",
					"setRewardRate(uint256)": "9e447fc6",
					"stake(uint256)": "a694fc3a",
					"stakedBalance(address)": "60217267",
					"stakes(address)": "16934fc4",
					"stakingToken()": "72f702f3",
					"transferOwnership(address)": "f2fde38b",
					"unstake(uint256)": "2e17de78"
				}
			},
			"storageLayout": {
				"storage": [
					{
						"astId": 384,
						"contract": "AVAX/artifacts/staking.sol:TokenStaking",
						"label": "_owner",
						"offset": 0,
						"slot": "0",
						"type": "t_address"
					},
					{
						"astId": 8,
						"contract": "AVAX/artifacts/staking.sol:TokenStaking",
						"label": "stakingToken",
						"offset": 0,
						"slot": "1",
						"type": "t_contract(IERC20)567"
					},
					{
						"astId": 11,
						"contract": "AVAX/artifacts/staking.sol:TokenStaking",
						"label": "rewardRate",
						"offset": 0,
						"slot": "2",
						"type": "t_uint256"
					},
					{
						"astId": 17,
						"contract": "AVAX/artifacts/staking.sol:TokenStaking",
						"label": "minStakingDuration",
						"offset": 0,
						"slot": "3",
						"type": "t_uint256"
					},
					{
						"astId": 29,
						"contract": "AVAX/artifacts/staking.sol:TokenStaking",
						"label": "stakes",
						"offset": 0,
						"slot": "4",
						"type": "t_mapping(t_address,t_struct(StakeInfo)24_storage)"
					}
				],
				"types": {
					"t_address": {
						"encoding": "inplace",
						"label": "address",
						"numberOfBytes": "20"
					},
					"t_contract(IERC20)567": {
						"encoding": "inplace",
						"label": "contract IERC20",
						"numberOfBytes": "20"
					},
					"t_mapping(t_address,t_struct(StakeInfo)24_storage)": {
						"encoding": "mapping",
						"key": "t_address",
						"label": "mapping(address => struct TokenStaking.StakeInfo)",
						"numberOfBytes": "32",
						"value": "t_struct(StakeInfo)24_storage"
					},
					"t_struct(StakeInfo)24_storage": {
						"encoding": "inplace",
						"label": "struct TokenStaking.StakeInfo",
						"members": [
							{
								"astId": 19,
								"contract": "AVAX/artifacts/staking.sol:TokenStaking",
								"label": "amount",
								"offset": 0,
								"slot": "0",
								"type": "t_uint256"
							},
							{
								"astId": 21,
								"contract": "AVAX/artifacts/staking.sol:TokenStaking",
								"label": "stakedAt",
								"offset": 0,
								"slot": "1",
								"type": "t_uint256"
							},
							{
								"astId": 23,
								"contract": "AVAX/artifacts/staking.sol:TokenStaking",
								"label": "lastClaimed",
								"offset": 0,
								"slot": "2",
								"type": "t_uint256"
							}
						],
						"numberOfBytes": "96"
					},
					"t_uint256": {
						"encoding": "inplace",
						"label": "uint256",
						"numberOfBytes": "32"
					}
				}
			},
			"userdoc": {
				"kind": "user",
				"methods": {},
				"version": 1
			}
		}
	}
}